:0400000081EF00F09C
:100008005E7C5E7C5E7C5E7C40005E7C40005E7C4C
:100018005E7C5E7C5E7C5E7C5E7C5E7C5E7C5E7C08
:100028005E7C4000400040005E7C5E7C5E7C5E7CC6
:100038005E7C5E7C5E7C5E7C5E7C5E7C5E7C077843
:100048005E7C5E7C5E7C5E7C400040005E7C5E7C0C
:100058005E7C5E7C5E7C40005E7C5E7C5E7C5E7C62
:100068005E7C5E7C5E7C5E7C5E7C5E7C5E7C5E7CB8
:100078005E7C5E7C5E7C5E7C40005E7C5E7C5E7C42
:100088005E7C5E7C5E7C5E7C5E7C5E7C5E7C5E7C98
:100098009D785E7C5E7C5E7C4000867B40004000F4
:1000A8005E7C5E7C5E7C5E7C5E7C5E7C5E7C5E7C78
:1000B8005E7C5E7C5E7C5E7C5E7C5E7C5E7C5E7C68
:1000C8005E7C5E7C5E7C5E7C5E7C5E7C5E7C5E7C58
:1000D8005E7C5E7C5E7C5E7C5E7C5E7C5E7C5E7C48
:1000E80040005E7C5E7C5E7C40004000400040003A
:0E00F8005E7C5E7C5E7C5E7CFF00A7EFEBF022
:10F3FC00001F001C001F001E001F001E001F001F0E
:10F40C00001E001F001E001F00819FE0FC407E803C
:10F41C00FC0000576172726E696E6721205345546F
:10F42C0020495251204F46462E20436865636B207D
:10F43C0062696E6172727920636F646520616E64BB
:10F44C002025732066696C652E0D0A0053442043F9
:10F45C006172643A20726561643531323A204352EC
:10F46C0043206572726F7220282530347820213D3C
:10F47C0020253034782C2072657472793D256429EE
:10F48C000A0D00496D6167652066696C65202573FE
:10F49C002F445249564525632E44534B2069732003
:10F4AC0061737369676E656420746F20647269762A
:10F4BC00652025630A0D006469736B5F696F637463
:10F4CC006C3A20706472763D25642C20636D643D2B
:10F4DC0025642C20627566663D3078256C783A2060
:10F4EC007265733D25640A0D0053442043617264B8
:10F4FC003A2020726561643531323A20616464725D
:10F50C003D25386C642C206F6666733D25642C2079
:10F51C00636F756E743D25640A0D0053442043617E
:10F52C0072643A2077726974653531323A206164BD
:10F53C0064723D25386C642C206F6666733D2564BF
:10F54C002C20636F756E743D25640A0D00534420A6
:10F55C00436172643A2077726974653531323A20AE
:10F56C006661696C656420746F2067657420746FC4
:10F57C006B656E2C2074696D656F75740A0D005384
:10F58C004420436172643A20777269746535313274
:10F59C003A2074696D656F75742C20726573706F89
:10F5AC006E736520697320253032780A0D00534440
:10F5BC0020436172643A20434D4435382C20523339
:10F5CC003D25303278202530327820253032782095
:10F5DC002530327820253032780A0D0025733A20F8
:10F5EC004552524F523A20636C6F636B20737065B7
:10F5FC006564202564206973206E6F7420737570A8
:10F60C00706F727465640A0D005344204361726418
:10F61C003A20434D44382C2052373D253032782047
:10F62C00253032782025303278202530327820254C
:10F63C003032780A0D006469736B5F696F63746CA8
:10F64C003A20706472763D25642C20636D643D25F0
:10F65C00643A204E6F742068616E646C65642E0A87
:10F66C000D006469736B5F726561643A202070648D
:10F67C0072763D25642C20736563746F723D256C26
:10F68C00642C20636F756E743D25640A0D006469EB
:10F69C00736B5F77726974653A20706472763D257E
:10F6AC00642C20736563746F723D256C642C20632D
:10F6BC006F756E743D25640A0D005365747570206A
:10F6CC0044533133303720525443206D6F64756C82
:10F6DC006520666F7220636C6F636B20646576695E
:10F6EC0063652E0D0A00534420436172643A204333
:10F6FC0043532028436172642043617061636974D1
:10F70C0079205374617475732920697320300A0D44
:10F71C0000534420436172643A20777269746535F2
:10F72C0031323A20435243206572726F7220287234
:10F73C00657472793D2564290A0D00534420436198
:10F74C0072643A204361726420706F776572207521
:10F75C0070207374617475732062697320697320EF
:10F76C00300A0D0072656164204D42522070617246
:10F77C00746974696F6E207461626C6520617420A9
:10F78C00736563746F7220300A0D0053442043611B
:10F79C0072643A2053444843206F722053445843B8
:10F7AC0020636172642064657465637465640A0D1A
:10F7BC000025733A204552524F523A206D6F6465C2
:10F7CC00202564206973206E6F7420737570706FC0
:10F7DC00727465640A0D004C6F6164202573203AC5
:10F7EC0020416472203D202530366C782C205369E2
:10F7FC007A65203D20253034780D0A00534420438F
:10F80C006172643A20696E697469616C697A652009
:10F81C002E2E2E207375636365656465640A0D0076
:10F82C00534420436172643A20756E657870656349
:10F83C0074656420726573706F6E73652025303249
:10F84C00780A0D00534420436172643A2041434DC1
:10F85C0044343120726573706F6E73652069732048
:10F86C00253032780A0D00534420436172643A20EB
:10F87C0077726974653531323A20746F6B656E201E
:10F88C00697320253032780A0D005344204361728D
:10F89C00643A20434D44353920726573706F6E7332
:10F8AC006520697320253032780A0D004D656D6F27
:10F8BC00727920303030303030202D202530366CAD
:10F8CC005848202564204B42204F4B0D0A00706194
:10F8DC0072746974696F6E207374617274732061D1
:10F8EC007420736563746F7220256C640A0D005369
:10F8FC00657475702074696D65723020666F722046
:10F90C00636C6F636B206465766963652E0D0A000A
:10F91C00665F777269746528293A204552524F52B6
:10F92C00207265733D25642C206E3D25640A0D0004
:10F93C00665F7265616428293A204552524F522005
:10F94C007265733D25642C206E3D25640A0D00669E
:10F95C0061696C656420746F2077726974652073BB
:10F96C006563746F7220256C640A0D000D0A536573
:10F97C0074204461746528253034642F253032643A
:10F98C002F25303264290D0A00554E4B4E4F574EE1
:10F99C0020444556494345203A20434D44282530C0
:10F9AC003278290D0A006661696C656420746F20D9
:10F9BC007265616420736563746F7220256C640AD0
:10F9CC000D000A0D534420436172643A20696E693C
:10F9DC007469616C697A65202E2E2E0A0D005344D1
:10F9EC0020436172643A2041434D4434312C2052FF
:10F9FC00313D253032780A0D005365742054696D01
:10FA0C006528253032643A253032643A2530326428
:10FA1C00290D0A0050726F6772616D2046696C6522
:10FA2C00204C6F6164204572726F722E0D0A004675
:10FA3C0061696C656420746F206D6F756E742053F2
:10FA4C004420436172642E0A0D00554E4B4E4F57A5
:10FA5C004E20756E696D6F6E20434D4428253032F3
:10FA6C0078290D0A006661696C656420746F2072D8
:10FA7C0065616420736563746F7220300A0D0046F3
:10FA8C0061696C656420746F206F70656E205344DF
:10FA9C0020436172642E0A0D004D455A38365F5270
:10FAAC00414D204669726D776172652052657631E1
:10FABC002E31000A4D656D6F7279206572726F720E
:10FACC00206174202530366C58480A0D0064697327
:10FADC006B5F696E697469616C697A652825642944
:10FAEC002E2E2E0A0D00534420436172643A206E70
:10FAFC006F74207375706F70727465640A0D0053A7
:10FB0C004420436172643A20434D44302C205231DE
:10FB1C003D253032780A0D00202020202020202086
:10FB2C002020202020202020202020202020200DDC
:10FB3C00007761697420666F722070726F677261F2
:10FB4C006D6D6572202E2E2E0D00445331333037DF
:10FB5C00205769746520493243206572726F722197
:10FB6C000D0A004E6F202573206469726563746FF3
:10FB7C00727920666F756E642E0D0A00333A546FDD
:10FB8C00796F7368696B692054696E79204261736F
:10FB9C0069630A0D002573253533732043484543AB
:10FBAC004B53554D3A20253032780A0D004D656D7A
:10FBBC006F727920303030303030202D20253036A7
:10FBCC006C58480D004932432062757320697320CC
:10FBDC006E6F742065786973742E0A0D00706879E5
:10FBEC00736963616C2064726976657220213D20B3
:10FBFC00300A0D00353A47414D452D4320496E746E
:10FC0C0065727072657465720A0D004461746520CA
:10FC1C00253034642F253032642F25303264203D5A
:10FC2C00200054696D6520253032643A25303264E9
:10FC3C003A25303264203D20000A4D656D6F727993
:10FC4C0020777261702061726F756E642E0A0D00E0
:10FC5C00323A38303836204E4153434F4D204241D2
:10FC6C005349430A0D00313A556E697665727361DA
:10FC7C006C204D6F6E69746F720A0D00665F6C7349
:10FC8C0065656B28293A204552524F522025640A4B
:10FC9C000D006E6F204641543332207061727469CE
:10FCAC0074696F6E0A0D00434C4B203D2025642C6B
:10FCBC0020495251203D2025640D0A00303A544F02
:10FCCC00442854696D65204F6620446179290A0DDA
:10FCDC0000665F73796E6328293A204552524F5261
:10FCEC002025640A0D004E6F2064726976652041F0
:10FCFC0020666F756E642E0A0D006E6F204D425299
:10FD0C00207369676E61747572650A0D0053442027
:10FD1C00436172643A2074696D656F75740A0D00E5
:10FD2C0046696C652072656164206572726F722120
:10FD3C000D0A00342E39324D487A206475747920BE
:10FD4C0033382E342500392E31344D487A206475E1
:10FD5C0074792034322E3925004453313330372016
:10FD6C00525443206D6F64756C6520006E6F207665
:10FD7C00616C696420766F6C756D650A0D00534477
:10FD8C0020436172643A2072656164792E0A0D0019
:10FD9C00536574206465627567206D6F64652E0D04
:10FDAC000A0031302E36374D487A2064757479202C
:10FDBC00353025005350495F53445F636F6E66695D
:10FDCC0067757265002573206E6F7420666F756E93
:10FDDC00642E2E0D0A0031322E384D487A2064756F
:10FDEC0074792036302500384D487A206475747942
:10FDFC002033372E3525006973206E6F742065789B
:10FE0C006973742E0D0A002A2B2C3A3B3C3D3E5B49
:10FE1C005D7C223F7F0043505520636C6F636B20E9
:10FE2C0025730D0A0031364D487A2064757479209B
:10FE3C003530250025732F445249564525632E44F1
:10FE4C00534B004E6F20534420436172643F0A0DA4
:10FE5C000054545F42415338362E42494E00554DA2
:10FE6C004F4E5F5338362E42494E00424153494360
:10FE7C005F38362E42494E004343505F42444F5345
:10FE8C002E42494E00363A43502F4D2D38360A0D2E
:10FE9C00000A0D53656C6563743A0A0D00426F617C
:10FEAC0072643A2025730A0D0044657465637420EE
:10FEBC0025730A0D00474D495F5338362E42494E83
:10FECC000056544C5F5338362E42494E00373A4D4B
:10FEDC00532D444F530A0D00554E494D4F4E5F4F15
:10FEEC00464600554E494D4F4E5F534547004C6FAB
:10FEFC0061642025730D0A00343A56544C2D430A84
:10FF0C000D004342494F535F4F464600494F5359EA
:10FF1C00535F4F464600494F5359535F5345470073
:10FF2C004D455A38362E434647004342494F532ECF
:10FF3C0042494E004D53444F532E5359530065784C
:10FF4C00697374732E0D0A0025732530366C783A5C
:10FF5C000046415433322020200041504C495F4F21
:10FF6C0046460041504C495F5345470043504D4471
:10FF7C0049534B5300444F534449534B530025733F
:10FF8C00253034783A0043504D5F4F46460043507D
:10FF9C004D5F53454700286E756C6C2900494E54D3
:10FFAC0056454300494F2E53595300202530327883
:10FFBC00006661743A200025732F25730062756604
:10FFCC003A200053443A2000303A2F2F0045584530
:10FFDC00430052443A200057523A2000494E460002
:10FFEC004E614E00434C4B00495251004F56003F5E
:03FFFC00200000E2
:020000040001F9
:10000000F3C5D9F4F4C5DAF4DE6ADD6AF1C504F5A6
:10001000F2C505F5E7ECC9F004C585F605C586F619
:10002000060186BF18EF80F016EF80F01BEF80F01E
:100030000B0EC2EF85F0D8908535D96E8635DA6E15
:10004000260ED926070EDA22DEC4A0F6DDC4A1F6FC
:10005000A051A111D8A42FEF80F031EF80F034EF40
:1000600080F00C0EC2EF85F0F3C5D9F4F4C5DAF4D4
:10007000A0C6DEF4A1C6DDF40501F591A0C6D9F451
:10008000A1C6DAF4DF50D8B448EF80F04AEF80F030
:1000900074EF80F0060120EE01F0A051D926A151A5
:1000A000DA22DF508AECF5F00601956F95B15BEF2F
:1000B00080F05DEF80F074EF80F00501F551D8B469
:1000C00064EF80F066EF80F071EF80F0060195A597
:1000D0006CEF80F06EEF80F071EF80F00A0EC2EFEF
:1000E00085F0000EC2EF85F0A0C6D9F4A1C6DAF4FF
:1000F000DF6A060120EE01F0A051D926A151DA22D3
:10010000DF5074ECC7F00601956F95A18AEF80F07F
:100110008CEF80F08FEF80F0030EC2EF85F00501C9
:10012000F551D8B496EF80F098EF80F0A2EF80F010
:10013000060195A59EEF80F0A0EF80F0A2EF80F081
:100140006EEF80F0A0C6D3F5A1C6D4F5000E050170
:10015000D66F000ED56F5DECC0F0D3C59EF6D4C54A
:100160009FF6040E06019E199F11D8A4BAEF80F0E5
:10017000BCEF80F0BFEF80F0010EC2EF85F09F5121
:1001800009E1020E9E5DD8A0C8EF80F0CAEF80F0B2
:10019000CDEF80F00D0EC2EF85F020EE2CF0A051D7
:1001A000D926A151DA22DEC491F6DEC492F6DEC46D
:1001B00093F6DEC494F63B0EA025046E000EA1213A
:1001C000056E3FECF6F0020E05180410D8B4EBEF04
:1001D00080F0EDEF80F0EFEF80F0CAEF80F0460E98
:1001E0000601A025046E000EA121056E3FECF6F07D
:1001F00004C59AF605C59BF606019C6B9D6B9A514A
:100200009B119C119D11D8A408EF81F00AEF81F099
:100210001AEF81F0540EA025046E000EA121056E88
:1002200018ECE7F004C59AF605C59BF606C59CF6E2
:1002300007C59DF6060120EE18F0A051D926A15160
:10024000DA229AC6DEF49BC6DEF49CC6DEF49DC6B6
:10025000DEF420EE40F0A051D926A151DA2210EEB2
:1002600003F0A051E126A151E222DFC4E7F420EE21
:1002700003F0A051D926A151DA22DE04D8B443EF0D
:1002800081F045EF81F056EF81F020EE03F0A051B0
:10029000D926A151DA22020EDE18D8B452EF81F02D
:1002A00054EF81F056EF81F0CAEF80F09AC611F555
:1002B0009BC612F59CC613F59DC614F520EE03F0FF
:1002C000A051D926A151DA22DF500501F66FF6516F
:1002D000156E166A176A186AA9ECF1F011C59AF63C
:1002E00012C59BF613C59CF614C59DF6060120EEBB
:1002F0003DF0A051D926A151DA22DF500501F66F59
:10030000F76B060120EE0AF0A051D926A151DA229E
:10031000F6C5DEF4F7C5DDF420EE0AF0A051D926CB
:10032000A151DA22DE50DE10D8B499EF81F09BEFB4
:1003300081F0CAEF80F020EE0AF0A051D926A15139
:10034000DA22DEC4F6F5DDC4F7F520EE0AF0A0519E
:10035000D926A151DA22DEC4F8F5DDC4F9F5FF0E85
:100360000501F825FA6FFF0EF921FB6FF651FA151A
:10037000FC6FF751FB15FD6FFC51FD11D8B4C3EFB5
:1003800081F0C5EF81F0C7EF81F0CAEF80F0410E38
:100390000601A025046E000EA121056E3FECF6F0CB
:1003A000060120EE08F0A051D926A151DA2204C599
:1003B000DEF405C5DDF420EE08F0A051D926A151E8
:1003C000DA22DEC4F6F5DDC4F7F50F0E0501F617E7
:1003D000000EF717F651F711D8B4F1EF81F0F3EFF3
:1003E00081F0F5EF81F0CAEF80F0430E0601A02501
:1003F000046E000EA121056E3FECF6F004C58DF6EB
:1004000005C58EF606018F6B906B8D518E118F1185
:100410009011D8A40EEF82F010EF82F020EF82F05E
:10042000500EA025046E000EA121056E18ECE7F019
:1004300004C58DF605C58EF606C58FF607C590F680
:100440003E0E0601A025046E000EA121056E3FECB4
:10045000F6F004C58BF605C58CF606018B518C11A0
:10046000D8A435EF82F037EF82F039EF82F0CAEF8F
:1004700080F020EE08F0A051D926A151DA22DEC486
:10048000F6F5DDC4F7F5040E0501F86FD890F733E3
:10049000F633F82F46EF82F006018B510501F62561
:1004A000F96F06018C510501F721FA6FFB6BD8B08B
:1004B000FB2BFC6B06019A510501F9250601876F9C
:1004C0009B510501FA210601886F9C510501FB2112
:1004D0000601896F9D510501FC2106018A6F875134
:1004E0008D5D88518E5989518F598A519059D8B054
:1004F0007CEF82F07EEF82F080EF82F0CAEF80F036
:1005000087518D5D046E88518E59056E89518F59C2
:10051000066E8A519059076E20EE0AF0A051D92636
:10052000A151DA22DEC4F6F5DDC4F7F5F6C508F50B
:10053000F7C509F50A6A0B6A2DECE9F004C596F6D1
:1005400005C597F606C598F607C599F606019651B2
:10055000971198119911D8A4B0EF82F0B2EF82F000
:10056000B4EF82F0CAEF80F0000E9F6F000E9E6F16
:10057000F60E965DFF0E9759FF0E98590F0E99597A
:10058000D8B0C5EF82F0C7EF82F0CBEF82F0000E5B
:100590009F6F030E9E6F9951981109E1F60E965DBB
:1005A000FF0E9759D8B0D7EF82F0D9EF82F0DDEF88
:1005B00082F0000E9F6F020E9E6F9951981109E113
:1005C000F60E965D0F0E9759D8B0E9EF82F0EBEF7B
:1005D00082F0EFEF82F0000E9F6F010E9E6F9E5132
:1005E0009F11D8A4F6EF82F0F8EF82F0FAEF82F0D4
:1005F000CAEF80F0020E96250501F66F000E060187
:1006000097210501F76F000E060198210501F86F8B
:10061000000E060199210501F96F060120EE14F084
:10062000A051D926A151DA22F6C5DEF4F7C5DEF4D1
:10063000F8C5DEF4F9C5DEF420EE1CF0A051D92691
:10064000A151DA2291C6DEF492C6DEF493C6DEF43E
:1006500094C6DEF48B5191250501F66F06018C518D
:1006600092210501F76F000E060193210501F86F35
:10067000000E060194210501F96F060120EE20F01D
:10068000A051D926A151DA22F6C5DEF4F7C5DEF471
:10069000F8C5DEF4F9C5DEF4875191250501F66F42
:1006A0000601885192210501F76F060189519321B6
:1006B0000501F86F06018A5194210501F96F0601C1
:1006C00020EE28F0A051D926A151DA22F6C5DEF499
:1006D000F7C5DEF4F8C5DEF4F9C5DEF4030E9E19A5
:1006E0009F11D8A476EF83F078EF83F0D6EF83F0F4
:1006F0005A0EA025046E000EA121056E3FECF6F007
:1007000004500510D8B487EF83F089EF83F08BEFA6
:1007100083F0CAEF80F0060120EE08F0A051D92640
:10072000A151DA22DE50DE10D8B499EF83F09BEFAE
:1007300083F09DEF83F0CAEF80F05C0EA025046E7D
:10074000000EA121056E18ECE7F0060120EE24F062
:10075000A051D926A151DA2204C5DEF405C5DEF484
:1007600006C5DEF407C5DEF420EE14F0A051D9264C
:10077000A151DA22DEC4F6F5DEC4F7F5DEC4F8F5E1
:10078000DEC4F9F5020ED8900501F637F737F837D1
:10079000F937E82EC3EF83F0F6C581F6F7C582F688
:1007A000F8C583F6F9C584F68FEF84F020EE08F0E3
:1007B000A051D926A151DA22DE50DE10D8A4E3EFF1
:1007C00083F0E5EF83F0E7EF83F0CAEF80F020EEEF
:1007D00020F0A051D926A151DA22DEC4F6F5DEC4FC
:1007E000F7F5DEC4F8F5DEC4F9F59A510501F625F2
:1007F000FA6F06019B510501F721FB6F06019C5121
:100800000501F821FC6F06019D510501F921FD6FDD
:10081000060120EE24F0A051D926A151DA22FAC512
:10082000DEF4FBC5DEF4FCC5DEF4FDC5DEF4020E2D
:100830009E199F11D8B41FEF84F021EF84F070EF60
:1008400084F020EE14F0A051D926A151DA22DEC4A2
:10085000F6F5DEC4F7F5DEC4F8F5DEC4F9F5010EF1
:100860000501F615FA6F000EF715FB6F000EF8156F
:10087000FC6F000EF915FD6F060120EE14F0A0517B
:10088000D926A151DA22DEC411F5DEC412F5DEC488
:1008900013F5DEC414F5030E156E000E166E000E71
:1008A000176E000E186EA9ECF1F0D89014321332C6
:1008B000123211320501FA5111240601816F05012E
:1008C000FB5112200601826F0501FC511320060125
:1008D000836F0501FD5114200601846F8FEF84F0B2
:1008E00020EE14F0A051D926A151DA22DEC4F6F58B
:1008F000DEC4F7F5DEC4F8F5DEC4F9F5D8900501DD
:10090000F6350601816F0501F7350601826F050195
:10091000F8350601836F0501F9350601846FFF0E76
:10092000060181250501F66F010E060182210501F0
:10093000F76F000E060183210501F86F000E060116
:1009400084210501F96F0A0EABEF84F0D890F933DA
:10095000F833F733F633E82EA6EF84F0060120EEE5
:1009600018F0A051D926A151DA220501F651DE5C1A
:10097000F751DE58F851DE58F951DE58D8B0C3EFC0
:1009800084F0C5EF84F0C7EF84F0CAEF80F0060171
:1009900020EE10F0A051D926A151DA22FF0EDE6E12
:1009A000FF0EDE6EFF0EDE6EFF0EDD6EDD52DD52DF
:1009B00010EE0CF0A051E126A151E222DEC4E6F4D3
:1009C000DEC4E6F4DEC4E6F4DEC4E6F420EE05F0B0
:1009D000A051D926A151DA22800EDF6E030E9E1996
:1009E0009F11D8A4F6EF84F0F8EF84F0ACEF85F017
:1009F000600EA025046E000EA121056E3FECF6F0FE
:100A000004040510D8A407EF85F009EF85F0ACEFDA
:100A100085F0A0C6BAF5A1C6BBF5010E0601912569
:100A20000501BC6F000E060192210501BD6F000E8D
:100A3000060193210501BE6F000E060194210501F8
:100A4000BF6FCDECE4F00009D8A429EF85F02BEFBF
:100A500085F0ACEF85F0060120EE05F0A051D92617
:100A6000A151DA22DF6A2E0EA025046E020EA1210A
:100A7000056E3FECF6F0550E041807E1AA0E0518B6
:100A8000D8A445EF85F047EF85F0ACEF85F0300E48
:100A90000601A025046E000EA121056E18ECE7F0FA
:100AA000520E04180DE1520E05180AE1610E0618E7
:100AB00007E1410E0718D8A460EF85F062EF85F0DA
:100AC000ACEF85F0140E0601A025046E020EA121E4
:100AD000056E18ECE7F0720E04180DE1720E0518A1
:100AE0000AE1410E061807E1610E0718D8A47BEF52
:100AF00085F07DEF85F0ACEF85F0180E0601A0259E
:100B0000046E020EA121056E18ECE7F0060120EE3E
:100B100010F0A051D926A151DA2204C5DEF405C592
:100B2000DEF406C5DEF407C5DEF41C0EA025046E57
:100B3000020EA121056E18ECE7F0060120EE0CF084
:100B4000A051D926A151DA2204C5DEF405C5DEF490
:100B500006C5DEF407C5DEF4A0C6D9F4A1C6DAF4F2
:100B60009EC6DFF40701244B252B060120EE06F07C
:100B7000A051D926A151DA2224C7DEF425C7DDF41D
:100B800071EF80F0120011C61CF612C61DF615C6D4
:100B9000D9F416C6DAF4DE6ADD6A0FC661F510C64E
:100BA00062F52C0E0501636F060E646FFDECDBF041
:100BB00006011B6F1B51D8A4E0EF85F0E2EF85F032
:100BC000F2EF85F020EE0FF00F51D9261051DA2206
:100BD000DF501B6F1B51D8B4F0EF85F0F2EF85F0BA
:100BE000F5EF85F01B5147EF8AF020EE0EF00F5124
:100BF000D9261051DA22DFB200EF86F002EF86F03C
:100C000005EF86F0070E47EF8AF020EE10F00F5147
:100C1000D9261051DA2210EE10F00F51E1261051B2
:100C2000E222E6C4F8F5E6C4F9F5E6C4FAF5E6C44E
:100C3000FBF513510501F825FC6F06011451050160
:100C4000F921FD6F000EFA21FE6F000EFB21FF6FF0
:100C5000DE50FC5DDE50FD59DE50FE59DE50FF597E
:100C6000D8B035EF86F037EF86F04AEF86F0060110
:100C700020EE10F00F51D9261051DA22DEC4F4F51F
:100C8000DDC4F5F50501F41D0601136F0501F51D21
:100C90000601146F060113511411D8A452EF86F007
:100CA00054EF86F056EF86F03EEF8AF020EE10F01B
:100CB0000F51D9261051DA22FF0EDE140501F46F10
:100CC000010EDE14F56F000EDE14F66F000EDE145A
:100CD000F76FF451F511F611F711D8A472EF86F001
:100CE00074EF86F077EF89F0060120EE10F00F51D7
:100CF000D9261051DA22DEC4F4F5DEC4F5F5DEC4DF
:100D0000F6F5DEC4F7F50A0E8CEF86F00501D890F3
:100D1000F733F633F533F433E82E86EF86F0060129
:100D200020EE0AF02C51D9262D51DA22DEC4F8F536
:100D3000DDC4F9F5FF0E0501F825FA6FFF0EF92164
:100D4000FB6FF451FA1506011E6F0501F551FB15F5
:100D500006011F6F1E511F11D8A4B1EF86F0B3EF2B
:100D600086F07CEF87F020EE10F00F51D92610515D
:100D7000DA22DE50DE10DE10DE10D8A4C2EF86F0DC
:100D8000C4EF86F0F6EF86F020EE06F00F51D9267C
:100D90001051DA22DEC422F6DEC423F6DEC424F6C5
:100DA000DEC425F62251231124112511D8A4DBEF2E
:100DB00086F0DDEF86F012EF87F00FC6E6F510C67D
:100DC000E7F5000E0501E86F000EE96F000EEA6F0F
:100DD000000EEB6FF6EC95F0E6C522F6E7C523F6BC
:100DE000E8C524F6E9C525F612EF87F00FC6E6F54B
:100DF00010C6E7F520EE14F00F51D9261051DA2273
:100E0000DEC4E8F5DEC4E9F5DEC4EAF5DEC4EBF5E0
:100E1000F6EC95F0E6C522F6E7C523F6E8C524F61C
:100E2000E9C525F606012251231124112511D8A464
:100E30001CEF87F01EEF87F020EF87F03EEF8AF07F
:100E40002205231124112511D8A429EF87F02BEFB7
:100E500087F036EF87F020EE0FF00F51D9261051B2
:100E6000DA22020EDF6E020E47EF8AF022290AE133
:100E7000232908E1242906E12529D8A442EF87F097
:100E800044EF87F04FEF87F020EE0FF00F51D92697
:100E90001051DA22010EDF6E010E47EF8AF020EECC
:100EA00014F00F51D9261051DA2222C6DEF423C6DF
:100EB000DEF424C6DEF425C6DEF420EE06F00F5183
:100EC000D9261051DA22DE50DE10DE10DE10D8A452
:100ED0006CEF87F06EEF87F07CEF87F020EE06F086
:100EE0000F51D9261051DA2222C6DEF423C6DEF4D1
:100EF00024C6DEF425C6DEF420EE0EF00F51D9260E
:100F00001051DA22DFAE87EF87F089EF87F0CCEF60
:100F100087F0220E0F2505019C6F000E060110219F
:100F200005019D6F060120EE18F00F51D9261051D2
:100F3000DA22DEC49EF5DEC49FF5DEC4A0F5DEC471
:100F4000A1F5000E0501A36F010EA26F060120EEB0
:100F500001F02C51D9262D51DA22DF5041ECECF072
:100F60000009D8B4B6EF87F0B8EF87F0C3EF87F089
:100F7000060120EE0FF00F51D9261051DA22010E92
:100F8000DF6E4CEF87F0060120EE0EF00F51D926F0
:100F90001051DA227F0EDF162CC61DF52DC61EF568
:100FA00020EE14F00F51D9261051DA22DEC41FF5BD
:100FB000DEC420F5DEC421F5DEC422F502ECE4F047
:100FC0001DC528F61EC529F61FC52AF620C52BF615
:100FD0000601285129112A112B11D8A4F2EF87F00C
:100FE000F4EF87F0FEEF87F020EE0FF00F51D926D7
:100FF0001051DA22020EDF6E33EF87F01E512827E0
:101000001F512923000E2A23000E2B2313C6F4F5AB
:1010100014C6F5F5090E0501F66FD890F533F433D3
:10102000F62F0DEF88F0F4C520F6F5C521F6060180
:1010300020512111D8B41FEF88F021EF88F003EF81
:1010400089F020511E250501F46F060121511F2151
:101050000501F56F060120EE0AF02C51D9262D511D
:10106000DA220501F451DE5CF551DE58D8B03BEFD1
:1010700088F03DEF88F052EF88F0060120EE0AF08C
:101080002C51D9262D51DA22DEC4F4F5DDC4F5F554
:101090001E510501F45D0601206F1F510501F55930
:1010A0000601216F1CC69CF51DC69DF528C69EF540
:1010B00029C69FF52AC6A0F52BC6A1F520C6A2F524
:1010C00021C6A3F5060120EE01F02C51D9262D51A1
:1010D000DA22DF5041ECECF00009D8B472EF88F06E
:1010E00074EF88F07FEF88F0060120EE0FF00F51CB
:1010F000D9261051DA22010EDF6E4CEF87F006017F
:1011000020510501F46F060121510501F56FF66BC1
:10111000F76B060120EE18F00F51D9261051DA2294
:10112000DEC4F8F5DEC4F9F5DEC4FAF5DEC4FBF57D
:1011300028510501F85DFC6F060129510501F95997
:10114000FD6F06012A510501FA59FE6F06012B5168
:101150000501FB59FF6FF451FC5DF551FD59F65146
:10116000FE59F751FF59D8B0B8EF88F0BAEF88F0C0
:10117000F1EF88F0220E06010F25046E000E1021FB
:10118000056E20EE18F00F51D9261051DA22DEC478
:10119000F4F5DDC4F5F528510501F45F0601295188
:1011A0000501F55B090ED890F437F537E82ED3EF3B
:1011B00088F0F45106011C25066E0501F551060163
:1011C0001D21076E020E096E000E086E89ECF4F008
:1011D000060120EE0EF00F51D9261051DA227F0EB3
:1011E000DF1620C6F4F521C6F5F5090ED8900501E5
:1011F000F437F537E82EF6EF88F0F4C526F6F5C596
:1012000027F6D7EF89F020EE18F00F51D9261051AC
:10121000DA222851DE180FE12951DE180CE12A519B
:10122000DE1809E12B51DE18D8B419EF89F01BEF55
:1012300089F068EF89F020EE0AF00F51D92610519D
:10124000DA2210EE10F00F51E1261051E222DE50AA
:10125000E65CDE50E658DE50E658DE50E658D8B080
:1012600034EF89F036EF89F068EF89F0220E0F2510
:1012700005019E6F000E0601102105019F6F28C613
:10128000A0F529C6A1F52AC6A2F52BC6A3F5000E26
:10129000A56F010EA46F060120EE01F02C51D92696
:1012A0002D51DA22DF508EECECF00009D8B45BEF60
:1012B00089F05DEF89F068EF89F0060120EE0FF00C
:1012C0000F51D9261051DA22010EDF6E4CEF87F054
:1012D000060120EE18F00F51D9261051DA2228C647
:1012E000DEF429C6DEF42AC6DEF42BC6DEF40601DF
:1012F00020EE10F00F51D9261051DA22DEC4F4F599
:10130000DDC4F5F5FF0E0501F415F66F010EF515B8
:10131000F76FF65100080601266F0501F751D8A0B6
:10132000E82A02080601276F2651135D2751145938
:10133000D8B09DEF89F09FEF89F0A3EF89F013C635
:1013400026F614C627F620EE10F00F51D9261051BC
:10135000DA22DEC4F4F5DDC4F5F5FF0E0501F4155F
:10136000F66F010EF515F76FF65106010F25050111
:10137000F86FF751060110210501F96F220EF825CB
:10138000046E000EF921056E1CC606F51DC607F594
:1013900026C608F527C609F589ECF4F0060120EE0B
:1013A0000EF00F51D9261051DA22000EDB8E060105
:1013B0002651135F2751145B15C6D9F416C6DAF40B
:1013C0002651DE262751DD2226511C2727511D23B9
:1013D00020EE10F00F51D9261051DA222651DE26C8
:1013E0002751DE22000EDE22DE2220EE10F00F5109
:1013F000D9261051DA2210EE0AF00F51E1261051D1
:10140000E222DE50E65CDE50E658DE50E658DE5062
:10141000E658D8A00EEF8AF010EF8AF020EF8AF09D
:1014200020EE0AF00F51D9261051DA22DEC417F649
:10143000DEC418F6DEC419F6DEC41AF62EEF8AF002
:1014400020EE10F00F51D9261051DA22DEC417F623
:10145000DEC418F6DEC419F6DEC41AF620EE0AF071
:101460000F51D9261051DA2217C6DEF418C6DEF461
:1014700019C6DEF41AC6DEF44AEF86F020EE0EF04E
:101480000F51D9261051DA22000EDB8C000E12000B
:101490000FC661F510C662F5320E0501636F060EC8
:1014A000646FFDECDBF006012D6F2D51D8A45BEFCE
:1014B0008AF05DEF8AF065EF8AF020EE0FF00F51B1
:1014C000D9261051DA22DF502D6F2D51D8B46BEF91
:1014D0008AF06DEF8AF070EF8AF02D5153EF8EF0A5
:1014E00020EE0AF00F51D9261051DA221151DE5C9C
:1014F0001251DE581351DE581451DE58D8B083EF24
:101500008AF085EF8AF0A0EF8AF020EE0EF00F51FE
:10151000D9261051DA22DFB290EF8AF092EF8AF0EA
:10152000A0EF8AF020EE0AF00F51D9261051DA22EE
:10153000DEC411F6DEC412F6DEC413F6DEC414F601
:1015400020EE10F00F51D9261051DA22DEC425F614
:10155000DEC426F6DEC427F6DEC428F6000E296FA8
:10156000000E2A6F000E2B6F000E2C6F20EE10F075
:101570000F51D9261051DA2229C6DEF42AC6DEF42C
:101580002BC6DEF42CC6DEF4115112111311141106
:10159000D8B4CDEF8AF0CFEF8AF054EF8DF020EE83
:1015A0000AF03251D9263351DA22DEC415F6DDC4F1
:1015B00016F61551176F1651186F196B1A6B090E25
:1015C000D8901737183719371A37E82EE0EF8AF016
:1015D00017C62EF618C62FF619C630F61AC631F6FB
:1015E0002551261127112811D8B4F9EF8AF0FBEF05
:1015F0008AF098EF8BF0FF0E1125046EFF0E12217A
:10160000056EFF0E1321066EFF0E1421076E2EC607
:1016100008F52FC609F530C60AF531C60BF52DECD5
:10162000E9F004C515F605C516F606C517F607C593
:1016300018F6FF0E06012525046EFF0E2621056E05
:10164000FF0E2721066EFF0E2821076E2EC608F515
:101650002FC609F530C60AF531C60BF52DECE9F0B9
:1016600004500601155D05501659065017590750CC
:101670001859D8A03EEF8BF040EF8BF098EF8BF02D
:10168000FF0E2E25156FFF0E2F21166FFF0E302136
:10169000176FFF0E3121186F151D196F161D1A6F68
:1016A000171D1B6F181D1C6FFF0E25251D6FFF0ECC
:1016B00026211E6FFF0E27211F6FFF0E2821206F8E
:1016C00019511D15216F1A511E15226F1B511F151F
:1016D000236F1C512015246F20EE10F00F51D926D6
:1016E0001051DA2221C6DEF422C6DEF423C6DEF46F
:1016F00024C6DEF420EE10F00F51D9261051DA2264
:10170000DE50115FDE50125BDE50135BDD50145B68
:1017100020EE14F00F51D9261051DA22DEC434F62F
:10172000DEC435F6DEC436F6DEC437F614EF8CF0D0
:1017300020EE06F00F51D9261051DA22DEC434F61D
:10174000DEC435F6DEC436F6DEC437F63451351164
:1017500036113711D8A4AFEF8BF0B1EF8BF006EF55
:101760008CF00FC6E6F510C6E7F5000E0501E86F30
:10177000000EE96F000EEA6F000EEB6FF6EC95F0CD
:10178000E6C534F6E7C535F6E8C536F6E9C537F6F9
:1017900006013405351136113711D8A4D2EF8BF07C
:1017A000D4EF8BF0DFEF8BF020EE0FF00F51D92646
:1017B0001051DA22020EDF6E020E53EF8EF0342942
:1017C0000AE1352908E1362906E13729D8A4EBEFEB
:1017D0008BF0EDEF8BF0F8EF8BF020EE0FF00F5168
:1017E000D9261051DA22010EDF6E010E53EF8EF072
:1017F00020EE06F00F51D9261051DA2234C6DEF45D
:1018000035C6DEF436C6DEF437C6DEF420EE14F05C
:101810000F51D9261051DA2234C6DEF435C6DEF473
:1018200036C6DEF437C6DEF43451351136113711C1
:10183000D8B41DEF8CF01FEF8CF054EF8DF0D9EF82
:101840008CF02E51115F2F51125B3051135B3151CF
:10185000145B20EE10F00F51D9261051DA222E51D0
:10186000DE262F51DE223051DE223151DE2220EEE3
:101870000EF00F51D9261051DA22DFA242EF8CF080
:1018800044EF8CF070EF8CF00FC6E6F510C6E7F56C
:1018900034C6E8F535C6E9F536C6EAF537C6EBF5E0
:1018A000F6EC95F0E6C534F6E7C535F6E8C536F64C
:1018B000E9C537F606013451351136113711D8A470
:1018C00064EF8CF066EF8CF086EF8CF0000E116FF9
:1018D000000E126F000E136F000E146FE8EF8CF005
:1018E0000FC6C5F510C6C6F534C6C7F535C6C8F56A
:1018F00036C6C9F537C6CAF5F6ECA6F0C5C534F646
:10190000C6C535F6C7C536F6C8C537F6060134294B
:101910000AE1352908E1362906E13729D8A493EFF1
:101920008CF095EF8CF09FEF8CF020EE0FF00F51C4
:10193000D9261051DA22010EDF6EF5EF8BF0375108
:101940003611351109E1020E345DD8A0AAEF8CF0F2
:10195000ACEF8CF0C1EF8CF020EE14F03251D926B0
:101960003351DA22DE50345DDE503559DE503659BF
:10197000DE503759D8A0BFEF8CF0C1EF8CF0CBEF21
:101980008CF020EE0FF00F51D9261051DA22020E02
:10199000DF6EDCEF8BF020EE14F00F51D9261051E2
:1019A000DA2234C6DEF435C6DEF436C6DEF437C6D7
:1019B000DEF411512E5D12512F591351305914512B
:1019C0003159D8A0E6EF8CF0E8EF8CF021EF8CF0E5
:1019D00020EE10F00F51D9261051DA221151DE26D7
:1019E0001251DE221351DE221451DE22FF0E111598
:1019F000156F010E1215166F000E1315176F000EDE
:101A00001415186F1551161117111811D8B40BEFC2
:101A10008DF00DEF8DF054EF8DF032C61DF533C60D
:101A20001EF534C61FF535C620F536C621F537C676
:101A300022F502ECE4F01DC529F61EC52AF61FC5E5
:101A40002BF620C52CF6060129512A112B112C1139
:101A5000D8A42DEF8DF02FEF8DF039EF8DF020EE23
:101A60000FF00F51D9261051DA22020EDF6EDCEF93
:101A70008BF011C615F612C616F613C617F614C665
:101A800018F60A0E49EF8DF0D89018331733163335
:101A90001533E82E44EF8DF01551292716512A23CE
:101AA00017512B2318512C2320EE10F00F51D9265B
:101AB0001051DA2210EE0AF00F51E1261051E22205
:101AC000DE50E65CDE50E658DE50E658DE50E65862
:101AD000D8B06DEF8DF06FEF8DF08BEF8DF020EEC5
:101AE00010F00F51D9261051DA2210EE0AF00F51E2
:101AF000E1261051E222DEC4E6F4DEC4E6F4DEC4E0
:101B0000E6F4DEC4E6F420EE0EF00F51D9261051B3
:101B1000DA22000EDB8C20EE10F00F51D926105186
:101B2000DA22FF0EDE14156F010EDE14166F000EA2
:101B3000DE14176F000EDE14186F155116111711F1
:101B40001811D8B4A6EF8DF0A8EF8DF06DEF8AF0E4
:101B500020EE18F00F51D9261051DA222951DE1843
:101B60000FE12A51DE180CE12B51DE1809E12C514E
:101B7000DE18D8B4BEEF8DF0C0EF8DF06DEF8AF0B7
:101B800020EE0EF00F51D9261051DA22DFAECBEF46
:101B90008DF0CDEF8DF010EF8EF0220E0F250501A8
:101BA0009C6F000E0601102105019D6F060120EEBD
:101BB00018F00F51D9261051DA22DEC49EF5DEC48A
:101BC0009FF5DEC4A0F5DEC4A1F5000E0501A36FEC
:101BD000010EA26F060120EE01F03251D9263351D9
:101BE000DA22DF5041ECECF00009D8B4FAEF8DF0C6
:101BF000FCEF8DF007EF8EF0060120EE0FF00F5195
:101C0000D9261051DA22010EDF6EF5EF8BF00601B6
:101C100020EE0EF00F51D9261051DA227F0EDF167A
:101C2000220E0F2505019E6F000E060110210501F1
:101C30009F6F29C6A0F52AC6A1F52BC6A2F52CC612
:101C4000A3F5000EA56F010EA46F060120EE01F0B2
:101C50003251D9263351DA22DF508EECECF00009F4
:101C6000D8B435EF8EF037EF8EF042EF8EF00601EC
:101C700020EE0FF00F51D9261051DA22010EDF6E3F
:101C8000F5EF8BF0060120EE18F00F51D926105118
:101C9000DA2229C6DEF42AC6DEF42BC6DEF42CC610
:101CA000DEF46DEF8AF01200E1C509F6E2C50AF62E
:101CB000E5C5D9F4E6C5DAF4DE6ADD6ADFC561F5AB
:101CC000E0C562F5150E0501636F060E646FFDEC4D
:101CD000DBF00601046F0451D8A471EF8EF073EFAE
:101CE0008EF085EF8EF0050120EE0FF0DF51D92642
:101CF000E051DA22DF500601046F0451D8B483EFBB
:101D00008EF085EF8EF088EF8EF004512DEF92F07B
:101D1000050120EE0EF0DF51D926E051DA22DFB0C6
:101D200094EF8EF096EF8EF099EF8EF0070E2DEF78
:101D300092F020EE10F0DF51D926E051DA22DEC415
:101D4000E7F5DEC4E8F5DEC4E9F5DEC4EAF520EE29
:101D50000AF0DF51D926E051DA22DEC4EBF5DEC409
:101D6000ECF5DEC4EDF5DEC4EEF5E751EB5D060102
:101D7000006F0501E851EC590601016F0501E951B9
:101D8000ED590601026F0501EA51EE590601036F94
:101D90000501E351E76FE451E86FE96BEA6BE75146
:101DA0000601005D0501E851060101590501E951EF
:101DB000060102590501EA5106010359D8B0E3EFC3
:101DC0008EF0E5EF8EF0E9EF8EF000C6E3F501C688
:101DD000E4F50501E351E411D8A4F1EF8EF0F3EF3F
:101DE0008EF0F5EF8EF02CEF92F020EE10F0DF5138
:101DF000D926E051DA22FF0EDE14E76F010EDE1461
:101E0000E86F000EDE14E96F000EDE14EA6FE75192
:101E1000E811E911EA11D8A410EF8FF012EF8FF05A
:101E2000B3EF91F020EE10F0DF51D926E051DA2225
:101E3000DEC4E7F5DEC4E8F5DEC4E9F5DEC4EAF5A4
:101E40000A0E28EF8FF0D890EA33E933E833E7330E
:101E5000E82E23EF8FF0060120EE0AF01551D92667
:101E60001651DA22DEC4EBF5DDC4ECF5FF0E0501F8
:101E7000EB25ED6FFF0EEC21EE6FE751ED1506013E
:101E80000B6F0501E851EE1506010C6F0B510C119B
:101E9000D8A44DEF8FF04FEF8FF0D0EF8FF005010A
:101EA00020EE10F0DF51D926E051DA22DE50DE10AC
:101EB000DE10DE10D8A45FEF8FF061EF8FF071EFCE
:101EC0008FF020EE06F0DF51D926E051DA22DEC491
:101ED00005F6DEC406F6DEC407F6DEC408F68DEFAE
:101EE0008FF0DFC5C5F5E0C5C6F520EE14F0DF5173
:101EF000D926E051DA22DEC4C7F5DEC4C8F5DEC457
:101F0000C9F5DEC4CAF5F6ECA6F0C5C505F6C6C52A
:101F100006F6C7C507F6C8C508F606010851071139
:101F2000061107E1020E055DD8B099EF8FF09BEF27
:101F30008FF0A7EF8FF0050120EE0FF0DF51D926CB
:101F4000E051DA22020EDF6E020E2DEF92F005292B
:101F50000AE1062908E1072906E10829D8A4B3EF18
:101F60008FF0B5EF8FF0C1EF8FF0050120EE0FF08D
:101F7000DF51D926E051DA22010EDF6E010E2DEF7E
:101F800092F0050120EE14F0DF51D926E051DA225B
:101F900005C6DEF406C6DEF407C6DEF408C6DEF4C7
:101FA00015C61DF516C61EF5050120EE14F0DF510D
:101FB000D926E051DA22DEC41FF5DEC420F5DEC4E6
:101FC00021F5DEC422F502ECE4F01DC511F61EC5B4
:101FD00012F61FC513F620C514F606011151121191
:101FE00013111411D8A4F7EF8FF0F9EF8FF004EF6D
:101FF00090F0050120EE0FF0DF51D926E051DA22F2
:10200000020EDF6EA4EF8FF00B5111270C5112233B
:10201000000E1323000E1423E3C5E7F5E4C5E8F52D
:10202000090E0501E96FD890E833E733E92F13EF84
:1020300090F0E7C50DF6E8C50EF606010D510E113C
:10204000D8B425EF90F027EF90F00FEF91F00D51FD
:102050000B250501E76F06010E510C210501E86F04
:10206000060120EE0AF01551D9261651DA22050193
:10207000E751DE5CE851DE58D8B041EF90F043EF15
:1020800090F058EF90F0060120EE0AF01551D92695
:102090001651DA22DEC4E7F5DDC4E8F50B5105017F
:1020A000E75D06010D6F0C510501E85906010E6F41
:1020B00009C69EF50AC69FF511C6A0F512C6A1F580
:1020C00013C6A2F514C6A3F50DC6A4F50EC6A5F554
:1020D000060120EE01F01551D9261651DA22DF5003
:1020E0008EECECF00009D8B478EF90F07AEF90F035
:1020F00085EF90F0050120EE0FF0DF51D926E05179
:10210000DA22010EDF6EBEEF8FF0050120EE0EF039
:10211000DF51D926E051DA22DFAE91EF90F093EF54
:1021200090F0FDEF90F006010D510501E76F0601FB
:102130000E510501E86FE96BEA6B20EE18F0DF51F4
:10214000D926E051DA22DEC4EBF5DEC4ECF5DEC4BC
:10215000EDF5DEC4EEF5060111510501EB5DEF6F03
:10216000060112510501EC59F06F060113510501EA
:10217000ED59F16F060114510501EE59F26FE75167
:10218000EF5DE851F059E951F159EA51F259D8B0EF
:10219000CCEF90F0CEEF90F0FDEF90F020EE18F045
:1021A000DF51D926E051DA22DEC4E7F5DDC4E8F5D7
:1021B000060111510501E75F060112510501E85BB7
:1021C000090ED890E737E837E82EE1EF90F0E751B5
:1021D00006010925046E0501E85106010A21056E74
:1021E000220E0501DF25066E000EE021076E020EAD
:1021F000096E000E086E89ECF4F00DC6E7F50EC608
:10220000E8F5090ED8900501E737E837E82E02EF28
:1022100091F0E7C50FF6E8C510F606EF92F005015C
:1022200020EE18F0DF51D926E051DA2206011151D3
:10223000DE180FE11251DE180CE11351DE1809E12E
:102240001451DE18D8B427EF91F029EF91F0A4EFE4
:1022500091F0050120EE0EF0DF51D926E051DA228F
:10226000DFAE35EF91F037EF91F075EF91F0220E80
:10227000DF259C6F000EE0219D6F20EE18F0DF51EE
:10228000D926E051DA22DEC49EF5DEC49FF5DEC415
:10229000A0F5DEC4A1F5000EA36F010EA26F06012A
:1022A00020EE01F01551D9261651DA22DF5041EC0B
:1022B000ECF00009D8B45FEF91F061EF91F06CEFB2
:1022C00091F0050120EE0FF0DF51D926E051DA221E
:1022D000010EDF6EBEEF8FF0050120EE0EF0DF5134
:1022E000D926E051DA227F0EDF16220EDF259E6FFF
:1022F000000EE0219F6F11C6A0F512C6A1F513C60E
:10230000A2F514C6A3F5000EA56F010EA46F060179
:1023100020EE01F01551D9261651DA22DF508EEC4D
:10232000ECF00009D8B497EF91F099EF91F0A4EF99
:1023300091F0050120EE0FF0DF51D926E051DA22AD
:10234000010EDF6EBEEF8FF0050120EE18F0DF51B9
:10235000D926E051DA2211C6DEF412C6DEF413C625
:10236000DEF414C6DEF420EE10F0DF51D926E05181
:10237000DA22DEC4E7F5DDC4E8F5FF0EE715E96F04
:10238000010EE815EA6FE951000806010F6F05011B
:10239000EA51D8A0E82A02080601106F0F51050182
:1023A000E35D060110510501E459D8B0DAEF91F070
:1023B000DCEF91F0E0EF91F0E3C50FF6E4C510F625
:1023C00009C604F50AC605F520EE10F0DF51D9263E
:1023D000E051DA22DEC4E7F5DDC4E8F5FF0EE715CB
:1023E000E96F010EE815EA6FE951DF25EB6FEA515D
:1023F000E021EC6F220EEB25066E000EEC21076E3D
:102400000FC608F510C609F589ECF4F006010F5166
:102410000501E35F060110510501E45BE5C5D9F450
:10242000E6C5DAF406010F51DE261051DD220F5108
:10243000092710510A23050120EE10F0DF51D9269B
:10244000E051DA2206010F51DE261051DE22000E85
:10245000DE22DE22E9EF8EF0000E12000601A2510C
:10246000A311D8A436EF92F038EF92F03BEF92F040
:10247000090EF5EF95F03F0EA617A40E0501F16FBA
:10248000060EF26FC70EF36F060EF46FA6C6F5F5D3
:1024900000EC80F00601C96FC951D8A452EF92F048
:1024A00054EF92F0E5EF95F0C7C6CAF6C8C6CBF672
:1024B000CA0E256F060E266FA4C627F6A5C628F6F7
:1024C00040ECBCF00601C96FC951D8A46AEF92F084
:1024D0006CEF92F075EF92F0F1AF71EF92F073EF55
:1024E00092F075EF92F0060EC96FA6C6A7F61C0E05
:1024F000A717D8B47EEF92F080EF92F09CEF93F0A4
:10250000C951D8B486EF92F088EF92F09CEF92F028
:10251000040EC919D8A48FEF92F091EF92F099EFC1
:1025200092F0CA0E296F060E2A6F40ECE0F0060109
:10253000C96FA687B4EF92F0CEC6A7F6110EA71703
:10254000D8B4A5EF92F0A7EF92F0ABEF92F0070EA0
:10255000C96FB4EF92F0A6A5B0EF92F0B2EF92F08F
:10256000B4EF92F0080EC96FC951D8A4BAEF92F037
:10257000BCEF92F0BFEF93F0A6A7C1EF92F0C3EFCC
:1025800092F0BFEF93F076ECF8F004C5B3F605C512
:10259000B4F606C5B5F607C5B6F60E0E0601E42577
:1025A000046E000EE521056EB3C606F5B4C607F548
:1025B000B5C608F5B6C609F573ECF1F0160E0601BE
:1025C000E425046E000EE521056EB3C606F5B4C61B
:1025D00007F5B5C608F5B6C609F573ECF1F0C7C640
:1025E0000BF5C8C60CF5E4C60DF5E5C60EF58FEC87
:1025F000EFF00BC5B7F60CC5B8F60DC5B9F60EC5AC
:10260000BAF6060120EE0BF0E451D926E551DA22A4
:10261000200EDF6EC7C608F5C8C609F5E4C60AF580
:10262000E5C60BF5000E0C6E000E0D6E000E0E6E64
:10263000000E0F6EB1ECF4F01C0E0601E425046EE2
:10264000000EE521056E000E066E000E076E000EF0
:10265000086E000E096E73ECF1F0060120EE04F036
:10266000C751D926C851DA22010EDF6EB751B81111
:10267000B911BA11D8B43FEF93F041EF93F0BFEF27
:1026800093F020EE2CF0C751D926C851DA22DEC4CF
:10269000BBF6DEC4BCF6DEC4BDF6DEC4BEF6CA0EB2
:1026A0000501E66F060EE76FB7C6E8F5B8C6E9F5AF
:1026B000B9C6EAF5BAC6EBF5000EEC6F000EED6F89
:1026C000000EEE6F000EEF6F12ECBAF00601C96F4C
:1026D000C951D8A46EEF93F070EF93F0BFEF93F071
:1026E000C7C6BAF5C8C6BBF5BBC6BCF5BCC6BDF50A
:1026F000BDC6BEF5BEC6BFF5CDECE4F00601C96FA0
:10270000FF0EB725A76FFF0EB821A86FFF0EB921E6
:10271000A96FFF0EBA21AA6F20EE0CF0C751D9267F
:10272000C851DA22A7C6DEF4A8C6DEF4A9C6DEF4D4
:10273000AAC6DEF4BFEF93F0C951D8A4A2EF93F07C
:10274000A4EF93F0BFEF93F0CEA9A9EF93F0ABEF16
:1027500093F0AFEF93F0040EC96FBFEF93F0A6A311
:10276000B4EF93F0B6EF93F0BFEF93F0CEA1BBEFD1
:1027700093F0BDEF93F0BFEF93F0070EC96FC9510F
:10278000D8A4C5EF93F0C7EF93F0EDEF93F0A6A7B1
:10279000CCEF93F0CEEF93F0CFEF93F0A68D20EE39
:1027A0002CF0C751D926C851DA2210EE1CF0A251E4
:1027B000E126A351E222DEC4E6F4DEC4E6F4DEC480
:1027C000E6F4DEC4E6F420EE20F0A251D926A351AF
:1027D000DA22E4C6DEF4E5C6DDF4C951D8A4F3EF8D
:1027E00093F0F5EF93F0E5EF95F0C7C60BF5C8C68B
:1027F0000CF5E4C60DF5E5C60EF58FECEFF006011D
:1028000020EE06F0A251D926A351DA220BC5DEF440
:102810000CC5DEF40DC5DEF40EC5DEF41C0EE42599
:10282000046E000EE521056E18ECE7F0060120EEBF
:102830000AF0A251D926A351DA2204C5DEF405C557
:10284000DEF406C5DEF407C5DEF4A2C6D9F4A3C6DD
:10285000DAF4C7C6DEF4C8C6DDF420EE06F0C751D0
:10286000D926C851DA2210EE02F0A251E126A35176
:10287000E222DEC4E6F4DDC4E5F420EE0EF0A2515F
:10288000D926A351DA22A6C6DFF420EE0FF0A2511A
:10289000D926A351DA22DF6A20EE18F0A251D926F8
:1028A000A351DA22DE6ADE6ADE6ADD6A20EE10F00B
:1028B000A251D926A351DA22DE6ADE6ADE6ADD6A17
:1028C000220EA225046E000EA321056E000E076ED7
:1028D000000E066E020E096E000E086E23ECF6F076
:1028E0000601A6AB76EF94F078EF94F0E5EF95F063
:1028F00020EE0AF0A251D926A351DA22DE50DE10D2
:10290000DE10DE10D8B487EF94F089EF94F0E5EF95
:1029100095F020EE0AF0A251D926A351DA2210EE4A
:1029200010F0A251E126A351E222DEC4E6F4DEC497
:10293000E6F4DEC4E6F4DEC4E6F420EE0AF0C751A5
:10294000D926C851DA22DEC4A7F6DDC4A8F6A751FD
:10295000A96FA851AA6FAB6BAC6B090ED890A937C1
:10296000AA37AB37AC37E82EAEEF94F0A9C6AFF676
:10297000AAC6B0F6ABC6B1F6ACC6B2F620EE06F00B
:10298000A251D926A351DA22DEC4C3F6DEC4C4F6AE
:10299000DEC4C5F6DEC4C6F620EE0AF0A251D92682
:1029A000A351DA22DEC4BFF6DEC4C0F6DEC4C1F62F
:1029B000DEC4C2F61AEF95F0A2C6C5F5A3C6C6F5E9
:1029C000C3C6C7F5C4C6C8F5C5C6C9F5C6C6CAF5E7
:1029D000F6ECA6F0C5C5C3F6C6C5C4F6C7C5C5F6B0
:1029E000C8C5C6F60601C651C511C41107E1020EDD
:1029F000C35DD8B0FEEF94F000EF95F002EF95F0D4
:102A0000020EC96FC3290AE1C42908E1C52906E1FC
:102A1000C629D8A40EEF95F010EF95F012EF95F0BF
:102A2000010EC96FAF51BF5FB051C05BB151C15B07
:102A3000B251C25BC951D8A420EF95F022EF95F0B6
:102A400031EF95F0BF51AF5DC051B059C151B1598F
:102A5000C251B259D8A02FEF95F031EF95F0DCEFCD
:102A600094F020EE14F0A251D926A351DA22C3C665
:102A7000DEF4C4C6DEF4C5C6DEF4C6C6DEF4C95153
:102A8000D8A445EF95F047EF95F0E5EF95F0FF0EF0
:102A9000BF15A76F010EC015A86F000EC115A96F55
:102AA000000EC215AA6FA751A811A911AA11D8B476
:102AB0005CEF95F05EEF95F0E5EF95F0C7C61DF57C
:102AC000C8C61EF5C3C61FF5C4C620F5C5C621F588
:102AD000C6C622F502ECE4F01DC5BBF61EC5BCF669
:102AE0001FC5BDF620C5BEF60601BB51BC11BD1108
:102AF000BE11D8A47EEF95F080EF95F084EF95F0AD
:102B0000020EC96FE5EF95F0BFC6A7F6C0C6A8F6DE
:102B1000C1C6A9F6C2C6AAF60A0E94EF95F0D890DF
:102B2000AA33A933A833A733E82E8FEF95F0BB5112
:102B3000A725AB6FBC51A821AC6FBD51A921AD6FCA
:102B4000BE51AA21AE6F20EE18F0A251D926A35192
:102B5000DA22ABC6DEF4ACC6DEF4ADC6DEF4AEC639
:102B6000DEF4220EA22505019E6F000E0601A321B0
:102B700005019F6F060120EE18F0A251D926A3513E
:102B8000DA22DEC4A0F5DEC4A1F5DEC4A2F5DEC4FF
:102B9000A3F5000E0501A56F010EA46F060120EE3E
:102BA00001F0C751D926C851DA22DF508EECECF083
:102BB0000009D8B4DEEF95F0E0EF95F0E5EF95F081
:102BC000010E0601C96FE5EF95F00601C951D8B4B1
:102BD000ECEF95F0EEEF95F0F4EF95F0A2C6D9F496
:102BE000A3C6DAF4DE6ADD6AC9511200E6C5D9F47B
:102BF000E7C5DAF4DEC409F6DDC40AF60501E851DA
:102C0000E911EA11EB11D8A408EF96F00AEF96F05B
:102C100043EF96F0060120EE0CF00951D9260A5137
:102C2000DA22DEC401F6DEC402F6DEC403F6DEC438
:102C300004F60151021103110411D8B422EF96F0E9
:102C400024EF96F039EF96F020EE14F00951D926D2
:102C50000A51DA22DE50015DDE500259DE5003597E
:102C6000DE500459D8A037EF96F039EF96F0A9EF6F
:102C700096F0010E016F000E026F000E036F000E42
:102C8000046FA9EF96F0E6C5C5F5E7C5C6F5E8C53A
:102C9000C7F5E9C5C8F5EAC5C9F5EBC5CAF5F6EC4F
:102CA000A6F0C5C50BF6C6C50CF6C7C50DF6C8C55A
:102CB0000EF606010E510D110C1107E1020E0B5D0F
:102CC000D8B065EF96F067EF96F072EF96F0010ED0
:102CD0000501E66F000EE76F000EE86F000EE96F6A
:102CE000DEEF98F00B290AE10C2908E10D2906E135
:102CF0000E29D8A47EEF96F080EF96F08AEF96F03A
:102D00000BC6E6F50CC6E7F50DC6E8F50EC6E9F507
:102D1000DEEF98F020EE14F00951D9260A51DA229C
:102D2000DE500B5DDE500C59DE500D59DE500E5951
:102D3000D8B09DEF96F09FEF96F0A1EF96F080EF60
:102D400096F0E8C501F6E9C502F6EAC503F6EBC55B
:102D500004F620EE10F00951D9260A51DA22DE508D
:102D6000DE10DE10DE10D8A4B8EF96F0BAEF96F0C1
:102D7000C5EF96F0000E0501E66F000EE76F000E3E
:102D8000E86F000EE96FDEEF98F0000E056F000EA1
:102D9000066F000E076F000E086F0501E85106016F
:102DA000011913E10501E951060102190EE10501BE
:102DB000EA510601031909E10501EB510601041965
:102DC000D8A4E5EF96F0E7EF96F08DEF97F0010EBF
:102DD0000125056F000E0221066F000E0321076F0B
:102DE000000E0421086F20EE14F00951D9260A5173
:102DF000DA22DE50055DDE500659DE500759DE50FE
:102E00000859D8A006EF97F008EF97F010EF97F069
:102E1000020E056F000E066F000E076F000E086FA2
:102E2000E6C5C5F5E7C5C6F505C6C7F506C6C8F5C6
:102E300007C6C9F508C6CAF5F6ECA6F0C5C50BF677
:102E4000C6C50CF6C7C50DF6C8C50EF606010B05BE
:102E50000C110D110E11D8B430EF97F032EF97F03E
:102E600080EF96F00B290AE10C2908E10D2906E113
:102E70000E29D8A43EEF97F040EF97F042EF97F07D
:102E800080EF96F00B510C110D110E11D8B44BEFD1
:102E900097F04DEF97F08DEF97F020EE0CF0095181
:102EA000D9260A51DA22DEC40BF6DEC40CF6DEC4E3
:102EB0000DF6DEC40EF60E510D110C1109E1020ED5
:102EC0000B5DD8A066EF97F068EF97F085EF97F06D
:102ED00020EE14F00951D9260A51DA22DE500B5D9A
:102EE000DE500C59DE500D59DE500E59D8B07BEF34
:102EF00097F07DEF97F085EF97F00BC601F60CC6C3
:102F000002F60DC603F60EC604F6000E056F000E9F
:102F1000066F000E076F000E086F055106110711AE
:102F20000811D8A496EF97F098EF97F025EF98F056
:102F300001C605F602C606F603C607F604C608F67D
:102F4000010E0527000E06230723082320EE14F0A8
:102F50000951D9260A51DA22DE50055DDE500659A4
:102F6000DE500759DE500859D8A0B9EF97F0BBEFF3
:102F700097F0D2EF97F0020E056F000E066F000E6D
:102F8000076F000E086F04510311021107E1020ED2
:102F9000015DD8B0CEEF97F0D0EF97F0D2EF97F079
:102FA000BAEF96F0E6C5C5F5E7C5C6F505C6C7F59F
:102FB00006C6C8F507C6C9F508C6CAF5F6ECA6F0F8
:102FC000C5C50BF6C6C50CF6C7C50DF6C8C50EF6C9
:102FD00006010B510C110D110E11D8A4F2EF97F050
:102FE000F4EF97F0F6EF97F025EF98F00B050C1142
:102FF0000D110E11D8B4FFEF97F001EF98F080EFAC
:1030000096F00B290AE10C2908E10D2906E10E29A9
:10301000D8A40DEF98F00FEF98F011EF98F080EF33
:1030200096F0015105190DE1025106190AE103510B
:10303000071907E104510819D8A421EF98F023EFEC
:1030400098F0A0EF97F0BAEF96F009C6C5F50AC65A
:10305000C6F505C6C7F506C6C8F507C6C9F508C64C
:10306000CAF5FF0E0501CB6FFF0ECC6FFF0ECD6FC3
:10307000FF0ECE6F8DEC9BF00601006F0051D8A4BF
:1030800044EF98F046EF98F06AEF98F00501E851A8
:10309000E911EA11EB11D8B450EF98F052EF98F023
:1030A0006AEF98F009C6C5F50AC6C6F5E8C5C7F5C2
:1030B000E9C5C8F5EAC5C9F5EBC5CAF505C6CBF53E
:1030C00006C6CCF507C6CDF508C6CEF58DEC9BF04F
:1030D0000601006F06010051D8A471EF98F073EF5C
:1030E00098F0C0EF98F020EE0CF00951D9260A5163
:1030F000DA2205C6DEF406C6DEF407C6DEF408C62C
:10310000DEF420EE10F00951D9260A51DA2210EE31
:1031100014F00951E1260A51E222FE0EE6240501CF
:10312000F06FFF0EE620F16FFF0EE620F26FFF0E4C
:10313000E620F36FDE50F05DDE50F159DE50F259BB
:10314000DE50F359D8A0A7EF98F0A9EF98F0B5EFAB
:1031500098F0060120EE10F00951D9260A51DA2222
:10316000DE06000EDE5ADE5ADE5A060120EE05F0BB
:103170000951D9260A51DA22000EDB80D6EF98F0E9
:103180000005D8B4C6EF98F0C8EF98F0D2EF98F0E9
:10319000010E056F000E066F000E076F000E086F20
:1031A000D6EF98F0056906690769086905C6E6F56E
:1031B00006C6E7F507C6E8F508C6E9F5120034C506
:1031C000D9F435C5DAF4DEC4F6F4DDC4F7F4000E44
:1031D000F86E0800F550250AD8A4F1EF98F0F3EF47
:1031E00098F076EF9BF034C5D9F435C5DAF4DE2AD1
:1031F000000EDD22000E07011D6F000E1C6F1CC7A4
:103200005CF51E691F69406A26EF99F05C8234C53F
:10321000D9F435C5DAF4DE2A000EDD2226EF99F066
:10322000010E406E26EF99F034C5D9F435C5DAF4B5
:10323000DEC4F6F4DDC4F7F4000EF86E0800F550B5
:10324000300AD8B406EF99F010EF99F04050D8B496
:103250002CEF99F02EEF99F014EF99F034C504F5A6
:1032600035C505F536C506F537C507F59CECE3F021
:1032700004C51CF705C51DF707011DBF44EF99F0F4
:1032800042EF99F049EF99F05C801C6D1D1FD8B09A
:103290001D2B34C5D9F435C5DAF4DEC4F6F4DDC42B
:1032A000F7F4000EF86E0800F550630AD8A45BEF3F
:1032B00099F05DEF99F080EF99F034C5D9F435C5F8
:1032C000DAF4DE2A000EDD2236C5D9F437C5DAF489
:1032D000DFC438F5020EDE26DFC439F5000EDD222C
:1032E00038C5D9F439C5DAF4DF50416E32C50EF570
:1032F00033C50FF541C510F532ECE5F08CEF9BF0CE
:1033000034C5D9F435C5DAF4DEC442F5DDC443F57D
:1033100042C5F6F443C5F7F4000EF86E0800F5C494
:1033200041F59EEF99F0424A432AB5EF99F0690EB4
:10333000416EB5EF99F0416AB5EF99F04150580AE6
:10334000D8B497EF99F03C0AD8B497EF99F00D0AEA
:10335000D8B497EF99F0050AD8B493EF99F0140A0E
:10336000D8B497EF99F09BEF99F042C5F6F443C5B6
:10337000F7F4000EF86E0800F550640AD8B4C3EFF5
:1033800099F0C5EF99F00CEF9AF042C5F6F443C5F9
:10339000F7F4000EF86E0800F550690AD8A4D3EFD0
:1033A00099F0D5EF99F035EF9AF00CEF9AF036C519
:1033B000D9F437C5DAF4DFC438F5020EDE26DFC4EF
:1033C00039F5000EDD2238C5D9F439C5DAF4DEC48A
:1033D0003CF5DDC43DF5000E3DBEFF0E3E6E3F6E7A
:1033E00017EF9AF036C5D9F437C5DAF4DFC438F5EB
:1033F000040EDE26DFC439F5000EDD2238C5D9F40F
:1034000039C5DAF4DEC43CF5DEC43DF5DEC43EF574
:10341000DEC43FF517EF9AF04150690AD8B4D7EFF0
:1034200099F0050AD8B4F2EF99F017EF9AF0010E6F
:103430004224386E000E4320396E34C5D9F435C5A8
:10344000DAF438C5DEF439C5DDF432C51EF533C50E
:103450001FF53CC520F53DC521F53EC522F53FC50C
:1034600023F546ECC8F08CEF9BF042C5F6F443C55B
:10347000F7F4000EF86E0800F550780AD8B443EF60
:103480009AF045EF9AF08DEF9AF042C5F6F443C5F5
:10349000F7F4000EF86E0800F550580AD8A453EF60
:1034A0009AF055EF9AF0D3EF9AF08DEF9AF036C577
:1034B000D9F437C5DAF4DFC438F5020EDE26DFC4EE
:1034C00039F5000EDD2238C5D9F439C5DAF4DEC489
:1034D0003AF5DDC43BF53AC53CF53BC53DF53E6AE2
:1034E0003F6A98EF9AF036C5D9F437C5DAF4DFC4ED
:1034F00038F5040EDE26DFC439F5000EDD2238C5AE
:10350000D9F439C5DAF4DEC43CF5DEC43DF5DEC4D9
:103510003EF5DEC43FF598EF9AF04150690AD8B401
:1035200057EF9AF0050AD8B473EF9AF098EF9AF033
:10353000010E4224386E000E4320396E34C5D9F492
:1035400035C5DAF438C5DEF439C5DDF4C1EF9AF0DB
:1035500032C51EF533C51FF53CC520F53DC521F527
:103560003EC522F53FC523F542C5F6F443C5F7F441
:10357000000EF86E0800F5C424F50BECD4F08CEFC7
:103580009BF042C5F6F443C5F7F4000EF86E080050
:10359000F550580AD8B4A8EF9AF0200AD8B4A8EF8A
:1035A0009AF0D3EF9AF0406A34C5D9F435C5DAF40D
:1035B000DEC4F6F4DDC4F7F4000EF86E0800F55032
:1035C000730AD8A4E6EF9AF0E8EF9AF0F3EF9AF0D6
:1035D00034C5D9F435C5DAF4DE2A000EDD22010E39
:1035E000406E49EF9BF034C5D9F435C5DAF4DEC43A
:1035F000F6F4DDC4F7F4000EF86E0800F5506C0A1E
:10360000D8A405EF9BF007EF9BF049EF9BF034C582
:10361000D9F435C5DAF4DEC438F5DDC439F5010E68
:103620003826000E392238C5F6F439C5F7F4000EF5
:10363000F86E0800F5506C0AD8A421EF9BF023EF38
:103640009BF049EF9BF034C5D9F435C5DAF4DEC4FC
:1036500038F5DDC439F5020E3826000E392238C59A
:10366000F6F439C5F7F4000EF86E0800F550730A49
:10367000D8A43DEF9BF03FEF9BF049EF9BF0030E8A
:1036800034C5D9F435C5DAF4DE26000EDD22EFEFBD
:103690009AF04050D8B44FEF9BF051EF9BF06DEF94
:1036A0009BF032C50EF533C50FF536C5D9F437C5D5
:1036B000DAF4DFC438F5020EDE26DFC439F5000E79
:1036C000DD2238C5D9F439C5DAF4DEC410F5DDC41D
:1036D00011F500ECD0F08CEF9BF034C5D9F435C572
:1036E000DAF4DE2A000EDD228CEF9BF034C5D9F42B
:1036F00035C5DAF4DEC4F6F4DDC4F7F4000EF86E76
:103700000800F550056E066A32C507F533C508F5A1
:1037100097ECE5F06DEF9BF01200020E0501E56FEE
:10372000CA51C911C81109E1020EC75DD8A09BEFAB
:103730009BF09DEF9BF001EF9EF020EE14F0C55141
:10374000D926C651DA22DE50C75DDE50C859DE5098
:10375000C959DE50CA59D8B0B0EF9BF0B2EF9BF018
:1037600001EF9EF0EEEF9DF0C7C5E3F5C8C5E4F5A7
:10377000D890E431D06FE331CF6FCF51E327D051F0
:10378000E423C5C5BAF5C6C5BBF520EE20F0C5518A
:10379000D926C651DA22DEC4CFF5DEC4D0F5DEC4A8
:1037A000D1F5DEC4D2F5E3C5D3F5E4C5D4F5090EF1
:1037B000D56FD890D433D333D52FD9EF9BF0D351D5
:1037C000CF25BC6FD451D021BD6F000ED121BE6F6B
:1037D000000ED221BF6FCDECE4F00501E56FE5519D
:1037E000D8B4F5EF9BF0F7EF9BF0F9EF9BF001EF0A
:1037F0009EF0FF0EE315CF6F010EE415D06FCF5191
:10380000C525D16FD051C621D26F300ED125E16FC1
:10381000000ED221E26FE34BE42BC7B112EF9CF014
:1038200014EF9CF019EF9CF0CBC5DDF5DE6B33EFA8
:103830009CF0CB51CF6FD06BCF3BD03BF00ED0176D
:10384000CF510F0BD013F00ECF17E1C5D9F4E2C55D
:10385000DAF4DF500F0BD16FD26BCF51D111DD6F86
:10386000D051D211DE6FE1C5D9F4E2C5DAF4DDC57D
:10387000DFF420EE04F0C551D926C651DA22010E3C
:10388000DF6EC5C5BAF5C6C5BBF520EE20F0C55143
:10389000D926C651DA22DEC4CFF5DEC4D0F5DEC4A7
:1038A000D1F5DEC4D2F5E3C5D3F5E4C5D4F5090EF0
:1038B000D56FD890D433D333D52F59EF9CF0D35153
:1038C000CF25BC6FD451D021BD6F000ED121BE6F6A
:1038D000000ED221BF6FCDECE4F00501E56FE5519C
:1038E000D8B475EF9CF077EF9CF079EF9CF001EF86
:1038F0009EF0FF0EE315CF6F010EE415D06FCF5190
:10390000C525D16FD051C621D26F300ED125E16FC0
:10391000000ED221E26FC7B190EF9CF092EF9CF0C5
:10392000B0EF9CF0CBC5CFF5CCC5D0F5CDC5D1F56A
:10393000CEC5D2F5D0C5CFF5D1C5D0F5D2C5D1F51C
:10394000D26B0F0ECF17E1C5D9F4E2C5DAF4DF5020
:10395000F00BCF11D36FD351DF6FE06BC6EF9CF04C
:10396000CBC5CFF5CCC5D0F5CDC5D1F5CEC5D2F5FB
:10397000050EC0EF9CF0D890D233D133D033CF3383
:10398000E82EBBEF9CF0CF51DF6FE06BE1C5D9F4BF
:10399000E2C5DAF4DFC5DFF420EE04F0C551D92624
:1039A000C651DA22010EDF6E01EF9EF0C5C5BAF5F1
:1039B000C6C5BBF520EE20F0C551D926C651DA2286
:1039C000DEC4CFF5DEC4D0F5DEC4D1F5DEC4D2F559
:1039D000C7C5D3F5C8C5D4F5C9C5D5F5CAC5D6F58B
:1039E000D4C5D3F5D5C5D4F5D6C5D5F5D66BCF514D
:1039F000D325BC6FD051D421BD6FD151D521BE6F1D
:103A0000D251D621BF6FCDECE4F00501E56FE55151
:103A1000D8B40DEF9DF00FEF9DF011EF9DF001EF89
:103A20009EF0C7C5CFF5C8C5D0F5D890CF37D037F1
:103A3000FF0ECF15D16F010ED015D26FD151C52514
:103A4000D36FD251C621D46F300ED325046E000E31
:103A5000D421056ECBC506F5CCC507F521ECF7F0F2
:103A6000050120EE04F0C551D926C651DA22010E17
:103A7000DF6E01EF9EF0C5C5BAF5C6C5BBF520EEF9
:103A800020F0C551D926C651DA22DEC4CFF5DEC4F6
:103A9000D0F5DEC4D1F5DEC4D2F5C7C5D3F5C8C5AF
:103AA000D4F5C9C5D5F5CAC5D6F5080E5DEF9DF0AC
:103AB000D890D633D533D433D333E82E58EF9DF096
:103AC000CF51D325BC6FD051D421BD6FD151D52159
:103AD000BE6FD251D621BF6FCDECE4F00501E56F8A
:103AE000E551D8B476EF9DF078EF9DF07AEF9DF038
:103AF00001EF9EF0C7C5CFF5C8C5D0F5D890CF3738
:103B0000D037D890CF37D037FF0ECF15D16F010EF9
:103B1000D015D26FD151C525D36FD251C621D46FE4
:103B2000300ED325046E000ED421056E18ECE7F09C
:103B3000000E04140501D56F000E0514D66F000E9B
:103B40000614D76FF00E0714D86FFF0ECB15D96F80
:103B5000FF0ECC15DA6FFF0ECD15DB6F0F0ECE15F5
:103B6000DC6FD551D911CB6FD651DA11CC6FD7514B
:103B7000DB11CD6FD851DC11CE6FC7C5CFF5C8C5ED
:103B8000D0F5D890CF37D037D890CF37D037FF0E79
:103B9000CF15D16F010ED015D26FD151C525D36F7E
:103BA000D251C621D46F300ED325046E000ED4211D
:103BB000056ECBC506F5CCC507F5CDC508F5CEC558
:103BC00009F573ECF1F0050120EE04F0C551D9269A
:103BD000C651DA22010EDF6E01EF9EF0C5C5D9F4A1
:103BE000C6C5DAF4DF50010AD8B4B4EF9BF0030A7B
:103BF000D8B4D6EF9CF0010AD8B43BEF9DF001EFAA
:103C00009EF0E5511200000E0701696F000E686F0B
:103C1000000E2D6F000E2C6F416B426B3F6B58EC0A
:103C2000DFF0000E056E050E046E7AECDBF070EC32
:103C3000EDF0A90E4C6EFE0E4D6EA50E4E6EFA0EF8
:103C40004F6E35ECF7F09EECF7F04BECF0F0EAEC51
:103C5000F5F0D1ECE9F060C53CF761C53DF789ECC2
:103C6000B6F061ECF4F00601AFBF3BEF9EF039EF28
:103C70009EF03DEF9EF03BEF9EF010ECAEF00601A3
:103C8000F3BF47EF9EF045EF9EF069EF9EF047EFE0
:103C90009EF0F90E7E25D96FFF0E7F21DA6F7EC769
:103CA00004F57FC705F57AECDBF08CEF9EF0000E93
:103CB000DA6F040ED96F4FEF9EF0000EDA6F050E2B
:103CC000D96F4FEF9EF0000EDA6F000ED96F8CEFB8
:103CD0009EF07EC7D3F77FC7D4F70701D451000AFF
:103CE000D8B475EF9EF063EF9EF0D351080AD8B4B4
:103CF00049EF9EF0010AD8B449EF9EF0030AD8B408
:103D000049EF9EF0060AD8B457EF9EF01C0AD8B4CB
:103D10005DEF9EF063EF9EF0220E4C6EFE0E4D6E38
:103D2000D8900701D935D96EDA35DA6E5C0ED9260E
:103D3000080EDA22DEC44EF5DDC44FF535ECF7F09F
:103D4000A3ECF8F0000E0701656F000E646F000E23
:103D5000676F000E666F000ED86F010ED76F000EF2
:103D60003B6F000E3A6F9D0E4C6EFE0E4D6E35ECA5
:103D7000F7F0C80E4C6EFC0E4D6E35ECF7F0720E7F
:103D80004C6EFC0E4D6E35ECF7F05C0E4C6EFC0E7E
:103D90004D6E35ECF7F0880E4C6EFB0E4D6E35EC2B
:103DA000F7F0040E4C6EFF0E4D6E35ECF7F0000E82
:103DB0004C6EFC0E4D6E35ECF7F0910E4C6EFE0E17
:103DC0004D6E35ECF7F0D90E4C6EFE0E4D6E35ECA7
:103DD000F7F0FB0E4C6EFF0E4D6E35ECF7F0FCEC81
:103DE000F4F004C5D9F705C5DAF7D00E0701D925D7
:103DF000D56FFF0EDA21D66FD65107E1080ED55DDB
:103E0000D8B005EF9FF007EF9FF014EF9FF0D95166
:103E100050ECF8F0080E50ECF8F0D00E0701D92560
:103E2000D76FFF0EDA21D86F0D0ED919DA11D8B479
:103E30001CEF9FF01EEF9FF028EF9FF00A0ED9199C
:103E4000DA11D8A426EF9FF028EF9FF0EFEF9EF055
:103E50008C0E4C6EF40E4D6E35ECF7F00C0E070127
:103E6000136F650E146F010E156F000EDA6F000EE2
:103E7000D96F68C72CF769C72DF704EFA0F0D2EC13
:103E8000A4F0A2EF9EF06A0E0601F26FFE0EF36F31
:103E90007CC704F57DC705F57AC706F57BC707F52E
:103EA00077ECF6F004C5F4F605C5F5F606C5F6F6AA
:103EB00007C5F7F67CECCBF0F2C6D9F7F3C6DAF714
:103EC0002EEFA0F0770E0601F86FFE0EF96F7DEC75
:103ED000DCF0F8C6D9F7F9C6DAF72EEFA0F05D0EE0
:103EE0000601F86FFE0EF96F7DECDCF0F8C6D9F72D
:103EF000F9C6DAF72EEFA0F0CD0E0601F86FFE0E30
:103F0000F96F7DECDCF0F8C6D9F7F9C6DAF72EEFD9
:103F1000A0F0C10E0601F86FFE0EF96F7DECDCF02B
:103F2000F8C6D9F7F9C6DAF72EEFA0F0780E060139
:103F3000A96FFF0EAA6F1DECD7F00601A951AA11B7
:103F4000D8B4A5EF9FF0A7EF9FF0A9EF9FF0A2EFE5
:103F50009EF0000EF36F010EF26F2BECBBF006012A
:103F6000F3BFB7EF9FF0B5EF9FF0BFEF9FF0F20EFA
:103F70004C6EFC0E4D6E35ECF7F0A2EF9EF037EC78
:103F8000C3F00601F851F911D8B4C9EF9FF0CBEF97
:103F90009FF02EEFA0F0A2EF9EF0810E0601A96F18
:103FA000FF0EAA6F1DECD7F00601A951AA11D8B4D3
:103FB000DCEF9FF0DEEF9FF0E0EF9FF0A2EF9EF0CE
:103FC000000EF36F020EF26F2BECBBF00601F3BF95
:103FD000EEEF9FF0ECEF9FF0F6EF9FF0F20E4C6EDD
:103FE000FC0E4D6E35ECF7F0A2EF9EF0CBECB7F087
:103FF0000601F851F911D8B400EFA0F002EFA0F0DB
:104000002EEFA0F0A2EF9EF0D7C7D3F7D8C7D4F712
:10401000D451000AD8B40FEFA0F0CDEF9FF0D351E8
:10402000000AD8B43FEF9FF0010AD8B443EF9FF0E5
:10403000030AD8B462EF9FF0010AD8B46FEF9FF083
:10404000070AD8B47CEF9FF0010AD8B489EF9FF03B
:10405000030AD8B496EF9FF0CDEF9FF00701D95136
:10406000DA11D8B436EFA0F038EFA0F040EFA0F0AE
:10407000200E4C6EFA0E4D6E35ECF7F0A2EF9EF06E
:104080008C0E4C6EF40E4D6E35ECF7F0AFECF8F094
:1040900021ECF5F00BECEBF0B2ECF8F0A2EF9EF0B7
:1040A00081EF00F0336A000E346E000E356E000EA4
:1040B000366E000E376E1DC538F51EC539F522BEA9
:1040C0006DEFA0F0225007E1250E215CD8B06BEF18
:1040D000A0F06DEFA0F076EFA0F021042210D8A49C
:1040E00074EFA0F076EFA0F07DEFA0F0000E0701D6
:1040F000216F160E206F7BEFA2F038503910D8B424
:1041000084EFA0F086EFA0F07BEFA2F038C5D9F4E1
:1041100039C5DAF4DF50D8A490EFA0F092EFA0F008
:1041200094EFA0F07BEFA2F038C5D9F439C5DAF4EA
:10413000DF503A6EA4EFA0F0384A392A38C5D9F4D6
:1041400039C5DAF4DF503A6E200E3A18D8B4ABEF26
:10415000A0F0ADEFA0F09CEFA0F03AC524F5F70E6B
:104160002426040E2464B7EFA0F0B9EFA0F09CEF72
:10417000A0F02D0E3A18D8A4C0EFA0F0C2EFA0F026
:10418000CEEFA0F0010E336E384A392A38C5D9F483
:1041900039C5DAF4DF503A6ED9EFA0F02B0E3A1899
:1041A000D8A4D5EFA0F0D7EFA0F0D9EFA0F0C4EFDE
:1041B000A0F0300E3A18D8A4E0EFA0F0E2EFA0F0A3
:1041C0007BEFA1F0384A392A38C5D9F439C5DAF479
:1041D000DF503A6E21502210D8B4F1EFA0F0F3EF87
:1041E000A0F0FDEFA0F0100E21182210D8A4FBEFD4
:1041F000A0F0FDEFA0F06DEFA1F0780E3A18D8B462
:1042000004EFA1F006EFA1F00FEFA1F0580E3A185D
:10421000D8A40DEFA1F00FEFA1F06DEFA1F0000E0B
:10422000226E100E216E384A392A38C5D9F439C5A4
:10423000DAF4DF503A6E3AC524F5200E24129F0EB0
:1042400024261A0E246027EFA1F029EFA1F04DEFEC
:10425000A1F03AC524F59F0E2426190E246433EFED
:10426000A1F035EFA1F03AEFA1F03AC52BF52C6A99
:1042700041EFA1F03AC524F55F0E241624502B6EB1
:104280002C6A2BC524F5C90E2426100E24604BEF92
:10429000A1F04DEFA1F067EFA1F03AC524F5200E93
:1042A00024129F0E2426190E246459EFA1F05BEF0F
:1042B000A1F07BEFA1F03AC524F5D00E2426090E1B
:1042C000246465EFA1F067EFA1F07BEFA1F03384E8
:1042D0003806D8A039067BEFA2F033842150221093
:1042E000D8A475EFA1F077EFA1F07BEFA1F0000E5D
:1042F000226E080E216E21502210D8A482EFA1F068
:1043000084EFA1F088EFA1F0000E226E0A0E216E5C
:104310002350D8B48EEFA1F090EFA1F0ABEFA1F055
:1043200033B095EFA1F097EFA1F0A1EFA1F0FF0E50
:104330002F6EFF0E306EFF0E316E7F0E326EAFEFBE
:10434000A1F0000E2F6E000E306E000E316E800E4A
:10435000326EAFEFA1F02F6830683168326834C533
:1043600027F535C528F536C529F537C52AF53AC5E7
:1043700024F5200E24129F0E24261A0E2460C3EF6B
:10438000A1F0C5EFA1F0E2EFA1F03AC524F59F0E30
:104390002426190E2464CFEFA1F0D1EFA1F0D6EFBF
:1043A000A1F03AC52DF52E6ADDEFA1F03AC524F54E
:1043B0005F0E241624502D6E2E6A2D50C90F3A6EB2
:1043C000F0EFA1F03AC524F5D00E24260A0E2460A1
:1043D000ECEFA1F0EEEFA1F069EFA2F0300E3A5E43
:1043E0003A50246E256A2150245C2550800A266E9E
:1043F0002250800A2658D8A000EFA2F002EFA2F0C7
:1044000004EFA2F069EFA2F033B209EFA2F00BEFD4
:10441000A2F05EEFA2F021C511F522C512F5000E43
:1044200012BEFF0E136E146E34C515F535C516F5A4
:1044300036C517F537C518F5A9ECF1F03A50112437
:10444000346E000E1220356E000E1320366E000EF4
:104450001420376E2750345C285035582950365870
:104460002A503758D8A037EFA2F039EFA2F050EF1A
:10447000A2F02350D8B43FEFA2F041EFA2F05EEFDC
:10448000A2F034502F5C35503058365031583750E8
:104490003258D8B04EEFA2F050EFA2F05EEFA2F08B
:1044A0002FC534F530C535F531C536F532C537F58C
:1044B000000E0701216F220E206F3382384A392AFD
:1044C00038C5D9F439C5DAF4DF503A6E3384AFEF2A
:1044D000A1F03350030BE806D8A471EFA2F073EFFC
:1044E000A2F07BEFA2F0371E361E351E346C000E94
:1044F0003522362237221F502010D8B482EFA2F086
:1045000084EFA2F097EFA2F033B489EFA2F08BEF23
:10451000A2F08FEFA2F01DC538F51EC539F51FC5F5
:10452000D9F420C5DAF438C5DEF439C5DDF434C574
:104530001DF535C51EF536C51FF537C520F512002A
:104540000FC6D9F410C6DAF4DEC417F6DDC418F6C7
:10455000060120EE0EF00F51D9261051DA22DEC4EA
:10456000F4F5DEC4F5F5DEC4F6F5DEC4F7F5200E8D
:104570000501F4250601136F000E0501F521060162
:10458000146F000E0501F6210601156F000E0501DE
:10459000F7210601166F165109E1200E155DD8A00E
:1045A000D4EFA2F0D6EFA2F0E0EFA2F020EE16F0EA
:1045B0000F51D9261051DA22DE6ADE6ADE6ADD6A20
:1045C00020EE16F00F51D9261051DA22DE50DE10FF
:1045D000DE10DE10D8A4EFEFA2F0F1EFA2F0F4EFBE
:1045E000A2F0040ED1EFA4F0FF0E13150501F46F35
:1045F000010E060114150501F56F000E06011515D3
:104600000501F66F000E060116150501F76FF4514E
:10461000F511F611F711D8A410EFA3F012EFA3F0E3
:104620009FEFA4F0060120EE16F00F51D92610518D
:10463000DA22DE2A000EDE22DE22DE2220EE12F058
:104640000F51D9261051DA22DE50DE10DE10DE10B6
:10465000D8A42DEFA3F02FEFA3F06FEFA3F020EE7F
:1046600008F01751D9261851DA22DEC4F4F5DDC45A
:10467000F5F50501F451F66FF551F76FF86BF96B2D
:1046800013C6FAF514C6FBF515C6FCF516C6FDF5FE
:10469000060E50EFA3F0D890FD33FC33FB33FA3312
:1046A000E82E4BEFA3F0F651FA5DF751FB59F851A4
:1046B000FC59F951FD59D8A060EFA3F062EFA3F0C7
:1046C0009FEFA4F0060120EE16F00F51D9261051ED
:1046D000DA22DE6ADE6ADE6ADD6AF1EFA2F020EE3F
:1046E0000AF01751D9261851DA22DEC4F4F5DDC4D8
:1046F000F5F5FF0E0501F425F66FFF0EF521F76FB6
:1047000013C6F8F514C6F9F515C6FAF516C6FBF585
:104710000A0E90EFA3F0D890FB33FA33F933F83355
:10472000E82E8BEFA3F0F651F815FC6FF751F91551
:10473000FD6F000EFA15FE6F000EFB15FF6FFC51AA
:10474000FD11FE11FF11D8A4A8EFA3F0AAEFA3F06A
:104750009FEFA4F00FC6C5F510C6C6F5060120EE02
:1047600012F00F51D9261051DA22DEC4C7F5DEC48B
:10477000C8F5DEC4C9F5DEC4CAF5F6ECA6F0C5C5B9
:1047800019F6C6C51AF6C7C51BF6C8C51CF606013C
:104790001C511B111A1107E1020E195DD8B0D3EF9D
:1047A000A3F0D5EFA3F0D8EFA3F0020ED1EFA4F061
:1047B00019290AE11A2908E11B2906E11C29D8A4B4
:1047C000E4EFA3F0E6EFA3F0E9EFA3F0010ED1EFE1
:1047D000A4F020EE14F01751D9261851DA22DE5039
:1047E000195DDE501A59DE501B59DE501C59D8A0F5
:1047F000FCEFA3F0FEEFA3F073EFA4F01151121140
:10480000D8A405EFA4F007EFA4F013EFA4F020EE76
:1048100016F00F51D9261051DA22DE6ADE6ADE6AFE
:10482000DD6AF1EFA2F00FC6E6F510C6E7F520EE5F
:1048300012F00F51D9261051DA22DEC4E8F5DEC499
:10484000E9F5DEC4EAF5DEC4EBF5F6EC95F0E6C575
:1048500019F6E7C51AF6E8C51BF6E9C51CF6060108
:1048600019511A111B111C11D8A439EFA4F03BEFF8
:10487000A4F03EEFA4F0070ED1EFA4F019051A1131
:104880001B111C11D8A447EFA4F049EFA4F04BEF83
:10489000A4F0D5EFA3F019290AE11A2908E11B2990
:1048A00006E11C29D8A457EFA4F059EFA4F05BEF60
:1048B000A4F0E6EFA3F017C6BAF518C6BBF519C603
:1048C000BCF51AC6BDF51BC6BEF51CC6BFF5BCECD3
:1048D000D2F00009D8B46FEFA4F071EFA4F073EF39
:1048E000A4F0E6EFA3F0060120EE12F00F51D92656
:1048F0001051DA2219C6DEF41AC6DEF41BC6DEF445
:104900001CC6DEF417C61DF518C61EF519C61FF520
:104910001AC620F51BC621F51CC622F502ECE4F0F0
:10492000060120EE16F00F51D9261051DA221DC5CE
:10493000DEF41EC5DEF41FC5DEF420C5DEF406017C
:1049400020EE0EF00F51D9261051DA2213C6DEF4F4
:1049500014C6DEF415C6DEF416C6DEF4FF0E13151B
:104960000501F46F010E060114150501F56FF451F0
:10497000060117250501F66FF551060118210501FD
:10498000F76F300EF627000EF723060120EE1AF01F
:104990000F51D9261051DA22F6C5DEF4F7C5DDF441
:1049A000000E120005016E6B5AC70FF55BC710F5BC
:1049B000750E116E050E126E710E136E050E146ECD
:1049C000730E156E050E166E86ECD6F00501765147
:1049D00009E1500E755DD8A0F0EFA4F0F2EFA4F05D
:1049E000F8EFA4F06C0E7527070E7623FCEFA4F009
:1049F000D00E7527070E7623170E4C6EFC0E4D6EEB
:104A000075C54EF576C54FF571C550F572C551F5B2
:104A100073C552F574C553F535ECF7F0DA0E0501A0
:104A20006F6F1A0E706F6FC560F570C561F5000E7F
:104A3000636F500E626FCDECD8F0050160516111CB
:104A4000D8B425EFA5F027EFA5F0F5EFA5F06FC5D9
:104A50000FF570C510F5770E116E050E126E7B0EF8
:104A6000136E050E146E790E156E050E166E6EEC35
:104A7000DEF00F501010D8B440EFA5F042EFA5F0D3
:104A80004AEFA5F06C0E4C6EFB0E4D6E35ECF7F058
:104A9000FCEFA4F0BC0E0501775D070E7859D8A095
:104AA00054EFA5F056EFA5F061EFA5F0200E775D6D
:104AB000080E7859D8A05FEFA5F061EFA5F069EF77
:104AC000A5F06C0E4C6EFB0E4D6E35ECF7F0FCEF66
:104AD000A4F07C5107E10D0E7B5DD8B072EFA5F01C
:104AE00074EFA5F07DEFA5F07B517C11D8A47BEF8E
:104AF000A5F07DEFA5F085EFA5F06C0E4C6EFB0EDA
:104B00004D6E35ECF7F0FCEFA4F0020E7B197C1132
:104B1000D8A48DEFA5F08FEFA5F0B2EFA5F01D0E94
:104B200079197A11D8A497EFA5F099EFA5F0B2EF13
:104B3000A5F077C509F578C50AF544ECEEF0095003
:104B40000A10D8B4A6EFA5F0A8EFA5F0AAEFA5F03B
:104B5000E6EFA5F06C0E4C6EFB0E4D6E35ECF7F0EB
:104B6000FCEFA4F07BC56AF57CC56BF5D8906A377D
:104B70006B37FE0E6A256C6FFF0E6B216D6FFD0E9D
:104B80006C25F66EF30E6D21F76EF86A000EF822B2
:104B900079510900F55C7A510900F558D8A0D3EF96
:104BA000A5F0D5EFA5F0DEEFA5F079517A11D8A4E4
:104BB000DCEFA5F0DEEFA5F0E6EFA5F06C0E4C6E95
:104BC000FB0E4D6E35ECF7F0FCEFA4F077C575F5F4
:104BD00078C576F57BC571F57CC572F579C573F539
:104BE0007AC574F5010E05016E6F5DC777F5786BB8
:104BF0005CC77BF57C6B5FC779F57A6B2E0E4C6ECC
:104C0000FC0E4D6E5DC74EF54F6A5CC750F5516A9C
:104C10005FC752F5536A35ECF7F0DA0E05016F6F96
:104C20001A0E706F6FC560F570C561F5000E636F89
:104C3000500E626FCDECD8F0050160516111D8B40F
:104C400024EFA6F026EFA6F090EFA6F06FC50FF5C3
:104C500070C510F5770E116E050E126E7B0E136E79
:104C6000050E146E790E156E050E166E6EECDEF0E6
:104C70000F501010D8B43FEFA6F041EFA6F049EF67
:104C8000A6F06C0E4C6EFB0E4D6E35ECF7F0FEEFA1
:104C9000A5F00501785109E1180E775DD8A053EF12
:104CA000A6F055EFA6F05DEFA6F06C0E4C6EFB0E75
:104CB0004D6E35ECF7F0FEEFA5F07C5109E13C0EAE
:104CC0007B5DD8A066EFA6F068EFA6F070EFA6F0C7
:104CD0006C0E4C6EFB0E4D6E35ECF7F0FEEFA5F052
:104CE0007A5109E13C0E795DD8A079EFA6F07BEF0F
:104CF000A6F083EFA6F06C0E4C6EFB0E4D6E35ECFD
:104D0000F7F0FEEFA5F0A19E77C55DF77BC55CF7D8
:104D100079C55FF711ECF2F0A18E010E05016E6FFF
:104D20006E51D8B496EFA6F098EFA6F0F5EFA6F086
:104D300075C515F576C516F571C517F572C518F563
:104D400073C519F574C51AF590ECE1F015C55AF75D
:104D500016C55BF707013C513D11D8B4B2EFA6F080
:104D6000B4EFA6F0D1EFA6F011ECF2F0000E046E55
:104D7000070E056E530E066E070E076ED00EDBECA7
:104D8000ECF0FF0AD8A4C7EFA6F0C9EFA6F0D1EF68
:104D9000A6F0560E4C6EFB0E4D6E35ECF7F0F5EFAF
:104DA000A6F0780E4C6EF90E4D6E75C54EF576C5B3
:104DB0004FF571C550F572C551F573C552F574C5FF
:104DC00053F535ECF7F0050E4C6EFA0E4D6E77C5C7
