:0400000085EF00F098
:10000800737C737C737C737C737C737C737C737C70
:10001800737C737C737C737C737C737C737C737C60
:10002800737C737C737C737C737C737C737C737C50
:10003800737C737C737C737C737C737C737C1B789C
:10004800737C737C737C737C737C737C737C737C30
:10005800737C737C737C737C737C737C737C737C20
:10006800737C737C737C737C737C737C737C737C10
:10007800737C737C737C737C4200737C737C737CAD
:10008800737C737C737C737C737C737C737C737CF0
:10009800B178737C737C737C42009A7B737C737C2D
:1000A800737C737C737C737C737C737C737C737CD0
:1000B800737C737C737C737C737C737C737C737CC0
:1000C800737C737C737C737C737C737C737C737CB0
:1000D800737C737C737C737C737C737C737C737CA0
:1000E8004200737C737C737C737C737C737C737C3D
:1000F800737C737C737C737C737C737C737C737C80
:06010800FF0046EFEAF0E3
:10F3FC00001F001C001F001E001F001E001F001F0E
:10F40C00001E001F001E001F00819FE0FC407E803C
:10F41C00FC0000576172726E696E6721205345546F
:10F42C0020495251204F46462E20436865636B207D
:10F43C0062696E6172727920636F646520616E64BB
:10F44C002025732066696C652E0D0A0053442043F9
:10F45C006172643A20726561643531323A204352EC
:10F46C0043206572726F7220282530347820213D3C
:10F47C0020253034782C2072657472793D256429EE
:10F48C000A0D00496D6167652066696C65202573FE
:10F49C002F445249564525632E44534B2069732003
:10F4AC0061737369676E656420746F20647269762A
:10F4BC00652025630A0D006469736B5F696F637463
:10F4CC006C3A20706472763D25642C20636D643D2B
:10F4DC0025642C20627566663D3078256C783A2060
:10F4EC007265733D25640A0D0053442043617264B8
:10F4FC003A2020726561643531323A20616464725D
:10F50C003D25386C642C206F6666733D25642C2079
:10F51C00636F756E743D25640A0D0053442043617E
:10F52C0072643A2077726974653531323A206164BD
:10F53C0064723D25386C642C206F6666733D2564BF
:10F54C002C20636F756E743D25640A0D00534420A6
:10F55C00436172643A2077726974653531323A20AE
:10F56C006661696C656420746F2067657420746FC4
:10F57C006B656E2C2074696D656F75740A0D005384
:10F58C004420436172643A20777269746535313274
:10F59C003A2074696D656F75742C20726573706F89
:10F5AC006E736520697320253032780A0D00534440
:10F5BC0020436172643A20434D4435382C20523339
:10F5CC003D25303278202530327820253032782095
:10F5DC002530327820253032780A0D0025733A20F8
:10F5EC004552524F523A20636C6F636B20737065B7
:10F5FC006564202564206973206E6F7420737570A8
:10F60C00706F727465640A0D005344204361726418
:10F61C003A20434D44382C2052373D253032782047
:10F62C00253032782025303278202530327820254C
:10F63C003032780A0D006469736B5F696F63746CA8
:10F64C003A20706472763D25642C20636D643D25F0
:10F65C00643A204E6F742068616E646C65642E0A87
:10F66C000D006469736B5F726561643A202070648D
:10F67C0072763D25642C20736563746F723D256C26
:10F68C00642C20636F756E743D25640A0D006469EB
:10F69C00736B5F77726974653A20706472763D257E
:10F6AC00642C20736563746F723D256C642C20632D
:10F6BC006F756E743D25640A0D005365747570206A
:10F6CC0044533133303720525443206D6F64756C82
:10F6DC006520666F7220636C6F636B20646576695E
:10F6EC0063652E0D0A00534420436172643A204333
:10F6FC0043532028436172642043617061636974D1
:10F70C0079205374617475732920697320300A0D44
:10F71C0000534420436172643A20777269746535F2
:10F72C0031323A20435243206572726F7220287234
:10F73C00657472793D2564290A0D00534420436198
:10F74C0072643A204361726420706F776572207521
:10F75C0070207374617475732062697320697320EF
:10F76C00300A0D0072656164204D42522070617246
:10F77C00746974696F6E207461626C6520617420A9
:10F78C00736563746F7220300A0D0053442043611B
:10F79C0072643A2053444843206F722053445843B8
:10F7AC0020636172642064657465637465640A0D1A
:10F7BC000025733A204552524F523A206D6F6465C2
:10F7CC00202564206973206E6F7420737570706FC0
:10F7DC00727465640A0D004C6F6164202573203AC5
:10F7EC0020416472203D202530366C782C205369E2
:10F7FC007A65203D20253034780D0A00534420438F
:10F80C006172643A20696E697469616C697A652009
:10F81C002E2E2E207375636365656465640A0D0076
:10F82C00534420436172643A20756E657870656349
:10F83C0074656420726573706F6E73652025303249
:10F84C00780A0D00534420436172643A2041434DC1
:10F85C0044343120726573706F6E73652069732048
:10F86C00253032780A0D00534420436172643A20EB
:10F87C0077726974653531323A20746F6B656E201E
:10F88C00697320253032780A0D004D656D6F7279E1
:10F89C0020303030303030202D202530366C584818
:10F8AC00202564204B42204F4B0D0A00534420432B
:10F8BC006172643A20434D44353920726573706F20
:10F8CC006E736520697320253032780A0D007061E3
:10F8DC0072746974696F6E207374617274732061D1
:10F8EC007420736563746F7220256C640A0D005369
:10F8FC00657475702074696D65723020666F722046
:10F90C00636C6F636B206465766963652E0D0A000A
:10F91C00665F777269746528293A204552524F52B6
:10F92C00207265733D25642C206E3D25640A0D0004
:10F93C00665F7265616428293A204552524F522005
:10F94C007265733D25642C206E3D25640A0D00669E
:10F95C0061696C656420746F2077726974652073BB
:10F96C006563746F7220256C640A0D000D0A536573
:10F97C0074204461746528253034642F253032643A
:10F98C002F25303264290D0A00554E4B4E4F574EE1
:10F99C0020444556494345203A20434D44282530C0
:10F9AC003278290D0A006661696C656420746F20D9
:10F9BC007265616420736563746F7220256C640AD0
:10F9CC000D000A0D534420436172643A20696E693C
:10F9DC007469616C697A65202E2E2E0A0D005365B0
:10F9EC00742054696D6528253032643A25303264B0
:10F9FC003A25303264290D0A0050726F6772616DBE
:10FA0C002046696C65204C6F6164204572726F7280
:10FA1C002E0D0A004661696C656420746F206D6F51
:10FA2C00756E7420534420436172642E0A0D005588
:10FA3C004E4B4E4F574E20756E696D6F6E20434D79
:10FA4C00442825303278290D0A0053442043617232
:10FA5C00643A2041434D4434312C2052313D253001
:10FA6C0032780A0D006661696C656420746F2072CF
:10FA7C0065616420736563746F7220300A0D0046F3
:10FA8C0061696C656420746F206F70656E205344DF
:10FA9C0020436172642E0A0D004D455A38365F5270
:10FAAC00414D204669726D776172652052657631E1
:10FABC002E31000A4D656D6F7279206572726F720E
:10FACC00206174202530366C58480A0D0064697327
:10FADC006B5F696E697469616C697A652825642944
:10FAEC002E2E2E0A0D0044533133303720576974B3
:10FAFC006520493243206572726F72210D0A004EE7
:10FB0C006F202573206469726563746F7279206647
:10FB1C006F756E642E0D0A00333A546F796F7368EB
:10FB2C00696B692054696E792042617369630A0DAF
:10FB3C0000534420436172643A206E6F74207375D5
:10FB4C00706F70727465640A0D00534420436172C7
:10FB5C00643A20434D44302C2052313D25303278CC
:10FB6C000A0D0020202020202020202020202020D2
:10FB7C00202020202020202020200D007761697477
:10FB8C0020666F722070726F6772616D6D65722086
:10FB9C002E2E2E0D002573253533732043484543F7
:10FBAC004B53554D3A20253032780A0D004D656D7A
:10FBBC006F727920303030303030202D20253036A7
:10FBCC006C58480D004932432062757320697320CC
:10FBDC006E6F742065786973742E0A0D00706879E5
:10FBEC00736963616C2064726976657220213D20B3
:10FBFC00300A0D00353A47414D452D4320496E746E
:10FC0C0065727072657465720A0D004461746520CA
:10FC1C00253034642F253032642F25303264203D5A
:10FC2C00200054696D6520253032643A25303264E9
:10FC3C003A25303264203D20000A4D656D6F727993
:10FC4C0020777261702061726F756E642E0A0D00E0
:10FC5C00323A38303836204E4153434F4D204241D2
:10FC6C005349430A0D00313A556E697665727361DA
:10FC7C006C204D6F6E69746F720A0D00665F6C7349
:10FC8C0065656B28293A204552524F522025640A4B
:10FC9C000D006E6F204641543332207061727469CE
:10FCAC0074696F6E0A0D00434C4B203D2025642C6B
:10FCBC0020495251203D2025640D0A00303A544F02
:10FCCC00442854696D65204F6620446179290A0DDA
:10FCDC0000665F73796E6328293A204552524F5261
:10FCEC002025640A0D004E6F2064726976652041F0
:10FCFC0020666F756E642E0A0D006E6F204D425299
:10FD0C00207369676E61747572650A0D0046696CC3
:10FD1C00652072656164206572726F72210D0A0034
:10FD2C00342E39324D487A20647574792033382E4C
:10FD3C00342500392E31344D487A2064757479207D
:10FD4C0034322E392500445331333037205254434A
:10FD5C00206D6F64756C65200053442043617264A0
:10FD6C003A2074696D656F75740A0D006E6F20769C
:10FD7C00616C696420766F6C756D650A0D00536556
:10FD8C0074206465627567206D6F64652E0D0A00C2
:10FD9C0031302E36374D487A2064757479203530E1
:10FDAC002500534420436172643A20726561647982
:10FDBC002E0A0D002573206E6F7420666F756E64AD
:10FDCC002E2E0D0A0031322E384D487A206475746F
:10FDDC007920363025005350495F53445F636F6E72
:10FDEC0066696775726500384D487A206475747958
:10FDFC002033372E3525006973206E6F742065789B
:10FE0C006973742E0D0A002A2B2C3A3B3C3D3E5B49
:10FE1C005D7C223F7F0043505520636C6F636B20E9
:10FE2C0025730D0A0031364D487A2064757479209B
:10FE3C003530250025732F445249564525632E44F1
:10FE4C00534B004E6F20534420436172643F0A0DA4
:10FE5C000054545F42415338362E42494E00554DA2
:10FE6C004F4E5F5338362E42494E00424153494360
:10FE7C005F38362E42494E004343505F42444F5345
:10FE8C002E42494E00363A43502F4D2D38360A0D2E
:10FE9C00000A0D53656C6563743A0A0D00426F617C
:10FEAC0072643A2025730A0D0044657465637420EE
:10FEBC0025730A0D00474D495F5338362E42494E83
:10FECC000056544C5F5338362E42494E00373A4D4B
:10FEDC00532D444F530A0D00554E494D4F4E5F4F15
:10FEEC00464600554E494D4F4E5F534547004C6FAB
:10FEFC0061642025730D0A00343A56544C2D430A84
:10FF0C000D004342494F535F4F464600494F5359EA
:10FF1C00535F4F464600494F5359535F5345470073
:10FF2C004D455A38362E434647004342494F532ECF
:10FF3C0042494E004D53444F532E5359530065784C
:10FF4C00697374732E0D0A0025732530366C783A5C
:10FF5C000046415433322020200041504C495F4F21
:10FF6C0046460041504C495F5345470043504D4471
:10FF7C0049534B5300444F534449534B530025733F
:10FF8C00253034783A0043504D5F4F46460043507D
:10FF9C004D5F53454700286E756C6C2900494E54D3
:10FFAC0056454300494F2E53595300202530327883
:10FFBC00006661743A200025732F25730062756604
:10FFCC003A2000303A2F2F00455845430052443A0E
:10FFDC00200057523A200053443A2000494E460024
:10FFEC004E614E00434C4B00495251004F56003F5E
:03FFFC00200000E2
:020000040001F9
:10000000F5C5D9F4F6C5DAF4DE6ADD6AF3C504F5A0
:10001000F4C505F508ECCAF004C585F605C586F6F5
:10002000060186BF18EF80F016EF80F01BEF80F01E
:100030000B0EC2EF85F0D8908535D96E8635DA6E15
:10004000220ED926070EDA22DEC4A0F6DDC4A1F600
:10005000A051A111D8A42FEF80F031EF80F034EF40
:1000600080F00C0EC2EF85F0F5C5D9F4F6C5DAF4D0
:10007000A0C6DEF4A1C6DDF40501F791A0C6D9F44F
:10008000A1C6DAF4DF50D8B448EF80F04AEF80F030
:1000900074EF80F0060120EE01F0A051D926A151A5
:1000A000DA22DF50B2ECF5F00601956F95B15BEF07
:1000B00080F05DEF80F074EF80F00501F751D8B467
:1000C00064EF80F066EF80F071EF80F0060195A597
:1000D0006CEF80F06EEF80F071EF80F00A0EC2EFEF
:1000E00085F0000EC2EF85F0A0C6D9F4A1C6DAF4FF
:1000F000DF6A060120EE01F0A051D926A151DA22D3
:10010000DF5095ECC7F00601956F95A18AEF80F05E
:100110008CEF80F08FEF80F0030EC2EF85F00501C9
:10012000F751D8B496EF80F098EF80F0A2EF80F00E
:10013000060195A59EEF80F0A0EF80F0A2EF80F081
:100140006EEF80F0A0C6D5F5A1C6D6F5000E05016C
:10015000D86F000ED76F6EECC0F0D5C59EF6D6C531
:100160009FF6040E06019E199F11D8A4BAEF80F0E5
:10017000BCEF80F0BFEF80F0010EC2EF85F09F5121
:1001800009E1020E9E5DD8A0C8EF80F0CAEF80F0B2
:10019000CDEF80F00D0EC2EF85F020EE2CF0A051D7
:1001A000D926A151DA22DEC491F6DEC492F6DEC46D
:1001B00093F6DEC494F63B0EA025046E000EA1213A
:1001C000056E67ECF6F0020E05180410D8B4EBEFDC
:1001D00080F0EDEF80F0EFEF80F0CAEF80F0460E98
:1001E0000601A025046E000EA121056E67ECF6F055
:1001F00004C59AF605C59BF606019C6B9D6B9A514A
:100200009B119C119D11D8A408EF81F00AEF81F099
:100210001AEF81F0540EA025046E000EA121056E88
:100220003EECE7F004C59AF605C59BF606C59CF6BC
:1002300007C59DF6060120EE18F0A051D926A15160
:10024000DA229AC6DEF49BC6DEF49CC6DEF49DC6B6
:10025000DEF420EE40F0A051D926A151DA2210EEB2
:1002600003F0A051E126A151E222DFC4E7F420EE21
:1002700003F0A051D926A151DA22DE04D8B443EF0D
:1002800081F045EF81F056EF81F020EE03F0A051B0
:10029000D926A151DA22020EDE18D8B452EF81F02D
:1002A00054EF81F056EF81F0CAEF80F09AC611F555
:1002B0009BC612F59CC613F59DC614F520EE03F0FF
:1002C000A051D926A151DA22DF500501F86FF8516B
:1002D000156E166A176A186AD1ECF1F011C59AF614
:1002E00012C59BF613C59CF614C59DF6060120EEBB
:1002F0003DF0A051D926A151DA22DF500501F86F57
:10030000F96B060120EE0AF0A051D926A151DA229C
:10031000F8C5DEF4F9C5DDF420EE0AF0A051D926C7
:10032000A151DA22DE50DE10D8B499EF81F09BEFB4
:1003300081F0CAEF80F020EE0AF0A051D926A15139
:10034000DA22DEC4F8F5DDC4F9F520EE0AF0A0519A
:10035000D926A151DA22DEC4FAF5DDC4FBF5FF0E81
:100360000501FA25FC6FFF0EFB21FD6FF851FC150E
:10037000FE6FF951FD15FF6FFE51FF11D8B4C3EFA9
:1003800081F0C5EF81F0C7EF81F0CAEF80F0410E38
:100390000601A025046E000EA121056E67ECF6F0A3
:1003A000060120EE08F0A051D926A151DA2204C599
:1003B000DEF405C5DDF420EE08F0A051D926A151E8
:1003C000DA22DEC4F8F5DDC4F9F50F0E0501F817E1
:1003D000000EF917F851F911D8B4F1EF81F0F3EFED
:1003E00081F0F5EF81F0CAEF80F0430E0601A02501
:1003F000046E000EA121056E67ECF6F004C58DF6C3
:1004000005C58EF606018F6B906B8D518E118F1185
:100410009011D8A40EEF82F010EF82F020EF82F05E
:10042000500EA025046E000EA121056E3EECE7F0F3
:1004300004C58DF605C58EF606C58FF607C590F680
:100440003E0E0601A025046E000EA121056E67EC8C
:10045000F6F004C58BF605C58CF606018B518C11A0
:10046000D8A435EF82F037EF82F039EF82F0CAEF8F
:1004700080F020EE08F0A051D926A151DA22DEC486
:10048000F8F5DDC4F9F5040E0501FA6FD890F933DB
:10049000F833FA2F46EF82F006018B510501F8255B
:1004A000FB6F06018C510501F921FC6FFD6BD8B083
:1004B000FD2BFE6B06019A510501FB250601876F96
:1004C0009B510501FC210601886F9C510501FD210E
:1004D0000601896F9D510501FE2106018A6F875132
:1004E0008D5D88518E5989518F598A519059D8B054
:1004F0007CEF82F07EEF82F080EF82F0CAEF80F036
:1005000087518D5D046E88518E59056E89518F59C2
:10051000066E8A519059076E20EE0AF0A051D92636
:10052000A151DA22DEC4F8F5DDC4F9F5F8C508F505
:10053000F9C509F50A6A0B6AA3ECE9F004C596F659
:1005400005C597F606C598F607C599F606019651B2
:10055000971198119911D8A4B0EF82F0B2EF82F000
:10056000B4EF82F0CAEF80F0000E9F6F000E9E6F16
:10057000F60E965DFF0E9759FF0E98590F0E99597A
:10058000D8B0C5EF82F0C7EF82F0CBEF82F0000E5B
:100590009F6F030E9E6F9951981109E1F60E965DBB
:1005A000FF0E9759D8B0D7EF82F0D9EF82F0DDEF88
:1005B00082F0000E9F6F020E9E6F9951981109E113
:1005C000F60E965D0F0E9759D8B0E9EF82F0EBEF7B
:1005D00082F0EFEF82F0000E9F6F010E9E6F9E5132
:1005E0009F11D8A4F6EF82F0F8EF82F0FAEF82F0D4
:1005F000CAEF80F0020E96250501F86F000E060185
:1006000097210501F96F000E060198210501FA6F87
:10061000000E060199210501FB6F060120EE14F082
:10062000A051D926A151DA22F8C5DEF4F9C5DEF4CD
:10063000FAC5DEF4FBC5DEF420EE1CF0A051D9268D
:10064000A151DA2291C6DEF492C6DEF493C6DEF43E
:1006500094C6DEF48B5191250501F86F06018C518B
:1006600092210501F96F000E060193210501FA6F31
:10067000000E060194210501FB6F060120EE20F01B
:10068000A051D926A151DA22F8C5DEF4F9C5DEF46D
:10069000FAC5DEF4FBC5DEF4875191250501F86F3C
:1006A0000601885192210501F96F060189519321B4
:1006B0000501FA6F06018A5194210501FB6F0601BD
:1006C00020EE28F0A051D926A151DA22F8C5DEF497
:1006D000F9C5DEF4FAC5DEF4FBC5DEF4030E9E199F
:1006E0009F11D8A476EF83F078EF83F0D6EF83F0F4
:1006F0005A0EA025046E000EA121056E67ECF6F0DF
:1007000004500510D8B487EF83F089EF83F08BEFA6
:1007100083F0CAEF80F0060120EE08F0A051D92640
:10072000A151DA22DE50DE10D8B499EF83F09BEFAE
:1007300083F09DEF83F0CAEF80F05C0EA025046E7D
:10074000000EA121056E3EECE7F0060120EE24F03C
:10075000A051D926A151DA2204C5DEF405C5DEF484
:1007600006C5DEF407C5DEF420EE14F0A051D9264C
:10077000A151DA22DEC4F8F5DEC4F9F5DEC4FAF5DB
:10078000DEC4FBF5020ED8900501F837F937FA37C9
:10079000FB37E82EC3EF83F0F8C581F6F9C582F682
:1007A000FAC583F6FBC584F68FEF84F020EE08F0DF
:1007B000A051D926A151DA22DE50DE10D8A4E3EFF1
:1007C00083F0E5EF83F0E7EF83F0CAEF80F020EEEF
:1007D00020F0A051D926A151DA22DEC4F8F5DEC4FA
:1007E000F9F5DEC4FAF5DEC4FBF59A510501F825EA
:1007F000FC6F06019B510501F921FD6F06019C511B
:100800000501FA21FE6F06019D510501FB21FF6FD5
:10081000060120EE24F0A051D926A151DA22FCC510
:10082000DEF4FDC5DEF4FEC5DEF4FFC5DEF4020E27
:100830009E199F11D8B41FEF84F021EF84F070EF60
:1008400084F020EE14F0A051D926A151DA22DEC4A2
:10085000F8F5DEC4F9F5DEC4FAF5DEC4FBF5010EE9
:100860000501F815FC6F000EF915FD6F000EFA1565
:10087000FE6F000EFB15FF6F060120EE14F0A05175
:10088000D926A151DA22DEC411F5DEC412F5DEC488
:1008900013F5DEC414F5030E156E000E166E000E71
:1008A000176E000E186ED1ECF1F0D890143213329E
:1008B000123211320501FC5111240601816F05012C
:1008C000FD5112200601826F0501FE511320060121
:1008D000836F0501FF5114200601846F8FEF84F0B0
:1008E00020EE14F0A051D926A151DA22DEC4F8F589
:1008F000DEC4F9F5DEC4FAF5DEC4FBF5D8900501D7
:10090000F8350601816F0501F9350601826F050191
:10091000FA350601836F0501FB350601846FFF0E72
:10092000060181250501F86F010E060182210501EE
:10093000F96F000E060183210501FA6F000E060112
:1009400084210501FB6F0A0EABEF84F0D890FB33D6
:10095000FA33F933F833E82EA6EF84F0060120EEDF
:1009600018F0A051D926A151DA220501F851DE5C18
:10097000F951DE58FA51DE58FB51DE58D8B0C3EFBA
:1009800084F0C5EF84F0C7EF84F0CAEF80F0060171
:1009900020EE10F0A051D926A151DA22FF0EDE6E12
:1009A000FF0EDE6EFF0EDE6EFF0EDD6EDD52DD52DF
:1009B00010EE0CF0A051E126A151E222DEC4E6F4D3
:1009C000DEC4E6F4DEC4E6F4DEC4E6F420EE05F0B0
:1009D000A051D926A151DA22800EDF6E030E9E1996
:1009E0009F11D8A4F6EF84F0F8EF84F0ACEF85F017
:1009F000600EA025046E000EA121056E67ECF6F0D6
:100A000004040510D8A407EF85F009EF85F0ACEFDA
:100A100085F0A0C6BCF5A1C6BDF5010E0601912565
:100A20000501BE6F000E060192210501BF6F000E89
:100A3000060193210501C06F000E060194210501F6
:100A4000C16F2FECE4F00009D8A429EF85F02BEF5B
:100A500085F0ACEF85F0060120EE05F0A051D92617
:100A6000A151DA22DF6A2E0EA025046E020EA1210A
:100A7000056E67ECF6F0550E041807E1AA0E05188E
:100A8000D8A445EF85F047EF85F0ACEF85F0300E48
:100A90000601A025046E000EA121056E3EECE7F0D4
:100AA000520E04180DE1520E05180AE1610E0618E7
:100AB00007E1410E0718D8A460EF85F062EF85F0DA
:100AC000ACEF85F0140E0601A025046E020EA121E4
:100AD000056E3EECE7F0720E04180DE1720E05187B
:100AE0000AE1410E061807E1610E0718D8A47BEF52
:100AF00085F07DEF85F0ACEF85F0180E0601A0259E
:100B0000046E020EA121056E3EECE7F0060120EE18
:100B100010F0A051D926A151DA2204C5DEF405C592
:100B2000DEF406C5DEF407C5DEF41C0EA025046E57
:100B3000020EA121056E3EECE7F0060120EE0CF05E
:100B4000A051D926A151DA2204C5DEF405C5DEF490
:100B500006C5DEF407C5DEF4A0C6D9F4A1C6DAF4F2
:100B60009EC6DFF40701204B212B060120EE06F084
:100B7000A051D926A151DA2220C7DEF421C7DDF425
:100B800071EF80F01200F8C520F6F9C521F6FCC51A
:100B9000D9F4FDC5DAF4DE6ADD6AF6C563F5F7C59A
:100BA00064F5300E0501656F060E666F2BECDCF008
:100BB00006011F6F1F51D8A4E0EF85F0E2EF85F02A
:100BC000F4EF85F0050120EE0FF0F651D926F7512C
:100BD000DA22DF5006011F6F1F51D8B4F2EF85F003
:100BE000F4EF85F0F7EF85F01F5134EF8AF005013F
:100BF00020EE0EF0F651D926F751DA22DFB203EFDC
:100C000086F005EF86F008EF86F0070E34EF8AF0E5
:100C100020EE10F0F651D926F751DA2210EE10F03E
:100C2000F651E126F751E222E6C413F6E6C414F6C3
:100C3000E6C415F6E6C416F6FA5106011325176F39
:100C40000501FB5106011421186F000E1521196FC3
:100C5000000E16211A6FDE50175DDE501859DE5057
:100C60001959DE501A59D8B038EF86F03AEF86F0AD
:100C70004DEF86F0050120EE10F0F651D926F75120
:100C8000DA22DEC40FF6DDC410F606010F1D0501E1
:100C9000FA6F0601101D0501FB6F0501FA51FB11EA
:100CA000D8A455EF86F057EF86F059EF86F02AEF7B
:100CB0008AF020EE10F0F651D926F751DA22FF0E15
:100CC000DE1406010F6F010EDE14106F000EDE142D
:100CD000116F000EDE14126F0F511011111112114D
:100CE000D8A475EF86F077EF86F05CEF89F0050108
:100CF00020EE10F0F651D926F751DA22DEC40FF6B5
:100D0000DEC410F6DEC411F6DEC412F60A0E8FEF52
:100D100086F00601D8901233113310330F33E82ECA
:100D200089EF86F020EE0AF03051D9263151DA22CF
:100D3000DEC413F6DDC414F6FF0E1325156FFF0E87
:100D40001421166F0F511515226F10511615236FB0
:100D500022512311D8A4AFEF86F0B1EF86F07FEFD8
:100D600087F0050120EE10F0F651D926F751DA226E
:100D7000DE50DE10DE10DE10D8A4C1EF86F0C3EF27
:100D800086F0F6EF86F020EE06F0F651D926F75100
:100D9000DA22DEC426F6DEC427F6DEC428F6DEC478
:100DA00029F606012651271128112911D8A4DBEFB5
:100DB00086F0DDEF86F012EF87F0F6C5E8F5F7C5AF
:100DC000E9F5000E0501EA6F000EEB6F000EEC6F07
:100DD000000EED6F0EEC96F0E8C526F6E9C527F695
:100DE000EAC528F6EBC529F612EF87F0F6C5E8F557
:100DF000F7C5E9F520EE14F0F651D926F751DA22BD
:100E0000DEC4EAF5DEC4EBF5DEC4ECF5DEC4EDF5D8
:100E10000EEC96F0E8C526F6E9C527F6EAC528F6F1
:100E2000EBC529F606012651271128112911D8A44E
:100E30001CEF87F01EEF87F020EF87F02AEF8AF093
:100E40002605271128112911D8A429EF87F02BEFA7
:100E500087F037EF87F0050120EE0FF0F651D92625
:100E6000F751DA22020EDF6E020E34EF8AF02629E5
:100E70000AE1272908E1282906E12929D8A443EF16
:100E800087F045EF87F051EF87F0050120EE0FF076
:100E9000F651D926F751DA22010EDF6E010E34EF3A
:100EA0008AF0050120EE14F0F651D926F751DA2226
:100EB00026C6DEF427C6DEF428C6DEF429C6DEF434
:100EC00020EE06F0F651D926F751DA22DE50DE1078
:100ED000DE10DE10D8A46FEF87F071EF87F07FEFA0
:100EE00087F020EE06F0F651D926F751DA2226C611
:100EF000DEF427C6DEF428C6DEF429C6DEF40501DA
:100F000020EE0EF0F651D926F751DA22DFAE8BEF44
:100F100087F08DEF87F0CBEF87F0220EF6259E6FDE
:100F2000000EF7219F6F20EE18F0F651D926F751E9
:100F3000DA22DEC4A0F5DEC4A1F5DEC4A2F5DEC46B
:100F4000A3F5000EA56F010EA46F060120EE01F0BF
:100F50003051D9263151DA22DF506AECECF0000929
:100F6000D8B4B5EF87F0B7EF87F0C2EF87F005018F
:100F700020EE0FF0F651D926F751DA22010EDF6E7E
:100F80004EEF87F0050120EE0EF0F651D926F7510D
:100F9000DA227F0EDF1630C61DF531C61EF520EEB3
:100FA00014F0F651D926F751DA22DEC41FF5DEC45B
:100FB00020F5DEC421F5DEC422F5C9ECE3F01DC541
:100FC0002CF61EC52DF61FC52EF620C52FF60601E0
:100FD0002C512D112E112F11D8A4F1EF87F0F3EF22
:100FE00087F0FEEF87F0050120EE0FF0F651D926CD
:100FF000F751DA22020EDF6E34EF87F022512C27F0
:1010000023512D23000E2E23000E2F23FAC50FF699
:10101000FBC510F6090E116FD89010330F33112F46
:101020000CEF88F00FC624F610C625F624512511C2
:10103000D8B41DEF88F01FEF88F0E8EF88F0245156
:1010400022250F6F25512321106F20EE0AF0305119
:10105000D9263151DA220F51DE5C1051DE58D8B05A
:1010600034EF88F036EF88F046EF88F020EE0AF093
:101070003051D9263151DA22DEC40FF6DDC410F624
:1010800022510F5D246F23511059256F20C69EF504
:1010900021C69FF52CC6A0F52DC6A1F52EC6A2F53A
:1010A0002FC6A3F524C6A4F525C6A5F520EE01F0AC
:1010B0003051D9263151DA22DF506AECECF00009C8
:1010C000D8B465EF88F067EF88F072EF88F005011B
:1010D00020EE0FF0F651D926F751DA22010EDF6E1D
:1010E0004EEF87F0060124510F6F2551106F116BE1
:1010F000126B050120EE18F0F651D926F751DA22CD
:10110000DEC413F6DEC414F6DEC415F6DEC416F62D
:1011100006012C51135D176F2D511459186F2E5164
:101120001559196F2F5116591A6F0F51175D10511C
:1011300018591151195912511A59D8B0A2EF88F003
:10114000A4EF88F0D6EF88F0220E0501F625046E94
:10115000000EF721056E20EE18F0F651D926F75152
:10116000DA22DEC40FF6DDC410F606012C510F5F43
:101170002D51105B090ED8900F371037E82EBBEFBA
:1011800088F00F512025066E10512121076E020EA6
:10119000096E000E086EB1ECF4F0050120EE0EF0C1
:1011A000F651D926F751DA227F0EDF1624C60FF644
:1011B00025C610F6090ED89006010F371037E82E15
:1011C000DBEF88F00FC62AF610C62BF6BCEF89F0CD
:1011D000050120EE18F0F651D926F751DA22060162
:1011E0002C51DE180FE12D51DE180CE12E51DE18C6
:1011F00009E12F51DE18D8B400EF89F002EF89F031
:101200004DEF89F0050120EE0AF0F651D926F7518D
:10121000DA2210EE10F0F651E126F751E222DE500C
:10122000E65CDE50E658DE50E658DE50E658D8B0B0
:101230001CEF89F01EEF89F04DEF89F0220EF625A4
:10124000A06F000EF721A16F2CC6A2F52DC6A3F545
:101250002EC6A4F52FC6A5F5000EA76F010EA66F2A
:10126000060120EE01F03051D9263151DA22DF504B
:10127000B7ECECF00009D8B440EF89F042EF89F008
:101280004DEF89F0050120EE0FF0F651D926F75108
:10129000DA22010EDF6E4EEF87F0050120EE18F026
:1012A000F651D926F751DA222CC6DEF42DC6DEF42B
:1012B0002EC6DEF42FC6DEF4050120EE10F0F65146
:1012C000D926F751DA22DEC40FF6DDC410F6FF0E80
:1012D00006010F15116F010E1015126F1151000844
:1012E0002A6F1251D8A0E82A02082B6F2A51050153
:1012F000FA5D06012B510501FB59D8B082EF89F048
:1013000084EF89F088EF89F0FAC52AF6FBC52BF641
:1013100020EE10F0F651D926F751DA22DEC40FF68E
:10132000DDC410F6FF0E06010F15116F010E10152A
:10133000126F11510501F6250601136F12510501B7
:10134000F7210601146F220E1325046E000E1421DE
:10135000056E20C606F521C607F52AC608F52BC678
:1013600009F5B1ECF4F0050120EE0EF0F651D926A6
:10137000F751DA22000EDB8E06012A510501FA5FD1
:1013800006012B510501FB5BFCC5D9F4FDC5DAF460
:1013900006012A51DE262B51DD222A5120272B510E
:1013A0002123050120EE10F0F651D926F751DA225B
:1013B00006012A51DE262B51DE22000EDE22DE221D
:1013C000050120EE10F0F651D926F751DA2210EE81
:1013D0000AF0F651E126F751E222DE50E65CDE50DB
:1013E000E658DE50E658DE50E658D8A0FAEF89F00D
:1013F000FCEF89F00CEF8AF020EE0AF0F651D926C6
:10140000F751DA22DEC41BF6DEC41CF6DEC41DF67C
:10141000DEC41EF61AEF8AF020EE10F0F651D9263F
:10142000F751DA22DEC41BF6DEC41CF6DEC41DF65C
:10143000DEC41EF620EE0AF0F651D926F751DA2264
:101440001BC6DEF41CC6DEF41DC6DEF41EC6DEF4CA
:101450004DEF86F0050120EE0EF0F651D926F7513A
:10146000DA22000EDB8C000E1200F6C563F5F7C51C
:1014700064F52C0E0501656F060E666F2BECDCF033
:101480000601276F2751D8A448EF8AF04AEF8AF067
:1014900054EF8AF0050120EE0FF0F651D926F751EE
:1014A000DA22DF500601276F2751D8B45AEF8AF0AD
:1014B0005CEF8AF060EF8AF0060127516BEF8EF047
:1014C000050120EE0AF0F651D926F751DA22F8513B
:1014D000DE5CF951DE58FA51DE58FB51DE58D8B0C7
:1014E00074EF8AF076EF8AF091EF8AF020EE0EF03A
:1014F000F651D926F751DA22DFB281EF8AF083EF75
:101500008AF091EF8AF020EE0AF0F651D926F751D1
:10151000DA22DEC4F8F5DEC4F9F5DEC4FAF5DEC47D
:10152000FBF520EE10F0F651D926F751DA22DEC491
:101530001FF6DEC420F6DEC421F6DEC422F6000E5D
:101540000601236F000E246F000E256F000E266F1C
:10155000050120EE10F0F651D926F751DA2223C604
:10156000DEF424C6DEF425C6DEF426C6DEF4F85129
:10157000F911FA11FB11D8B4C0EF8AF0C2EF8AF06A
:101580006FEF8DF0060120EE0AF02C51D9262D5177
:10159000DA22DEC40FF6DDC410F60F51116F1051C0
:1015A000126F136B146B090ED89011371237133763
:1015B0001437E82ED4EF8AF011C628F612C629F6A1
:1015C00013C62AF614C62BF61F5120112111221121
:1015D000D8B4EDEF8AF0EFEF8AF08EEF8BF0FF0ECC
:1015E0000501F825046EFF0EF921056EFF0EFA21A4
:1015F000066EFF0EFB21076E28C608F529C609F501
:101600002AC60AF52BC60BF5A3ECE9F004C50FF6C4
:1016100005C510F606C511F607C512F6FF0E060140
:101620001F25046EFF0E2021056EFF0E2121066E80
:10163000FF0E2221076E28C608F529C609F52AC61D
:101640000AF52BC60BF5A3ECE9F0045006010F5D7B
:10165000055010590650115907501259D8A033EFB0
:101660008BF035EF8BF08EEF8BF0FF0E28250F6F90
:10167000FF0E2921106FFF0E2A21116FFF0E2B2163
:10168000126F0F1D136F101D146F111D156F121D9A
:10169000166FFF0E1F25176FFF0E2021186FFF0E0C
:1016A0002121196FFF0E22211A6F135117151B6F7D
:1016B000145118151C6F155119151D6F16511A1557
:1016C0001E6F050120EE10F0F651D926F751DA22EF
:1016D0001BC6DEF41CC6DEF41DC6DEF41EC6DEF438
:1016E00020EE10F0F651D926F751DA22DE50F85FDD
:1016F000DE50F95BDE50FA5BDD50FB5B20EE14F050
:10170000F651D926F751DA22DEC42EF6DEC42FF6C2
:10171000DEC430F6DEC431F610EF8CF0050120EEA9
:1017200006F0F651D926F751DA22DEC42EF6DEC4D1
:101730002FF6DEC430F6DEC431F606012E512F112D
:1017400030113111D8A4A7EF8BF0A9EF8BF001EF86
:101750008CF0F6C5E8F5F7C5E9F5000E0501EA6F6E
:10176000000EEB6F000EEC6F000EED6F0EEC96F0BE
:10177000E8C52EF6E9C52FF6EAC530F6EBC531F619
:1017800006012E052F1130113111D8A4CAEF8BF0AC
:10179000CCEF8BF0D8EF8BF0050120EE0FF0F65177
:1017A000D926F751DA22020EDF6E020E6BEF8EF0B1
:1017B0002E290AE12F2908E1302906E13129D8A490
:1017C000E4EF8BF0E6EF8BF0F2EF8BF0050120EE0B
:1017D0000FF0F651D926F751DA22010EDF6E010E15
:1017E0006BEF8EF0050120EE06F0F651D926F75189
:1017F000DA222EC6DEF42FC6DEF430C6DEF431C6A1
:10180000DEF4050120EE14F0F651D926F751DA2264
:101810002EC6DEF42FC6DEF430C6DEF431C6DEF4AA
:1018200006012E512F1130113111D8B41AEF8CF05E
:101830001CEF8CF06FEF8DF0E3EF8CF02851050179
:10184000F85F060129510501F95B06012A510501DE
:10185000FA5B06012B510501FB5B20EE10F0F651FF
:10186000D926F751DA2206012851DE262951DE2237
:101870002A51DE222B51DE22050120EE0EF0F65118
:10188000D926F751DA22DFA248EF8CF04AEF8CF02C
:1018900077EF8CF0F6C5E8F5F7C5E9F52EC6EAF561
:1018A0002FC6EBF530C6ECF531C6EDF50EEC96F033
:1018B000E8C52EF6E9C52FF6EAC530F6EBC531F6D8
:1018C00006012E512F1130113111D8A46AEF8CF07E
:1018D0006CEF8CF08DEF8CF0000E0501F86F000EB0
:1018E000F96F000EFA6F000EFB6FFAEF8CF0F6C581
:1018F000C7F5F7C5C8F52EC6C9F52FC6CAF530C657
:10190000CBF531C6CCF5FEECA6F0C7C52EF6C8C5A2
:101910002FF6C9C530F6CAC531F606012E290AE1EF
:101920002F2908E1302906E13129D8A49AEF8CF05B
:101930009CEF8CF0A7EF8CF0050120EE0FF0F65134
:10194000D926F751DA22010EDF6EEFEF8BF031511D
:1019500030112F1109E1020E2E5DD8A0B2EF8CF0EC
:10196000B4EF8CF0C9EF8CF020EE14F02C51D92696
:101970002D51DA22DE502E5DDE502F59DE503059C7
:10198000DE503159D8A0C7EF8CF0C9EF8CF0D4EFFE
:101990008CF0050120EE0FF0F651D926F751DA222E
:1019A000020EDF6ED5EF8BF0050120EE14F0F6513C
:1019B000D926F751DA222EC6DEF42FC6DEF430C661
:1019C000DEF431C6DEF40501F8510601285D05019B
:1019D000F951060129590501FA5106012A59050153
:1019E000FB5106012B59D8A0F8EF8CF0FAEF8CF0E0
:1019F0001EEF8CF0050120EE10F0F651D926F751BC
:101A0000DA22F851DE26F951DE22FA51DE22FB51AC
:101A1000DE22FF0EF81506010F6F010E0501F91504
:101A20000601106F000E0501FA150601116F000E78
:101A30000501FB150601126F0F5110111111121142
:101A4000D8B425EF8DF027EF8DF06FEF8DF02CC619
:101A50001DF52DC61EF52EC61FF52FC620F530C666
:101A600021F531C622F5C9ECE3F01DC523F61EC5EC
:101A700024F61FC525F620C526F60601235124119C
:101A800025112611D8A447EF8DF049EF8DF054EFC2
:101A90008DF0050120EE0FF0F651D926F751DA222C
:101AA000020EDF6ED5EF8BF0F8C50FF6F9C510F614
:101AB000FAC511F6FBC512F60A0E64EF8DF0D89048
:101AC0001233113310330F33E82E5FEF8DF00F51C7
:101AD00023271051242311512523125126230501B8
:101AE00020EE10F0F651D926F751DA2210EE0AF066
:101AF000F651E126F751E222DE50E65CDE50E65870
:101B0000DE50E658DE50E658D8B089EF8DF08BEF06
:101B10008DF0A7EF8DF020EE10F0F651D926F75199
:101B2000DA2210EE0AF0F651E126F751E222DEC485
:101B3000E6F4DEC4E6F4DEC4E6F4DEC4E6F420EE49
:101B40000EF0F651D926F751DA22000EDB8C20EE8A
:101B500010F0F651D926F751DA22FF0EDE140601F5
:101B60000F6F010EDE14106F000EDE14116F000EE9
:101B7000DE14126F0F51101111111211D8B4C3EFEE
:101B80008DF0C5EF8DF05CEF8AF0050120EE18F0C6
:101B9000F651D926F751DA2206012351DE180FE15A
:101BA0002451DE180CE12551DE1809E12651DE181A
:101BB000D8B4DDEF8DF0DFEF8DF05CEF8AF005013A
:101BC00020EE0EF0F651D926F751DA22DFAEEBEF18
:101BD0008DF0EDEF8DF02BEF8EF0220EF6259E6F3F
:101BE000000EF7219F6F20EE18F0F651D926F7511D
:101BF000DA22DEC4A0F5DEC4A1F5DEC4A2F5DEC49F
:101C0000A3F5000EA56F010EA46F060120EE01F0F2
:101C10002C51D9262D51DA22DF506AECECF0000964
:101C2000D8B415EF8EF017EF8EF022EF8EF005018D
:101C300020EE0FF0F651D926F751DA22010EDF6EB1
:101C4000EFEF8BF0050120EE0EF0F651D926F7519B
:101C5000DA227F0EDF16220EF625A06F000EF72186
:101C6000A16F23C6A2F524C6A3F525C6A4F526C6F2
:101C7000A5F5000EA76F010EA66F060120EE01F07C
:101C80002C51D9262D51DA22DF50B7ECECF00009A7
:101C9000D8B44DEF8EF04FEF8EF05AEF8EF0050175
:101CA00020EE0FF0F651D926F751DA22010EDF6E41
:101CB000EFEF8BF0050120EE18F0F651D926F75121
:101CC000DA2223C6DEF424C6DEF425C6DEF426C6F8
:101CD000DEF45CEF8AF01200E3C509F6E4C50AF60B
:101CE000E7C5D9F4E8C5DAF4DE6ADD6AE1C563F573
:101CF000E2C564F5150E0501656F060E666F2BECE7
:101D0000DCF00601046F0451D8A489EF8EF08BEF4C
:101D10008EF09DEF8EF0050120EE0FF0E151D926F7
:101D2000E251DA22DF500601046F0451D8B49BEF70
:101D30008EF09DEF8EF0A0EF8EF0045145EF92F003
:101D4000050120EE0EF0E151D926E251DA22DFB092
:101D5000ACEF8EF0AEEF8EF0B1EF8EF0070E45EFE8
:101D600092F020EE10F0E151D926E251DA22DEC4E1
:101D7000E9F5DEC4EAF5DEC4EBF5DEC4ECF520EEF1
:101D80000AF0E151D926E251DA22DEC4EDF5DEC4D3
:101D9000EEF5DEC4EFF5DEC4F0F5E951ED5D0601C8
:101DA000006F0501EA51EE590601016F0501EB5183
:101DB000EF590601026F0501EC51F0590601036F5E
:101DC0000501E551E96FE651EA6FEB6BEC6BE95108
:101DD0000601005D0501EA51060101590501EB51BB
:101DE000060102590501EC5106010359D8B0FBEF79
:101DF0008EF0FDEF8EF001EF8FF000C6E5F501C625
:101E0000E6F50501E551E611D8A409EF8FF00BEFD7
:101E10008FF00DEF8FF044EF92F020EE10F0E151D3
:101E2000D926E251DA22FF0EDE14E96F010EDE142C
:101E3000EA6F000EDE14EB6F000EDE14EC6FE9515A
:101E4000EA11EB11EC11D8A428EF8FF02AEF8FF0F4
:101E5000CBEF91F020EE10F0E151D926E251DA22D9
:101E6000DEC4E9F5DEC4EAF5DEC4EBF5DEC4ECF56C
:101E70000A0E40EF8FF0D890EC33EB33EA33E933BE
:101E8000E82E3BEF8FF0060120EE0AF01551D9261F
:101E90001651DA22DEC4EDF5DDC4EEF5FF0E0501C4
:101EA000ED25EF6FFF0EEE21F06FE951EF15060102
:101EB0000B6F0501EA51F01506010C6F0B510C1167
:101EC000D8A465EF8FF067EF8FF0E8EF8FF0050192
:101ED00020EE10F0E151D926E251DA22DE50DE1078
:101EE000DE10DE10D8A477EF8FF079EF8FF089EF56
:101EF0008FF020EE06F0E151D926E251DA22DEC45D
:101F000005F6DEC406F6DEC407F6DEC408F6A5EF65
:101F10008FF0E1C5C7F5E2C5C8F520EE14F0E15138
:101F2000D926E251DA22DEC4C9F5DEC4CAF5DEC420
:101F3000CBF5DEC4CCF5FEECA6F0C7C505F6C8C5EA
:101F400006F6C9C507F6CAC508F606010851071105
:101F5000061107E1020E055DD8B0B1EF8FF0B3EFC7
:101F60008FF0BFEF8FF0050120EE0FF0E151D92681
:101F7000E251DA22020EDF6E020E45EF92F00529E1
:101F80000AE1062908E1072906E10829D8A4CBEFD0
:101F90008FF0CDEF8FF0D9EF8FF0050120EE0FF02D
:101FA000E151D926E251DA22010EDF6E010E45EF32
:101FB00092F0050120EE14F0E151D926E251DA2227
:101FC00005C6DEF406C6DEF407C6DEF408C6DEF497
:101FD00015C61DF516C61EF5050120EE14F0E151DB
:101FE000D926E251DA22DEC41FF5DEC420F5DEC4B4
:101FF00021F5DEC422F5C9ECE3F01DC511F61EC5BE
:1020000012F61FC513F620C514F606011151121160
:1020100013111411D8A40FEF90F011EF90F01CEFF2
:1020200090F0050120EE0FF0E151D926E251DA22BD
:10203000020EDF6EBCEF8FF00B5111270C511223F3
:10204000000E1323000E1423E5C5E9F5E6C5EAF5F5
:10205000090E0501EB6FD890EA33E933EB2F2BEF34
:1020600090F0E9C50DF6EAC50EF606010D510E1108
:10207000D8B43DEF90F03FEF90F027EF91F00D5185
:102080000B250501E96F06010E510C210501EA6FD0
:10209000060120EE0AF01551D9261651DA22050163
:1020A000E951DE5CEA51DE58D8B059EF90F05BEFB1
:1020B00090F070EF90F0060120EE0AF01551D9264D
:1020C0001651DA22DEC4E9F5DDC4EAF50B5105014B
:1020D000E95D06010D6F0C510501EA5906010E6F0D
:1020E00009C6A0F50AC6A1F511C6A2F512C6A3F548
:1020F00013C6A4F514C6A5F50DC6A6F50EC6A7F51C
:10210000060120EE01F01551D9261651DA22DF50D2
:10211000B7ECECF00009D8B490EF90F092EF90F0AB
:102120009DEF90F0050120EE0FF0E151D926E2512C
:10213000DA22010EDF6ED6EF8FF0050120EE0EF0F1
:10214000E151D926E251DA22DFAEA9EF90F0ABEFF0
:1021500090F015EF91F006010D510501E96F0601B0
:102160000E510501EA6FEB6BEC6B20EE18F0E151BC
:10217000D926E251DA22DEC4EDF5DEC4EEF5DEC486
:10218000EFF5DEC4F0F5060111510501ED5DF16FCB
:10219000060112510501EE59F26F060113510501B6
:1021A000EF59F36F060114510501F059F46FE9512D
:1021B000F15DEA51F259EB51F359EC51F459D8B0B1
:1021C000E4EF90F0E6EF90F015EF91F020EE18F0CC
:1021D000E151D926E251DA22DEC4E9F5DDC4EAF59F
:1021E000060111510501E95F060112510501EA5B83
:1021F000090ED890E937EA37E82EF9EF90F0E95167
:1022000006010925046E0501EA5106010A21056E41
:10221000220E0501E125066E000EE221076E020E78
:10222000096E000E086EB1ECF4F00DC6E9F50EC6AD
:10223000EAF5090ED8900501E937EA37E82E1AEFDA
:1022400091F0E9C50FF6EAC510F61EEF92F0050110
:1022500020EE18F0E151D926E251DA22060111519F
:10226000DE180FE11251DE180CE11351DE1809E1FE
:102270001451DE18D8B43FEF91F041EF91F0BCEF6C
:1022800091F0050120EE0EF0E151D926E251DA225B
:10229000DFAE4DEF91F04FEF91F08DEF91F0220E08
:1022A000E1259E6F000EE2219F6F20EE18F0E151B4
:1022B000D926E251DA22DEC4A0F5DEC4A1F5DEC4DF
:1022C000A2F5DEC4A3F5000EA56F010EA46F0601F2
:1022D00020EE01F01551D9261651DA22DF506AECB2
:1022E000ECF00009D8B477EF91F079EF91F084EF3A
:1022F00091F0050120EE0FF0E151D926E251DA22EA
:10230000010EDF6ED6EF8FF0050120EE0EF0E151E9
:10231000D926E251DA227F0EDF16220EE125A06FC8
:10232000000EE221A16F11C6A2F512C6A3F513C6D5
:10233000A4F514C6A5F5000EA76F010EA66F060141
:1023400020EE01F01551D9261651DA22DF50B7ECF4
:10235000ECF00009D8B4AFEF91F0B1EF91F0BCEF21
:1023600091F0050120EE0FF0E151D926E251DA2279
:10237000010EDF6ED6EF8FF0050120EE18F0E1516F
:10238000D926E251DA2211C6DEF412C6DEF413C6F3
:10239000DEF414C6DEF420EE10F0E151D926E2514D
:1023A000DA22DEC4E9F5DDC4EAF5FF0EE915EB6FCC
:1023B000010EEA15EC6FEB51000806010F6F0501E5
:1023C000EC51D8A0E82A02080601106F0F51050150
:1023D000E55D060110510501E659D8B0F2EF91F024
:1023E000F4EF91F0F8EF91F0E5C50FF6E6C510F6C1
:1023F00009C604F50AC605F520EE10F0E151D9260C
:10240000E251DA22DEC4E9F5DDC4EAF5FF0EE91592
:10241000EB6F010EEA15EC6FEB51E125ED6FEC511E
:10242000E221EE6F220EED25066E000EEE21076E04
:102430000FC608F510C609F5B1ECF4F006010F510E
:102440000501E55F060110510501E65BE7C5D9F41A
:10245000E8C5DAF406010F51DE261051DD220F51D6
:10246000092710510A23050120EE10F0E151D92669
:10247000E251DA2206010F51DE261051DE22000E53
:10248000DE22DE2201EF8FF0000E12000601A251C3
:10249000A311D8A44EEF92F050EF92F053EF92F0C8
:1024A000090E0DEF96F03F0EA617A40E0501F36F6F
:1024B000060EF46FC70EF56F060EF66FA6C6F7F59B
:1024C00000EC80F00601C96FC951D8A46AEF92F000
:1024D0006CEF92F0FDEF95F0C7C6CAF6C8C6CBF612
:1024E000CA0E296F060E2A6FA4C62BF6A5C62CF6B7
:1024F00051ECBCF00601C96FC951D8A482EF92F02B
:1025000084EF92F08DEF92F0F1AF89EF92F08BEFC4
:1025100092F08DEF92F0060EC96FA6C6A7F61C0EBC
:10252000A717D8B496EF92F098EF92F0B4EF93F02B
:10253000C951D8B49EEF92F0A0EF92F0B4EF92F0B0
:10254000040EC919D8A4A7EF92F0A9EF92F0B1EF49
:1025500092F0CA0E2D6F060E2E6F6FECE0F00601A2
:10256000C96FA687CCEF92F0CEC6A7F6110EA717BB
:10257000D8B4BDEF92F0BFEF92F0C3EF92F0070E28
:10258000C96FCCEF92F0A6A5C8EF92F0CAEF92F017
:10259000CCEF92F0080EC96FC951D8A4D2EF92F0D7
:1025A000D4EF92F0D7EF93F0A6A7D9EF92F0DBEF3C
:1025B00092F0D7EF93F0A0ECF8F004C5B3F605C5A0
:1025C000B4F606C5B5F607C5B6F60E0E0601E42547
:1025D000046E000EE521056EB3C606F5B4C607F518
:1025E000B5C608F5B6C609F59BECF1F0160E060166
:1025F000E425046E000EE521056EB3C606F5B4C6EB
:1026000007F5B5C608F5B6C609F59BECF1F0C7C6E7
:102610000BF5C8C60CF5E4C60DF5E5C60EF5B8EC2D
:10262000EFF00BC5B7F60CC5B8F60DC5B9F60EC57B
:10263000BAF6060120EE0BF0E451D926E551DA2274
:10264000200EDF6EC7C608F5C8C609F5E4C60AF550
:10265000E5C60BF5000E0C6E000E0D6E000E0E6E34
:10266000000E0F6ED9ECF4F01C0E0601E425046E8A
:10267000000EE521056E000E066E000E076E000EC0
:10268000086E000E096E9BECF1F0060120EE04F0DE
:10269000C751D926C851DA22010EDF6EB751B811E1
:1026A000B911BA11D8B457EF93F059EF93F0D7EFAF
:1026B00093F020EE2CF0C751D926C851DA22DEC49F
:1026C000BBF6DEC4BCF6DEC4BDF6DEC4BEF6CA0E82
:1026D0000501E86F060EE96FB7C6EAF5B8C6EBF577
:1026E000B9C6ECF5BAC6EDF5000EEE6F000EEF6F51
:1026F000000EF06F000EF16FFCECB8F00601C96F30
:10270000C951D8A486EF93F088EF93F0D7EF93F0F8
:10271000C7C6BCF5C8C6BDF5BBC6BEF5BCC6BFF5D1
:10272000BDC6C0F5BEC6C1F52FECE4F00601C96F09
:10273000FF0EB725A76FFF0EB821A86FFF0EB921B6
:10274000A96FFF0EBA21AA6F20EE0CF0C751D9264F
:10275000C851DA22A7C6DEF4A8C6DEF4A9C6DEF4A4
:10276000AAC6DEF4D7EF93F0C951D8A4BAEF93F01C
:10277000BCEF93F0D7EF93F0CEA9C1EF93F0C3EF86
:1027800093F0C7EF93F0040EC96FD7EF93F0A6A3B1
:10279000CCEF93F0CEEF93F0D7EF93F0CEA1D3EF41
:1027A00093F0D5EF93F0D7EF93F0070EC96FC951AF
:1027B000D8A4DDEF93F0DFEF93F005EF94F0A6A738
:1027C000E4EF93F0E6EF93F0E7EF93F0A68D20EEC1
:1027D0002CF0C751D926C851DA2210EE1CF0A251B4
:1027E000E126A351E222DEC4E6F4DEC4E6F4DEC450
:1027F000E6F4DEC4E6F420EE20F0A251D926A3517F
:10280000DA22E4C6DEF4E5C6DDF4C951D8A40BEF44
:1028100094F00DEF94F0FDEF95F0C7C60BF5C8C628
:102820000CF5E4C60DF5E5C60EF5B8ECEFF00601C3
:1028300020EE06F0A251D926A351DA220BC5DEF410
:102840000CC5DEF40DC5DEF40EC5DEF41C0EE42569
:10285000046E000EE521056E3EECE7F0060120EE69
:102860000AF0A251D926A351DA2204C5DEF405C527
:10287000DEF406C5DEF407C5DEF4A2C6D9F4A3C6AD
:10288000DAF4C7C6DEF4C8C6DDF420EE06F0C751A0
:10289000D926C851DA2210EE02F0A251E126A35146
:1028A000E222DEC4E6F4DDC4E5F420EE0EF0A2512F
:1028B000D926A351DA22A6C6DFF420EE0FF0A251EA
:1028C000D926A351DA22DF6A20EE18F0A251D926C8
:1028D000A351DA22DE6ADE6ADE6ADD6A20EE10F0DB
:1028E000A251D926A351DA22DE6ADE6ADE6ADD6AE7
:1028F000220EA225046E000EA321056E000E076EA7
:10290000000E066E020E096E000E086E4BECF6F01D
:102910000601A6AB8EEF94F090EF94F0FDEF95F0EA
:1029200020EE0AF0A251D926A351DA22DE50DE10A1
:10293000DE10DE10D8B49FEF94F0A1EF94F0FDEF1D
:1029400095F020EE0AF0A251D926A351DA2210EE1A
:1029500010F0A251E126A351E222DEC4E6F4DEC467
:10296000E6F4DEC4E6F4DEC4E6F420EE0AF0C75175
:10297000D926C851DA22DEC4A7F6DDC4A8F6A751CD
:10298000A96FA851AA6FAB6BAC6B090ED890A93791
:10299000AA37AB37AC37E82EC6EF94F0A9C6AFF62E
:1029A000AAC6B0F6ABC6B1F6ACC6B2F620EE06F0DB
:1029B000A251D926A351DA22DEC4C3F6DEC4C4F67E
:1029C000DEC4C5F6DEC4C6F620EE0AF0A251D92652
:1029D000A351DA22DEC4BFF6DEC4C0F6DEC4C1F6FF
:1029E000DEC4C2F632EF95F0A2C6C7F5A3C6C8F59D
:1029F000C3C6C9F5C4C6CAF5C5C6CBF5C6C6CCF5AF
:102A0000FEECA6F0C7C5C3F6C8C5C4F6C9C5C5F671
:102A1000CAC5C6F60601C651C511C41107E1020EAA
:102A2000C35DD8B016EF95F018EF95F01AEF95F05A
:102A3000020EC96FC3290AE1C42908E1C52906E1CC
:102A4000C629D8A426EF95F028EF95F02AEF95F047
:102A5000010EC96FAF51BF5FB051C05BB151C15BD7
:102A6000B251C25BC951D8A438EF95F03AEF95F056
:102A700049EF95F0BF51AF5DC051B059C151B15947
:102A8000C251B259D8A047EF95F049EF95F0F4EF55
:102A900094F020EE14F0A251D926A351DA22C3C635
:102AA000DEF4C4C6DEF4C5C6DEF4C6C6DEF4C95123
:102AB000D8A45DEF95F05FEF95F0FDEF95F0FF0E78
:102AC000BF15A76F010EC015A86F000EC115A96F25
:102AD000000EC215AA6FA751A811A911AA11D8B446
:102AE00074EF95F076EF95F0FDEF95F0C7C61DF504
:102AF000C8C61EF5C3C61FF5C4C620F5C5C621F558
:102B0000C6C622F5C9ECE3F01DC5BBF61EC5BCF672
:102B10001FC5BDF620C5BEF60601BB51BC11BD11D7
:102B2000BE11D8A496EF95F098EF95F09CEF95F034
:102B3000020EC96FFDEF95F0BFC6A7F6C0C6A8F696
:102B4000C1C6A9F6C2C6AAF60A0EACEF95F0D89097
:102B5000AA33A933A833A733E82EA7EF95F0BB51CA
:102B6000A725AB6FBC51A821AC6FBD51A921AD6F9A
:102B7000BE51AA21AE6F20EE18F0A251D926A35162
:102B8000DA22ABC6DEF4ACC6DEF4ADC6DEF4AEC609
:102B9000DEF4220EA2250501A06F000E0601A3217E
:102BA0000501A16F060120EE18F0A251D926A3510C
:102BB000DA22DEC4A2F5DEC4A3F5DEC4A4F5DEC4C9
:102BC000A5F5000E0501A76F010EA66F060120EE08
:102BD00001F0C751D926C851DA22DF50B7ECECF02A
:102BE0000009D8B4F6EF95F0F8EF95F0FDEF95F009
:102BF000010E0601C96FFDEF95F00601C951D8B469
:102C000004EF96F006EF96F00CEF96F0A2C6D9F41A
:102C1000A3C6DAF4DE6ADD6AC9511200E8C5D9F448
:102C2000E9C5DAF4DEC409F6DDC40AF60501EA51A5
:102C3000EB11EC11ED11D8A420EF96F022EF96F0F5
:102C40005BEF96F0060120EE0CF00951D9260A51EF
:102C5000DA22DEC401F6DEC402F6DEC403F6DEC408
:102C600004F60151021103110411D8B43AEF96F0A1
:102C70003CEF96F051EF96F020EE14F00951D92672
:102C80000A51DA22DE50015DDE500259DE5003594E
:102C9000DE500459D8A04FEF96F051EF96F0C1EFF7
:102CA00096F0010E016F000E026F000E036F000E12
:102CB000046FC1EF96F0E8C5C7F5E9C5C8F5EAC5E8
:102CC000C9F5EBC5CAF5ECC5CBF5EDC5CCF5FEEC09
:102CD000A6F0C7C50BF6C8C50CF6C9C50DF6CAC522
:102CE0000EF606010E510D110C1107E1020E0B5DDF
:102CF000D8B07DEF96F07FEF96F08AEF96F0010E58
:102D00000501E86F000EE96F000EEA6F000EEB6F31
:102D1000F6EF98F00B290AE10C2908E10D2906E1EC
:102D20000E29D8A496EF96F098EF96F0A2EF96F0C1
:102D30000BC6E8F50CC6E9F50DC6EAF50EC6EBF5CF
:102D4000F6EF98F020EE14F00951D9260A51DA2254
:102D5000DE500B5DDE500C59DE500D59DE500E5921
:102D6000D8B0B5EF96F0B7EF96F0B9EF96F098EFD0
:102D700096F0EAC501F6EBC502F6ECC503F6EDC523
:102D800004F620EE10F00951D9260A51DA22DE505D
:102D9000DE10DE10DE10D8A4D0EF96F0D2EF96F061
:102DA000DDEF96F0000E0501E86F000EE96F000EF2
:102DB000EA6F000EEB6FF6EF98F0000E056F000E55
:102DC000066F000E076F000E086F0501EA5106013D
:102DD000011913E10501EB51060102190EE105018C
:102DE000EC510601031909E10501ED510601041931
:102DF000D8A4FDEF96F0FFEF96F0A5EF97F0010E47
:102E00000125056F000E0221066F000E0321076FDA
:102E1000000E0421086F20EE14F00951D9260A5142
:102E2000DA22DE50055DDE500659DE500759DE50CD
:102E30000859D8A01EEF97F020EF97F028EF97F0F1
:102E4000020E056F000E066F000E076F000E086F72
:102E5000E8C5C7F5E9C5C8F505C6C9F506C6CAF58A
:102E600007C6CBF508C6CCF5FEECA6F0C7C50BF639
:102E7000C8C50CF6C9C50DF6CAC50EF606010B0588
:102E80000C110D110E11D8B448EF97F04AEF97F0DE
:102E900098EF96F00B290AE10C2908E10D2906E1CB
:102EA0000E29D8A456EF97F058EF97F05AEF97F005
:102EB00098EF96F00B510C110D110E11D8B463EF71
:102EC00097F065EF97F0A5EF97F020EE0CF0095121
:102ED000D9260A51DA22DEC40BF6DEC40CF6DEC4B3
:102EE0000DF6DEC40EF60E510D110C1109E1020EA5
:102EF0000B5DD8A07EEF97F080EF97F09DEF97F0F5
:102F000020EE14F00951D9260A51DA22DE500B5D69
:102F1000DE500C59DE500D59DE500E59D8B093EFEB
:102F200097F095EF97F09DEF97F00BC601F60CC662
:102F300002F60DC603F60EC604F6000E056F000E6F
:102F4000066F000E076F000E086F0551061107117E
:102F50000811D8A4AEEF97F0B0EF97F03DEF98F0DE
:102F600001C605F602C606F603C607F604C608F64D
:102F7000010E0527000E06230723082320EE14F078
:102F80000951D9260A51DA22DE50055DDE50065974
:102F9000DE500759DE500859D8A0D1EF97F0D3EF93
:102FA00097F0EAEF97F0020E056F000E066F000E25
:102FB000076F000E086F04510311021107E1020EA2
:102FC000015DD8B0E6EF97F0E8EF97F0EAEF97F001
:102FD000D2EF96F0E8C5C7F5E9C5C8F505C6C9F54D
:102FE00006C6CAF507C6CBF508C6CCF5FEECA6F0BA
:102FF000C7C50BF6C8C50CF6C9C50DF6CAC50EF691
:1030000006010B510C110D110E11D8A40AEF98F006
:103010000CEF98F00EEF98F03DEF98F00B050C11C7
:103020000D110E11D8B417EF98F019EF98F098EF32
:1030300096F00B290AE10C2908E10D2906E10E2979
:10304000D8A425EF98F027EF98F029EF98F098EFA3
:1030500096F0015105190DE1025106190AE10351DB
:10306000071907E104510819D8A439EF98F03BEF8C
:1030700098F0B8EF97F0D2EF96F009C6C7F50AC6F8
:10308000C8F505C6C9F506C6CAF507C6CBF508C614
:10309000CCF5FF0E0501CD6FFF0ECE6FFF0ECF6F8B
:1030A000FF0ED06FA5EC9BF00601006F0051D8A475
:1030B0005CEF98F05EEF98F082EF98F00501EA512E
:1030C000EB11EC11ED11D8B468EF98F06AEF98F0BD
:1030D00082EF98F009C6C7F50AC6C8F5EAC5C9F572
:1030E000EBC5CAF5ECC5CBF5EDC5CCF505C6CDF500
:1030F00006C6CEF507C6CFF508C6D0F5A5EC9BF001
:103100000601006F06010051D8A489EF98F08BEFFB
:1031100098F0D8EF98F020EE0CF00951D9260A511A
:10312000DA2205C6DEF406C6DEF407C6DEF408C6FB
:10313000DEF420EE10F00951D9260A51DA2210EE01
:1031400014F00951E1260A51E222FE0EE62405019F
:10315000F26FFF0EE620F36FFF0EE620F46FFF0E16
:10316000E620F56FDE50F25DDE50F359DE50F45983
:10317000DE50F559D8A0BFEF98F0C1EF98F0CDEF31
:1031800098F0060120EE10F00951D9260A51DA22F2
:10319000DE06000EDE5ADE5ADE5A060120EE05F08B
:1031A0000951D9260A51DA22000EDB80EEEF98F0A1
:1031B0000005D8B4DEEF98F0E0EF98F0EAEF98F071
:1031C000010E056F000E066F000E076F000E086FF0
:1031D000EEEF98F0056906690769086905C6E8F524
:1031E00006C6E9F507C6EAF508C6EBF5120034C5D0
:1031F000D9F435C5DAF4DEC4F6F4DDC4F7F4000E14
:10320000F86E0800F550250AD8A409EF99F00BEFE5
:1032100099F08EEF9BF034C5D9F435C5DAF4DE2A87
:10322000000EDD22000E0701196F000E186F18C77F
:103230005CF51A691B69406A3EEF99F05C8234C5FF
:10324000D9F435C5DAF4DE2A000EDD223EEF99F01E
:10325000010E406E3EEF99F034C5D9F435C5DAF46D
:10326000DEC4F6F4DDC4F7F4000EF86E0800F55085
:10327000300AD8B41EEF99F028EF99F04050D8B436
:1032800044EF99F046EF99F02CEF99F034C504F52E
:1032900035C505F536C506F537C507F563ECE3F02A
:1032A00004C518F705C519F7070119BF5CEF99F0B8
:1032B0005AEF99F061EF99F05C80186D191FD8B042
:1032C000192B34C5D9F435C5DAF4DEC4F6F4DDC4FF
:1032D000F7F4000EF86E0800F550630AD8A473EFF7
:1032E00099F075EF99F098EF99F034C5D9F435C598
:1032F000DAF4DE2A000EDD2236C5D9F437C5DAF459
:10330000DFC438F5020EDE26DFC439F5000EDD22FB
:1033100038C5D9F439C5DAF4DF50416E32C50EF53F
:1033200033C50FF541C510F594ECE4F0A4EF9BF024
:1033300034C5D9F435C5DAF4DEC442F5DDC443F54D
:1033400042C5F6F443C5F7F4000EF86E0800F5C464
:1033500041F5B6EF99F0424A432ACDEF99F0690E54
:10336000416ECDEF99F0416ACDEF99F04150580A86
:10337000D8B4AFEF99F03C0AD8B4AFEF99F00D0A8A
:10338000D8B4AFEF99F0050AD8B4ABEF99F0140AAE
:10339000D8B4AFEF99F0B3EF99F042C5F6F443C556
:1033A000F7F4000EF86E0800F550640AD8B4DBEFAD
:1033B00099F0DDEF99F024EF9AF042C5F6F443C599
:1033C000F7F4000EF86E0800F550690AD8A4EBEF88
:1033D00099F0EDEF99F04DEF9AF024EF9AF036C5A1
:1033E000D9F437C5DAF4DFC438F5020EDE26DFC4BF
:1033F00039F5000EDD2238C5D9F439C5DAF4DEC45A
:103400003CF5DDC43DF5000E3DBEFF0E3E6E3F6E49
:103410002FEF9AF036C5D9F437C5DAF4DFC438F5A2
:10342000040EDE26DFC439F5000EDD2238C5D9F4DE
:1034300039C5DAF4DEC43CF5DEC43DF5DEC43EF544
:10344000DEC43FF52FEF9AF04150690AD8B4EFEF90
:1034500099F0050AD8B40AEF9AF02FEF9AF0010E0E
:103460004224386E000E4320396E34C5D9F435C578
:10347000DAF438C5DEF439C5DDF432C51EF533C5DE
:103480001FF53CC520F53DC521F53EC522F53FC5DC
:1034900023F567ECC8F0A4EF9BF042C5F6F443C5F2
:1034A000F7F4000EF86E0800F550780AD8B45BEF18
:1034B0009AF05DEF9AF0A5EF9AF042C5F6F443C595
:1034C000F7F4000EF86E0800F550580AD8A46BEF18
:1034D0009AF06DEF9AF0EBEF9AF0A5EF9AF036C5FF
:1034E000D9F437C5DAF4DFC438F5020EDE26DFC4BE
:1034F00039F5000EDD2238C5D9F439C5DAF4DEC459
:103500003AF5DDC43BF53AC53CF53BC53DF53E6AB1
:103510003F6AB0EF9AF036C5D9F437C5DAF4DFC4A4
:1035200038F5040EDE26DFC439F5000EDD2238C57D
:10353000D9F439C5DAF4DEC43CF5DEC43DF5DEC4A9
:103540003EF5DEC43FF5B0EF9AF04150690AD8B4B9
:103550006FEF9AF0050AD8B48BEF9AF0B0EF9AF0BB
:10356000010E4224386E000E4320396E34C5D9F462
:1035700035C5DAF438C5DEF439C5DDF4D9EF9AF093
:1035800032C51EF533C51FF53CC520F53DC521F5F7
:103590003EC522F53FC523F542C5F6F443C5F7F411
:1035A000000EF86E0800F5C424F53AECD4F0A4EF50
:1035B0009BF042C5F6F443C5F7F4000EF86E080020
:1035C000F550580AD8B4C0EF9AF0200AD8B4C0EF2A
:1035D0009AF0EBEF9AF0406A34C5D9F435C5DAF4C5
:1035E000DEC4F6F4DDC4F7F4000EF86E0800F55002
:1035F000730AD8A4FEEF9AF000EF9BF00BEF9BF05C
:1036000034C5D9F435C5DAF4DE2A000EDD22010E08
:10361000406E61EF9BF034C5D9F435C5DAF4DEC4F1
:10362000F6F4DDC4F7F4000EF86E0800F5506C0AED
:10363000D8A41DEF9BF01FEF9BF061EF9BF034C50A
:10364000D9F435C5DAF4DEC438F5DDC439F5010E38
:103650003826000E392238C5F6F439C5F7F4000EC5
:10366000F86E0800F5506C0AD8A439EF9BF03BEFD8
:103670009BF061EF9BF034C5D9F435C5DAF4DEC4B4
:1036800038F5DDC439F5020E3826000E392238C56A
:10369000F6F439C5F7F4000EF86E0800F550730A19
:1036A000D8A455EF9BF057EF9BF061EF9BF0030E12
:1036B00034C5D9F435C5DAF4DE26000EDD2207EF75
:1036C0009BF04050D8B467EF9BF069EF9BF085EF1B
:1036D0009BF032C50EF533C50FF536C5D9F437C5A5
:1036E000DAF4DFC438F5020EDE26DFC439F5000E49
:1036F000DD2238C5D9F439C5DAF4DEC410F5DDC4ED
:1037000011F525ECD0F0A4EF9BF034C5D9F435C504
:10371000DAF4DE2A000EDD22A4EF9BF034C5D9F4E2
:1037200035C5DAF4DEC4F6F4DDC4F7F4000EF86E45
:103730000800F550056E066A32C507F533C508F571
:10374000F9ECE4F085EF9BF01200020E0501E76F43
:10375000CC51CB11CA1109E1020EC95DD8A0B3EF5B
:103760009BF0B5EF9BF019EF9EF020EE14F0C751DF
:10377000D926C851DA22DE50C95DDE50CA59DE5062
:10378000CB59DE50CC59D8B0C8EF9BF0CAEF9BF0B4
:1037900019EF9EF006EF9EF0C9C5E5F5CAC5E6F53E
:1037A000D890E631D26FE531D16FD151E527D251B2
:1037B000E623C7C5BCF5C8C5BDF520EE20F0C7514E
:1037C000D926C851DA22DEC4D1F5DEC4D2F5DEC472
:1037D000D3F5DEC4D4F5E5C5D5F5E6C5D6F5090EB5
:1037E000D76FD890D633D533D72FF1EF9BF0D55183
:1037F000D125BE6FD651D221BF6F000ED321C06F2D
:10380000000ED421C16F2FECE4F00501E76FE75102
:10381000D8B40DEF9CF00FEF9CF011EF9CF019EF76
:103820009EF0FF0EE515D16F010EE615D26FD15156
:10383000C725D36FD251C821D46F300ED325E36F83
:10384000000ED421E46FE54BE62BC9B12AEF9CF0C2
:103850002CEF9CF031EF9CF0CDC5DFF5E06B4BEF2A
:103860009CF0CD51D16FD26BD13BD23BF00ED21731
:10387000D1510F0BD213F00ED117E3C5D9F4E4C523
:10388000DAF4DF500F0BD36FD46BD151D311DF6F4C
:10389000D251D411E06FE3C5D9F4E4C5DAF4DFC541
:1038A000DFF420EE04F0C751D926C851DA22010E08
:1038B000DF6EC7C5BCF5C8C5BDF520EE20F0C75109
:1038C000D926C851DA22DEC4D1F5DEC4D2F5DEC471
:1038D000D3F5DEC4D4F5E5C5D5F5E6C5D6F5090EB4
:1038E000D76FD890D633D533D72F71EF9CF0D55101
:1038F000D125BE6FD651D221BF6F000ED321C06F2C
:10390000000ED421C16F2FECE4F00501E76FE75101
:10391000D8B48DEF9CF08FEF9CF091EF9CF019EFF5
:103920009EF0FF0EE515D16F010EE615D26FD15155
:10393000C725D36FD251C821D46F300ED325E36F82
:10394000000ED421E46FC9B1A8EF9CF0AAEF9CF05F
:10395000C8EF9CF0CDC5D1F5CEC5D2F5CFC5D3F516
:10396000D0C5D4F5D2C5D1F5D3C5D2F5D4C5D3F5DC
:10397000D46B0F0ED117E3C5D9F4E4C5DAF4DF50E8
:10398000F00BD111D56FD551E16FE26BDEEF9CF0FA
:10399000CDC5D1F5CEC5D2F5CFC5D3F5D0C5D4F5BB
:1039A000050ED8EF9CF0D890D433D333D233D13333
:1039B000E82ED3EF9CF0D151E16FE26BE3C5D9F46F
:1039C000E4C5DAF4E1C5DFF420EE04F0C751D926EE
:1039D000C851DA22010EDF6E19EF9EF0C7C5BCF5A3
:1039E000C8C5BDF520EE20F0C751D926C851DA224E
:1039F000DEC4D1F5DEC4D2F5DEC4D3F5DEC4D4F521
:103A0000C9C5D5F5CAC5D6F5CBC5D7F5CCC5D8F54A
:103A1000D6C5D5F5D7C5D6F5D8C5D7F5D86BD1510C
:103A2000D525BE6FD251D621BF6FD351D721C06FDC
:103A3000D451D821C16F2FECE4F00501E76FE751B5
:103A4000D8B425EF9DF027EF9DF029EF9DF019EFF9
:103A50009EF0C9C5D1F5CAC5D2F5D890D137D237B5
:103A6000FF0ED115D36F010ED215D46FD351C725D8
:103A7000D56FD451C821D66F300ED525046E000EF7
:103A8000D621056ECDC506F5CEC507F549ECF7F094
:103A9000050120EE04F0C751D926C851DA22010EE3
:103AA000DF6E19EF9EF0C7C5BCF5C8C5BDF520EEA9
:103AB00020F0C751D926C851DA22DEC4D1F5DEC4C0
:103AC000D2F5DEC4D3F5DEC4D4F5C9C5D5F5CAC573
:103AD000D6F5CBC5D7F5CCC5D8F5080E75EF9DF05A
:103AE000D890D833D733D633D533E82E70EF9DF046
:103AF000D151D525BE6FD251D621BF6FD351D72119
:103B0000C06FD451D821C16F2FECE4F00501E76FED
:103B1000E751D8B48EEF9DF090EF9DF092EF9DF0BD
:103B200019EF9EF0C9C5D1F5CAC5D2F5D890D137E5
:103B3000D237D890D137D237FF0ED115D36F010EBF
:103B4000D215D46FD351C725D56FD451C821D66FA4
:103B5000300ED525046E000ED621056E3EECE7F042
:103B6000000E04140501D76F000E0514D86F000E67
:103B70000614D96FF00E0714DA6FFF0ECD15DB6F48
:103B8000FF0ECE15DC6FFF0ECF15DD6F0F0ED015BB
:103B9000DE6FD751DB11CD6FD851DC11CE6FD9510B
:103BA000DD11CF6FDA51DE11D06FC9C5D1F5CAC5AD
:103BB000D2F5D890D137D237D890D137D237FF0E3F
:103BC000D115D36F010ED215D46FD351C725D56F40
:103BD000D451C821D66F300ED525046E000ED621E3
:103BE000056ECDC506F5CEC507F5CFC508F5D0C520
:103BF00009F59BECF1F0050120EE04F0C751D92640
:103C0000C851DA22010EDF6E19EF9EF0C7C5D9F454
:103C1000C8C5DAF4DF50010AD8B4CCEF9BF0030A30
:103C2000D8B4EEEF9CF0010AD8B453EF9DF019EF31
:103C30009EF0E7511200000E07017D6F000E7C6FB1
:103C4000000E3B6F000E3A6F406B3E6B3F6BFBEC20
:103C5000DFF0000E056E050E046EA8ECDBF099ECAB
:103C6000EDF0A90E4C6EFE0E4D6EA50E4E6EFA0EC8
:103C70004F6E5DECF7F0C8ECF7F073ECF0F012EC7F
:103C8000F6F095ECEAF062C52CF763C52DF791ECE0
:103C9000B6F089ECF4F00601AFBF53EF9EF051EFA0
:103CA0009EF055EF9EF053EF9EF018ECAEF006013B
:103CB000F3BF5FEF9EF05DEF9EF081EF9EF05FEF50
:103CC0009EF0F90E7A25D76FFF0E7B21D86F7AC749
:103CD00004F57BC705F5A8ECDBF0A4EF9EF0000E21
:103CE000D86F040ED76F67EF9EF0000ED86F050EE9
:103CF000D76F67EF9EF0000ED86F000ED76FA4EF5E
:103D00009EF07AC7D1F77BC7D2F70701D251000ADC
:103D1000D8B48DEF9EF07BEF9EF0D151080AD8B455
:103D200061EF9EF0010AD8B461EF9EF0030AD8B4A7
:103D300061EF9EF0060AD8B46FEF9EF01C0AD8B46B
:103D400075EF9EF07BEF9EF0220E4C6EFE0E4D6ED8
:103D5000D8900701D735D96ED835DA6E5C0ED926E2
:103D6000080EDA22DEC44EF5DDC44FF55DECF7F047
:103D7000CDECF8F0000E07015F6F000E5E6F000ED5
:103D8000616F000E606F000ED66F010ED56F000ED2
:103D9000396F000E386F9D0E4C6EFE0E4D6E5DEC51
:103DA000F7F0C80E4C6EFC0E4D6E5DECF7F0720E27
:103DB0004C6EFC0E4D6E5DECF7F05C0E4C6EFC0E26
:103DC0004D6E5DECF7F0240E4C6EFB0E4D6E5DEC0F
:103DD000F7F0040E4C6EFF0E4D6E5DECF7F0000E2A
:103DE0004C6EFC0E4D6E5DECF7F0910E4C6EFE0EBF
:103DF0004D6E5DECF7F0D90E4C6EFE0E4D6E5DEC27
:103E0000F7F0FB0E4C6EFF0E4D6E5DECF7F024EC00
:103E1000F5F004C5D7F705C5D8F7D00E0701D725AB
:103E2000D36FFF0ED821D46FD45107E1080ED35DB4
:103E3000D8B01DEF9FF01FEF9FF02CEF9FF0D751F0
:103E40007AECF8F0080E7AECF8F0D00E0701D725DE
:103E5000D56FFF0ED821D66F0D0ED719D811D8B453
:103E600034EF9FF036EF9FF040EF9FF00A0ED71926
:103E7000D811D8A43EEF9FF040EF9FF007EF9FF0DE
:103E80008C0E4C6EF40E4D6E5DECF7F01C0E0701BF
:103E9000156F650E166F010E176F000ED86F000EAE
:103EA000D76F7CC73AF77DC73BF71CEFA0F0B8ECA3
:103EB000A2F0BAEF9EF06A0E0601F26FFE0EF36FEB
:103EC00078C704F579C705F576C706F577C707F50E
:103ED0009FECF6F004C5F4F605C5F5F606C5F6F652
:103EE00007C5F7F663ECCCF0F2C6D7F7F3C6D8F700
:103EF00046EFA0F0770E0601F86FFE0EF96FABECFF
:103F0000DCF0F8C6D7F7F9C6D8F746EFA0F05D0E9B
:103F10000601F86FFE0EF96FABECDCF0F8C6D7F7D0
:103F2000F9C6D8F746EFA0F0CD0E0601F86FFE0EE9
:103F3000F96FABECDCF0F8C6D7F7F9C6D8F746EF67
:103F4000A0F0C10E0601F86FFE0EF96FABECDCF0CD
:103F5000F8C6D7F7F9C6D8F746EFA0F0780E0601F5
:103F6000A96FFF0EAA6F4CECD7F00601A951AA1158
:103F7000D8B4BDEF9FF0BFEF9FF0C1EF9FF0BAEF55
:103F80009EF0000EF36F010EF26F3CECBBF00601E9
:103F9000F3BFCFEF9FF0CDEF9FF0D7EF9FF0F20E82
:103FA0004C6EFC0E4D6E5DECF7F0BAEF9EF048ECF7
:103FB000C3F00601F851F911D8B4E1EF9FF0E3EF37
:103FC0009FF046EFA0F0BAEF9EF0810E0601A96FB8
:103FD000FF0EAA6F4CECD7F00601A951AA11D8B474
:103FE000F4EF9FF0F6EF9FF0F8EF9FF0BAEF9EF03E
:103FF000000EF36F020EF26F3CECBBF00601F3BF54
:1040000006EFA0F004EFA0F00EEFA0F0F20E4C6E61
:10401000FC0E4D6E5DECF7F0BAEF9EF0D3ECB7F00E
:104020000601F851F911D8B418EFA0F01AEFA0F07A
:1040300046EFA0F0BAEF9EF0D5C7D1F7D6C7D2F7BA
:10404000D251000AD8B427EFA0F0E5EF9FF0D1518C
:10405000000AD8B457EF9FF0010AD8B45BEF9FF085
:10406000030AD8B47AEF9FF0010AD8B487EF9FF023
:10407000070AD8B494EF9FF0010AD8B4A1EF9FF0DB
:10408000030AD8B4AEEF9FF0E5EF9FF00701D751D8
:10409000D811D8B44EEFA0F050EFA0F058EFA0F038
:1040A000050E4C6EFA0E4D6E5DECF7F0BAEF9EF019
:1040B0008C0E4C6EF40E4D6E5DECF7F0D9ECF8F012
:1040C00049ECF5F0CFECEBF0DCECF8F0BAEF9EF059
:1040D00085EF00F0336A000E346E000E356E000E70
:1040E000366E000E376E1DC538F51EC539F522BE79
:1040F00085EFA0F0225007E1250E215CD8B083EFB8
:10410000A0F085EFA0F08EEFA0F021042210D8A43B
:104110008CEFA0F08EEFA0F095EFA0F0000E07015D
:104120001D6F160E1C6F93EFA2F038503910D8B4E3
:104130009CEFA0F09EEFA0F093EFA2F038C5D9F469
:1041400039C5DAF4DF50D8A4A8EFA0F0AAEFA0F0A8
:10415000ACEFA0F093EFA2F038C5D9F439C5DAF48A
:10416000DF503A6EBCEFA0F0384A392A38C5D9F48E
:1041700039C5DAF4DF503A6E200E3A18D8B4C3EFDE
:10418000A0F0C5EFA0F0B4EFA0F03AC524F5F70E0B
:104190002426040E2464CFEFA0F0D1EFA0F0B4EFFA
:1041A000A0F02D0E3A18D8A4D8EFA0F0DAEFA0F0C6
:1041B000E6EFA0F0010E336E384A392A38C5D9F43B
:1041C00039C5DAF4DF503A6EF1EFA0F02B0E3A1851
:1041D000D8A4EDEFA0F0EFEFA0F0F1EFA0F0DCEF4E
:1041E000A0F0300E3A18D8A4F8EFA0F0FAEFA0F043
:1041F00093EFA1F0384A392A38C5D9F439C5DAF431
:10420000DF503A6E21502210D8B409EFA1F00BEF25
:10421000A1F015EFA1F0100E21182210D8A413EF71
:10422000A1F015EFA1F085EFA1F0780E3A18D8B4FF
:104230001CEFA1F01EEFA1F027EFA1F0580E3A18E5
:10424000D8A425EFA1F027EFA1F085EFA1F0000E93
:10425000226E100E216E384A392A38C5D9F439C574
:10426000DAF4DF503A6E3AC524F5200E24129F0E80
:1042700024261A0E24603FEFA1F041EFA1F065EF74
:10428000A1F03AC524F59F0E2426190E24644BEFA5
:10429000A1F04DEFA1F052EFA1F03AC52BF52C6A39
:1042A00059EFA1F03AC524F55F0E241624502B6E69
:1042B0002C6A2BC524F5C90E2426100E246063EF4A
:1042C000A1F065EFA1F07FEFA1F03AC524F5200E33
:1042D00024129F0E2426190E246471EFA1F073EFAF
:1042E000A1F093EFA1F03AC524F5D00E2426090ED3
:1042F00024647DEFA1F07FEFA1F093EFA1F0338470
:104300003806D8A0390693EFA2F03384215022104A
:10431000D8A48DEFA1F08FEFA1F093EFA1F0000EE4
:10432000226E080E216E21502210D8A49AEFA1F01F
:104330009CEFA1F0A0EFA1F0000E226E0A0E216EFC
:104340002350D8B4A6EFA1F0A8EFA1F0C3EFA1F0DD
:1043500033B0ADEFA1F0AFEFA1F0B9EFA1F0FF0ED8
:104360002F6EFF0E306EFF0E316E7F0E326EC7EF76
:10437000A1F0000E2F6E000E306E000E316E800E1A
:10438000326EC7EFA1F02F6830683168326834C5EB
:1043900027F535C528F536C529F537C52AF53AC5B7
:1043A00024F5200E24129F0E24261A0E2460DBEF23
:1043B000A1F0DDEFA1F0FAEFA1F03AC524F59F0ED0
:1043C0002426190E2464E7EFA1F0E9EFA1F0EEEF47
:1043D000A1F03AC52DF52E6AF5EFA1F03AC524F506
:1043E0005F0E241624502D6E2E6A2D50C90F3A6E82
:1043F00008EFA2F03AC524F5D00E24260A0E246058
:1044000004EFA2F006EFA2F081EFA2F0300E3A5EC8
:104410003A50246E256A2150245C2550800A266E6D
:104420002250800A2658D8A018EFA2F01AEFA2F066
:104430001CEFA2F081EFA2F033B221EFA2F023EF44
:10444000A2F076EFA2F021C511F522C512F5000EFB
:1044500012BEFF0E136E146E34C515F535C516F574
:1044600036C517F537C518F5D1ECF1F03A501124DF
:10447000346E000E1220356E000E1320366E000EC4
:104480001420376E2750345C285035582950365840
:104490002A503758D8A04FEFA2F051EFA2F068EFA2
:1044A000A2F02350D8B457EFA2F059EFA2F076EF64
:1044B000A2F034502F5C35503058365031583750B8
:1044C0003258D8B066EFA2F068EFA2F076EFA2F013
:1044D0002FC534F530C535F531C536F532C537F55C
:1044E000000E07011D6F220E1C6F3382384A392AD5
:1044F00038C5D9F439C5DAF4DF503A6E3384C7EFE2
:10450000A1F03350030BE806D8A489EFA2F08BEF9B
:10451000A2F093EFA2F0371E361E351E346C000E4B
:104520003522362237221F502010D8B49AEFA2F03D
:104530009CEFA2F0AFEFA2F033B4A1EFA2F0A3EF93
:10454000A2F0A7EFA2F01DC538F51EC539F51FC5AD
:10455000D9F420C5DAF438C5DEF439C5DDF434C544
:104560001DF535C51EF536C51FF537C520F51200FA
:104570000501706B58C70FF559C710F5770E116E0E
:10458000050E126E730E136E050E146E750E156EFB
:10459000050E166EB5ECD6F00501785109E1500E06
:1045A000775DD8A0D6EFA2F0D8EFA2F0DEEFA2F0B0
:1045B0006C0E7727070E7823E2EFA2F0D00E772754
:1045C000070E7823170E4C6EFC0E4D6E77C54EF518
:1045D00078C54FF573C550F574C551F575C552F5DD
:1045E00076C553F55DECF7F0DA0E0501716F1A0E22
:1045F000726F71C562F572C563F5000E656F500E7E
:10460000646FFBECD8F0050162516311D8B40BEF75
:10461000A3F00DEFA3F0DBEFA3F071C50FF572C5AA
:1046200010F5790E116E050E126E7D0E136E050ECD
:10463000146E7B0E156E050E166E9CECDEF00F50A0
:104640001010D8B426EFA3F028EFA3F030EFA3F0BA
:10465000080E4C6EFB0E4D6E5DECF7F0E2EFA2F033
:10466000BC0E0501795D070E7A59D8A03AEFA3F088
:104670003CEFA3F047EFA3F0200E795D080E7A59C6
:10468000D8A045EFA3F047EFA3F04FEFA3F0080E3B
:104690004C6EFB0E4D6E5DECF7F0E2EFA2F07E513A
:1046A00007E10D0E7D5DD8B058EFA3F05AEFA3F0EF
:1046B00063EFA3F07D517E11D8A461EFA3F063EF07
:1046C000A3F06BEFA3F0080E4C6EFB0E4D6E5DEC8D
:1046D000F7F0E2EFA2F0020E7D197E11D8A473EF7D
:1046E000A3F075EFA3F098EFA3F01D0E7B197C11DA
:1046F000D8A47DEFA3F07FEFA3F098EFA3F079C5E6
:1047000009F57AC50AF56DECEEF009500A10D8B437
:104710008CEFA3F08EEFA3F090EFA3F0CCEFA3F01B
:10472000080E4C6EFB0E4D6E5DECF7F0E2EFA2F062
:104730007DC56CF57EC56DF5D8906C376D37FE0E76
:104740006C256E6FFF0E6D216F6FFD0E6E25F66E80
:10475000F30E6F21F76EF86A000EF8227B51090004
:10476000F55C7C510900F558D8A0B9EFA3F0BBEF78
:10477000A3F0C4EFA3F07B517C11D8A4C2EFA3F047
:10478000C4EFA3F0CCEFA3F0080E4C6EFB0E4D6E01
:104790005DECF7F0E2EFA2F079C577F57AC578F530
:1047A0007DC573F57EC574F57BC575F57CC576F55D
:1047B000010E0501706F5BC779F57A6B5AC77DF5FD
:1047C0007E6B5DC77BF57C6B2E0E4C6EFC0E4D6ECA
:1047D0005BC74EF54F6A5AC750F5516A5DC752F52F
:1047E000536A5DECF7F0DA0E0501716F1A0E726F05
:1047F00071C562F572C563F5000E656F500E646F8A
:10480000FBECD8F0050162516311D8B40AEFA4F0B3
:104810000CEFA4F076EFA4F071C50FF572C510F59A
:10482000790E116E050E126E7D0E136E050E146E4E
:104830007B0E156E050E166E9CECDEF00F50101000
:10484000D8B425EFA4F027EFA4F02FEFA4F0080EC2
:104850004C6EFB0E4D6E5DECF7F0E4EFA3F005013E
:104860007A5109E1180E795DD8A039EFA4F03BEF39
:10487000A4F043EFA4F0080E4C6EFB0E4D6E5DEC01
:10488000F7F0E4EFA3F07E5109E13C0E7D5DD8A086
:104890004CEFA4F04EEFA4F056EFA4F0080E4C6ECF
:1048A000FB0E4D6E5DECF7F0E4EFA3F07C5109E1F7
:1048B0003C0E7B5DD8A05FEFA4F061EFA4F069EF40
:1048C000A4F0080E4C6EFB0E4D6E5DECF7F0E4EFBD
:1048D000A3F0A19E79C55BF77DC55AF77BC55DF74F
:1048E00039ECF2F0A18E010E0501706F7051D8B451
:1048F0007CEFA4F07EEFA4F0DBEFA4F077C515F514
:1049000078C516F573C517F574C518F575C519F58D
:1049100076C51AF5BFECE1F015C558F716C559F77D
:1049200007012C512D11D8B498EFA4F09AEFA4F000
:10493000B7EFA4F039ECF2F0000E046E070E056E2E
:10494000510E066E070E076ED00E04ECEDF0FF0A56
:10495000D8A4ADEFA4F0AFEFA4F0B7EFA4F0F20E3F
:104960004C6EFA0E4D6E5DECF7F0DBEFA4F0780EB6
:104970004C6EF90E4D6E77C54EF578C54FF573C583
:1049800050F574C551F575C552F576C553F55DEC16
:10499000F7F0EA0E4C6EF90E4D6E79C54EF57AC5FC
:1049A0004FF57DC550F57EC551F57BC552F57CC5EB
:1049B00053F55DECF7F01200F6C5D9F4F7C5DAF45B
:1049C000DEC41FF6DDC420F6050120EE0EF0F65120
:1049D000D926F751DA22DEC40FF6DEC410F6DEC4A3
:1049E00011F6DEC412F6200E06010F251B6F000E15
:1049F00010211C6F000E11211D6F000E12211E6F61
:104A00001E5109E1200E1D5DD8A009EFA5F00BEFA6
:104A1000A5F016EFA5F0050120EE16F0F651D92607
:104A2000F751DA22DE6ADE6ADE6ADD6A050120EE0F
:104A300016F0F651D926F751DA22DE50DE10DE10DC
:104A4000DE10D8A426EFA5F028EFA5F02BEFA5F0F7
:104A5000040EFDEFA6F0FF0E06011B150F6F010EF1
:104A60001C15106F000E1D15116F000E1E15126F14
:104A70000F51101111111211D8A441EFA5F043EFFD
:104A8000A5F0D1EFA6F0050120EE16F0F651D926DB
:104A9000F751DA22DE2A000EDE22DE22DE2220EEAE
:104AA00012F0F651D926F751DA22DE50DE10DE1070
:104AB000DE10D8A45EEFA5F060EFA5F0A0EFA5F0A2
:104AC000060120EE08F01F51D9262051DA22DEC45B
:104AD0000FF6DDC410F60F51116F1051126F136BEA
:104AE000146B1BC615F61CC616F61DC617F61EC699
:104AF00018F6060E81EFA5F0D89018331733163349
:104B00001533E82E7CEFA5F01151155D12511659A1
:104B10001351175914511859D8A091EFA5F093EFDC
:104B2000A5F0D1EFA6F0050120EE16F0F651D9263A
:104B3000F751DA22DE6ADE6ADE6ADD6A28EFA5F066
:104B4000060120EE0AF01F51D9262051DA22DEC4D8
:104B50000FF6DDC410F6FF0E0F25116FFF0E1021AA
:104B6000126F1BC613F61CC614F61DC615F61EC61C
:104B700016F60A0EC1EFA5F0D8901633153314338C
:104B80001333E82EBCEFA5F011511315176F125116
:104B90001415186F000E1515196F000E16151A6FE3
:104BA0001751181119111A11D8A4D9EFA5F0DBEF7C
:104BB000A5F0D1EFA6F0F6C5C7F5F7C5C8F5050114
:104BC00020EE12F0F651D926F751DA22DEC4C9F5EB
:104BD000DEC4CAF5DEC4CBF5DEC4CCF5FEECA6F02F
:104BE000C7C521F6C8C522F6C9C523F6CAC524F62D
:104BF000060124512311221107E1020E215DD8B0D4
:104C000004EFA6F006EFA6F009EFA6F0020EFDEF06
:104C1000A6F021290AE1222908E1232906E1242915
:104C2000D8A415EFA6F017EFA6F01AEFA6F0010E24
:104C3000FDEFA6F020EE14F01F51D9262051DA2204
:104C4000DE50215DDE502259DE502359DE502459BA
:104C5000D8A02DEFA6F02FEFA6F0A5EFA6F0050146
:104C6000F851F911D8A437EFA6F039EFA6F045EFC7
:104C7000A6F020EE16F0F651D926F751DA22DE6AB8
:104C8000DE6ADE6ADD6A28EFA5F0F6C5E8F5F7C54D
:104C9000E9F520EE12F0F651D926F751DA22DEC4FA
:104CA000EAF5DEC4EBF5DEC4ECF5DEC4EDF50EECA2
:104CB00096F0E8C521F6E9C522F6EAC523F6EBC56C
:104CC00024F606012151221123112411D8A46BEFDF
:104CD000A6F06DEFA6F070EFA6F0070EFDEFA6F0C0
:104CE0002105221123112411D8A479EFA6F07BEF1E
:104CF000A6F07DEFA6F006EFA6F021290AE1222911
:104D000008E1232906E12429D8A489EFA6F08BEF36
:104D1000A6F08DEFA6F017EFA6F01FC6BCF520C6D3
:104D2000BDF521C6BEF522C6BFF523C6C0F524C613
:104D3000C1F592ECD3F00009D8B4A1EFA6F0A3EF2F
:104D4000A6F0A5EFA6F017EFA6F0050120EE12F0F1
:104D5000F651D926F751DA2221C6DEF422C6DEF456
:104D600023C6DEF424C6DEF41FC61DF520C61EF5DC
:104D700021C61FF522C620F523C621F524C622F53B
:104D8000C9ECE3F0050120EE16F0F651D926F751F3
:104D9000DA221DC5DEF41EC5DEF41FC5DEF420C513
:104DA000DEF4050120EE0EF0F651D926F751DA2295
:104DB0001BC6DEF41CC6DEF41DC6DEF41EC6DEF421
