:0400000085EF00F098
:10000800F87BF87BF87BF87BF87BF87BF87BF87B50
:10001800F87BF87BF87BF87BF87BF87BF87BF87B40
:10002800F87BF87BF87BF87BF87BF87BF87BF87B30
:10003800F87BF87BF87BF87BF87BF87BF87B867796
:10004800F87BF87BF87BF87BF87BF87BF87BF87B10
:10005800F87BF87BF87BF87BF87BF87BF87BF87B00
:10006800F87BF87BF87BF87BF87BF87BF87BF87BF0
:10007800F87BF87BF87BF87B4200F87BF87BF87B11
:10008800F87BF87BF87BF87BF87BF87BF87BF87BD0
:100098001B78F87BF87BF87B4200727BF87BF87B57
:1000A800F87BF87BF87BF87BF87BF87BF87BF87BB0
:1000B800F87BF87BF87BF87BF87BF87BF87BF87BA0
:1000C800F87BF87BF87BF87BF87BF87BF87BF87B90
:1000D800F87BF87BF87BF87BF87BF87BF87BF87B80
:1000E8004200F87BF87BF87BF87BF87BF87BF87BA1
:1000F800F87BF87BF87BF87BF87BF87BF87BF87B60
:06010800FF0033EFE9F0F7
:10F3FC00001F001C001F001E001F001E001F001F0E
:10F40C00001E001F001E001F00819FE0FC407E803C
:10F41C00FC0000576172726E696E6721205345546F
:10F42C0020495251204F46462E20436865636B207D
:10F43C0062696E6172727920636F646520616E64BB
:10F44C002025732066696C652E0D0A0053442043F9
:10F45C006172643A20726561643531323A204352EC
:10F46C0043206572726F7220282530347820213D3C
:10F47C0020253034782C2072657472793D256429EE
:10F48C000A0D00496D6167652066696C65202573FE
:10F49C002F445249564525632E44534B2069732003
:10F4AC0061737369676E656420746F20647269762A
:10F4BC00652025630A0D006469736B5F696F637463
:10F4CC006C3A20706472763D25642C20636D643D2B
:10F4DC0025642C20627566663D3078256C783A2060
:10F4EC007265733D25640A0D0053442043617264B8
:10F4FC003A2020726561643531323A20616464725D
:10F50C003D25386C642C206F6666733D25642C2079
:10F51C00636F756E743D25640A0D0053442043617E
:10F52C0072643A2077726974653531323A206164BD
:10F53C0064723D25386C642C206F6666733D2564BF
:10F54C002C20636F756E743D25640A0D00534420A6
:10F55C00436172643A2077726974653531323A20AE
:10F56C006661696C656420746F2067657420746FC4
:10F57C006B656E2C2074696D656F75740A0D005384
:10F58C004420436172643A20777269746535313274
:10F59C003A2074696D656F75742C20726573706F89
:10F5AC006E736520697320253032780A0D00534440
:10F5BC0020436172643A20434D4435382C20523339
:10F5CC003D25303278202530327820253032782095
:10F5DC002530327820253032780A0D0025733A20F8
:10F5EC004552524F523A20636C6F636B20737065B7
:10F5FC006564202564206973206E6F7420737570A8
:10F60C00706F727465640A0D005344204361726418
:10F61C003A20434D44382C2052373D253032782047
:10F62C00253032782025303278202530327820254C
:10F63C003032780A0D006469736B5F696F63746CA8
:10F64C003A20706472763D25642C20636D643D25F0
:10F65C00643A204E6F742068616E646C65642E0A87
:10F66C000D006469736B5F726561643A202070648D
:10F67C0072763D25642C20736563746F723D256C26
:10F68C00642C20636F756E743D25640A0D006469EB
:10F69C00736B5F77726974653A20706472763D257E
:10F6AC00642C20736563746F723D256C642C20632D
:10F6BC006F756E743D25640A0D005365747570206A
:10F6CC0044533133303720525443206D6F64756C82
:10F6DC006520666F7220636C6F636B20646576695E
:10F6EC0063652E0D0A00534420436172643A204333
:10F6FC0043532028436172642043617061636974D1
:10F70C0079205374617475732920697320300A0D44
:10F71C0000534420436172643A20777269746535F2
:10F72C0031323A20435243206572726F7220287234
:10F73C00657472793D2564290A0D00534420436198
:10F74C0072643A204361726420706F776572207521
:10F75C0070207374617475732062697320697320EF
:10F76C00300A0D0072656164204D42522070617246
:10F77C00746974696F6E207461626C6520617420A9
:10F78C00736563746F7220300A0D0053442043611B
:10F79C0072643A2053444843206F722053445843B8
:10F7AC0020636172642064657465637465640A0D1A
:10F7BC000025733A204552524F523A206D6F6465C2
:10F7CC00202564206973206E6F7420737570706FC0
:10F7DC00727465640A0D004C6F6164202573203AC5
:10F7EC0020416472203D202530366C782C205369E2
:10F7FC007A65203D20253034780D0A00534420438F
:10F80C006172643A20696E697469616C697A652009
:10F81C002E2E2E207375636365656465640A0D0076
:10F82C00534420436172643A20756E657870656349
:10F83C0074656420726573706F6E73652025303249
:10F84C00780A0D00534420436172643A2041434DC1
:10F85C0044343120726573706F6E73652069732048
:10F86C00253032780A0D00534420436172643A20EB
:10F87C0077726974653531323A20746F6B656E201E
:10F88C00697320253032780A0D005344204361728D
:10F89C00643A20434D44353920726573706F6E7332
:10F8AC006520697320253032780A0D004D656D6F27
:10F8BC00727920303030303030202D202530366CAD
:10F8CC005848202564204B42204F4B0D0A00706194
:10F8DC0072746974696F6E207374617274732061D1
:10F8EC007420736563746F7220256C640A0D005369
:10F8FC00657475702074696D65723020666F722046
:10F90C00636C6F636B206465766963652E0D0A000A
:10F91C00665F777269746528293A204552524F52B6
:10F92C00207265733D25642C206E3D25640A0D0004
:10F93C00665F7265616428293A204552524F522005
:10F94C007265733D25642C206E3D25640A0D00669E
:10F95C0061696C656420746F2077726974652073BB
:10F96C006563746F7220256C640A0D000D0A536573
:10F97C0074204461746528253034642F253032643A
:10F98C002F25303264290D0A00554E4B4E4F574EE1
:10F99C0020444556494345203A20434D44282530C0
:10F9AC003278290D0A006661696C656420746F20D9
:10F9BC007265616420736563746F7220256C640AD0
:10F9CC000D000A0D534420436172643A20696E693C
:10F9DC007469616C697A65202E2E2E0A0D005344D1
:10F9EC0020436172643A2041434D4434312C2052FF
:10F9FC00313D253032780A0D005365742054696D01
:10FA0C006528253032643A253032643A2530326428
:10FA1C00290D0A0050726F6772616D2046696C6522
:10FA2C00204C6F6164204572726F722E0D0A004675
:10FA3C0061696C656420746F206D6F756E742053F2
:10FA4C004420436172642E0A0D00554E4B4E4F57A5
:10FA5C004E20756E696D6F6E20434D4428253032F3
:10FA6C0078290D0A006661696C656420746F2072D8
:10FA7C0065616420736563746F7220300A0D0046F3
:10FA8C0061696C656420746F206F70656E205344DF
:10FA9C0020436172642E0A0D004D455A38365F5270
:10FAAC00414D204669726D776172652052657631E1
:10FABC002E33000A4D656D6F7279206572726F720C
:10FACC00206174202530366C58480A0D0064697327
:10FADC006B5F696E697469616C697A652825642944
:10FAEC002E2E2E0A0D00534420436172643A206E70
:10FAFC006F74207375706F70727465640A0D0053A7
:10FB0C004420436172643A20434D44302C205231DE
:10FB1C003D253032780A0D00202020202020202086
:10FB2C002020202020202020202020202020200DDC
:10FB3C00007761697420666F722070726F677261F2
:10FB4C006D6D6572202E2E2E0D00445331333037DF
:10FB5C00205769746520493243206572726F722197
:10FB6C000D0A004E6F202573206469726563746FF3
:10FB7C00727920666F756E642E0D0A00333A546FDD
:10FB8C00796F7368696B692054696E79204261736F
:10FB9C0069630A0D002573253533732043484543AB
:10FBAC004B53554D3A20253032780A0D004D656D7A
:10FBBC006F727920303030303030202D20253036A7
:10FBCC006C58480D004932432062757320697320CC
:10FBDC006E6F742065786973742E0A0D00706879E5
:10FBEC00736963616C2064726976657220213D20B3
:10FBFC00300A0D00353A47414D452D4320496E746E
:10FC0C0065727072657465720A0D004461746520CA
:10FC1C00253034642F253032642F25303264203D5A
:10FC2C00200054696D6520253032643A25303264E9
:10FC3C003A25303264203D20000A4D656D6F727993
:10FC4C0020777261702061726F756E642E0A0D00E0
:10FC5C00323A38303836204E4153434F4D204241D2
:10FC6C005349430A0D00313A556E697665727361DA
:10FC7C006C204D6F6E69746F720A0D00665F6C7349
:10FC8C0065656B28293A204552524F522025640A4B
:10FC9C000D006E6F204641543332207061727469CE
:10FCAC0074696F6E0A0D00434C4B203D2025642C6B
:10FCBC0020495251203D2025640D0A00303A544F02
:10FCCC00442854696D65204F6620446179290A0DDA
:10FCDC0000665F73796E6328293A204552524F5261
:10FCEC002025640A0D004E6F2064726976652041F0
:10FCFC0020666F756E642E0A0D006E6F204D425299
:10FD0C00207369676E61747572650A0D0053442027
:10FD1C00436172643A2074696D656F75740A0D00E5
:10FD2C0046696C652072656164206572726F722120
:10FD3C000D0A00342E39324D487A206475747920BE
:10FD4C0033382E342500392E31344D487A206475E1
:10FD5C0074792034322E3925004453313330372016
:10FD6C00525443206D6F64756C6520006E6F207665
:10FD7C00616C696420766F6C756D650A0D00534477
:10FD8C0020436172643A2072656164792E0A0D0019
:10FD9C00536574206465627567206D6F64652E0D04
:10FDAC000A0031302E36374D487A2064757479202C
:10FDBC00353025005350495F53445F636F6E66695D
:10FDCC0067757265002573206E6F7420666F756E93
:10FDDC00642E2E0D0A0031322E384D487A2064756F
:10FDEC0074792036302500384D487A206475747942
:10FDFC002033372E3525006973206E6F742065789B
:10FE0C006973742E0D0A002A2B2C3A3B3C3D3E5B49
:10FE1C005D7C223F7F0043505520636C6F636B20E9
:10FE2C0025730D0A0031364D487A2064757479209B
:10FE3C003530250025732F445249564525632E44F1
:10FE4C00534B004E6F20534420436172643F0A0DA4
:10FE5C000054545F42415338362E42494E00554DA2
:10FE6C004F4E5F5338362E42494E00424153494360
:10FE7C005F38362E42494E004343505F42444F5345
:10FE8C002E42494E00363A43502F4D2D38360A0D2E
:10FE9C00000A0D53656C6563743A0A0D00426F617C
:10FEAC0072643A2025730A0D0044657465637420EE
:10FEBC0025730A0D00474D495F5338362E42494E83
:10FECC000056544C5F5338362E42494E00373A4D4B
:10FEDC00532D444F530A0D00554E494D4F4E5F4F15
:10FEEC00464600554E494D4F4E5F534547004C6FAB
:10FEFC0061642025730D0A00343A56544C2D430A84
:10FF0C000D004342494F535F4F464600494F5359EA
:10FF1C00535F4F464600494F5359535F5345470073
:10FF2C004D455A38362E434647004342494F532ECF
:10FF3C0042494E004D53444F532E5359530065784C
:10FF4C00697374732E0D0A004641543332202020FD
:10FF5C000025732530366C783A0041504C495F4F80
:10FF6C0046460041504C495F5345470043504D4471
:10FF7C0049534B5300444F534449534B530025733F
:10FF8C00253034783A0043504D5F4F46460043507D
:10FF9C004D5F53454700286E756C6C2900494E54D3
:10FFAC0056454300494F2E53595300202530327883
:10FFBC00006661743A200025732F25730062756604
:10FFCC003A200053443A2000303A2F2F0045584530
:10FFDC00430052443A200057523A2000494E460002
:10FFEC004E614E00434C4B00495251004F56003F5E
:03FFFC00200000E2
:020000040001F9
:10000000F3C5D9F4F4C5DAF4DE6ADD6AF1C504F5A6
:10001000F2C505F57DECC9F004C585F605C586F683
:10002000060186BF18EF80F016EF80F01BEF80F01E
:100030000B0EBCEF85F0D8908535D96E8635DA6E1B
:100040001D0ED926070EDA22DEC4A0F6DDC4A1F605
:10005000A051A111D8A42FEF80F031EF80F034EF40
:1000600080F00C0EBCEF85F0F3C5D9F4F4C5DAF4DA
:10007000A0C6DEF4A1C6DDF40501F591A0C6D9F451
:10008000A1C6DAF4DF50D8B448EF80F04AEF80F030
:1000900074EF80F0060120EE01F0A051D926A151A5
:1000A000DA22DF50ADECF4F00601956F95B15BEF0D
:1000B00080F05DEF80F074EF80F00501F551D8B469
:1000C00064EF80F066EF80F071EF80F0060195A597
:1000D0006CEF80F06EEF80F071EF80F00A0EBCEFF5
:1000E00085F0000EBCEF85F0A0C6D9F4A1C6DAF405
:1000F000DF6A060120EE01F0A051D926A151DA22D3
:10010000DF5012ECC7F00601956F95A18AEF80F0E1
:100110008CEF80F08FEF80F0030EBCEF85F00501CF
:10012000F551D8B496EF80F098EF80F0A2EF80F010
:10013000060195A59EEF80F0A0EF80F0A2EF80F081
:100140006EEF80F0A0C6D3F5A1C6D4F50501D66B3D
:10015000000ED56FFFECC0F0D3C59EF6D4C59FF658
:10016000040E06019E199F11D8A4B9EF80F0BBEFD1
:1001700080F0BEEF80F0010EBCEF85F09F5109E1E9
:10018000020E9E5DD8A0C7EF80F0C9EF80F0CCEFE3
:1001900080F00D0EBCEF85F020EE2CF0A051D9269A
:1001A000A151DA22DEC491F6DEC492F6DEC493F6E3
:1001B000DEC494F63B0EA025046E000EA121056E50
:1001C00081ECF5F0020E05180410D8B4EAEF80F0C7
:1001D000ECEF80F0EEEF80F0C9EF80F0460E060104
:1001E000A025046E000EA121056E81ECF5F004C57A
:1001F0009AF605C59BF606019C6B9D6B9A519B1167
:100200009C119D11D8A407EF81F009EF81F019EF3F
:1002100081F0540EA025046E000EA121056EDAECCB
:10022000E5F004C59AF605C59BF606C59CF607C51C
:100230009DF6060120EE18F0A051D926A151DA2230
:100240009AC6DEF49BC6DEF49CC6DEF49DC6DEF4E0
:1002500020EE40F0A051D926A151DA2210EE03F091
:10026000A051E126A151E222DFC4E7F420EE03F021
:10027000A051D926A151DA22DE04D8B442EF81F090
:1002800044EF81F055EF81F020EE03F0A051D92624
:10029000A151DA22020EDE18D8B451EF81F053EFEB
:1002A00081F055EF81F0C9EF80F09AC604F59BC646
:1002B00005F59CC606F59DC607F520EE03F0A05196
:1002C000D926A151DA22DF500501F66FF651086EEA
:1002D000096A0A6A0B6AA5ECF0F004C59AF605C52E
:1002E0009BF606C59CF607C59DF6060120EE3DF07F
:1002F000A051D926A151DA22DF500501F66FF76B24
:10030000060120EE0AF0A051D926A151DA22F6C545
:10031000DEF4F7C5DDF420EE0AF0A051D926A15194
:10032000DA22DE50DE10D8B498EF81F09AEF81F037
:10033000C9EF80F020EE0AF0A051D926A151DA22AF
:10034000DEC4F6F5DDC4F7F520EE0AF0A051D9269B
:10035000A151DA22DEC4F8F5DDC4F9F5FF0E05017E
:10036000F825FA6FFF0EF921FB6FF651FA15FC6FB5
:10037000F751FB15FD6FFC51FD11D8B4C2EF81F0B0
:10038000C4EF81F0C6EF81F0C9EF80F0410E0601A5
:10039000A025046E000EA121056E81ECF5F006018A
:1003A00020EE08F0A051D926A151DA2204C5DEF4CE
:1003B00005C5DDF420EE08F0A051D926A151DA22BE
:1003C000DEC4F6F5DDC4F7F50F0E0501F617000ED5
:1003D000F717F651F711D8B4F0EF81F0F2EF81F092
:1003E000F4EF81F0C9EF80F0430E0601A025046E02
:1003F000000EA121056E81ECF5F004C58DF605C552
:100400008EF606018F6B906B8D518E118F119011AE
:10041000D8A40DEF82F00FEF82F01FEF82F0500EA4
:10042000A025046E000EA121056EDAECE5F004C5EE
:100430008DF605C58EF606C58FF607C590F63E0EFD
:100440000601A025046E000EA121056E81ECF5F0D9
:1004500004C58BF605C58CF606018B518C11D8A40A
:1004600034EF82F036EF82F038EF82F0C9EF80F09F
:1004700020EE08F0A051D926A151DA22DEC4F6F50B
:10048000DDC4F7F5040E0501F86FD890F733F633A5
:10049000F82F45EF82F006018B510501F625F96F23
:1004A00006018C510501F721FA6FFB6BD8B0FB2BCD
:1004B000FC6B06019A510501F9250601876F9B51D6
:1004C0000501FA210601886F9C510501FB210601F7
:1004D000896F9D510501FC2106018A6F87518D5D51
:1004E00088518E5989518F598A519059D8B07BEFD4
:1004F00082F07DEF82F07FEF82F0C9EF80F08751CC
:100500008D5D046E88518E59056E89518F59066E26
:100510008A519059076E20EE0AF0A051D926A151B8
:10052000DA22DEC4F6F5DDC4F7F5F6C508F5F7C541
:1005300009F50A6A0B6A3FECE8F004C596F605C5B2
:1005400097F606C598F607C599F6060196519711D4
:1005500098119911D8A4AFEF82F0B1EF82F0B3EF08
:1005600082F0C9EF80F09F6B000E9E6FF60E965DD5
:10057000FF0E9759FF0E98590F0E9959D8B0C3EF37
:1005800082F0C5EF82F0C8EF82F09F6B030E9E6F82
:100590009951981109E1F60E965DFF0E9759D8B062
:1005A000D4EF82F0D6EF82F0D9EF82F09F6B020E8B
:1005B0009E6F9951981109E1F60E965D0F0E9759AD
:1005C000D8B0E5EF82F0E7EF82F0EAEF82F09F6BC0
:1005D000010E9E6F9E519F11D8A4F1EF82F0F3EFB0
:1005E00082F0F5EF82F0C9EF80F0020E962505014A
:1005F000F66F000E060197210501F76F000E060148
:1006000098210501F86F000E060199210501F96F87
:10061000060120EE14F0A051D926A151DA22F6C528
:10062000DEF4F7C5DEF4F8C5DEF4F9C5DEF420EE3D
:100630001CF0A051D926A151DA2291C6DEF492C64F
:10064000DEF493C6DEF494C6DEF48B5191250501E9
:10065000F66F06018C5192210501F76F000E06011D
:1006600093210501F86F000E060194210501F96F31
:10067000060120EE20F0A051D926A151DA22F6C5BC
:10068000DEF4F7C5DEF4F8C5DEF4F9C5DEF4875113
:1006900091250501F66F0601885192210501F76F3A
:1006A0000601895193210501F86F06018A519421B1
:1006B0000501F96F060120EE28F0A051D926A151BD
:1006C000DA22F6C5DEF4F7C5DEF4F8C5DEF4F9C5C6
:1006D000DEF4030E9E199F11D8A471EF83F073EF1F
:1006E00083F0D1EF83F05A0EA025046E000EA121F5
:1006F000056E81ECF5F004500510D8B482EF83F05C
:1007000084EF83F086EF83F0C9EF80F0060120EEDE
:1007100008F0A051D926A151DA22DE50DE10D8B45B
:1007200094EF83F096EF83F098EF83F0C9EF80F0B9
:100730005C0EA025046E000EA121056EDAECE5F03A
:10074000060120EE24F0A051D926A151DA2204C5D9
:10075000DEF405C5DEF406C5DEF407C5DEF420EEE2
:1007600014F0A051D926A151DA22DEC4F6F5DEC478
:10077000F7F5DEC4F8F5DEC4F9F5020ED8900501F0
:10078000F637F737F837F937E82EBEEF83F0F6C5BE
:1007900081F6F7C582F6F8C583F6F9C584F68AEFC7
:1007A00084F020EE08F0A051D926A151DA22DE50C3
:1007B000DE10D8A4DEEF83F0E0EF83F0E2EF83F009
:1007C000C9EF80F020EE20F0A051D926A151DA2205
:1007D000DEC4F6F5DEC4F7F5DEC4F8F5DEC4F9F5DF
:1007E0009A510501F625FA6F06019B510501F72183
:1007F000FB6F06019C510501F821FC6F06019D511C
:100800000501F921FD6F060120EE24F0A051D92643
:10081000A151DA22FAC5DEF4FBC5DEF4FCC5DEF434
:10082000FDC5DEF4020E9E199F11D8B41AEF84F0B4
:100830001CEF84F06BEF84F020EE14F0A051D92669
:10084000A151DA22DEC4F6F5DEC4F7F5DEC4F8F510
:10085000DEC4F9F5010E0501F615FA6F000EF71565
:10086000FB6F000EF815FC6F000EF915FD6F060109
:1008700020EE14F0A051D926A151DA22DEC404F5ED
:10088000DEC405F5DEC406F5DEC407F5030E086E0A
:10089000000E096E000E0A6E000E0B6EA5ECF0F055
:1008A000D89007320632053204320501FA51042489
:1008B0000601816F0501FB5105200601826F0501CC
:1008C000FC5106200601836F0501FD51072006013A
:1008D000846F8AEF84F020EE14F0A051D926A15144
:1008E000DA22DEC4F6F5DEC4F7F5DEC4F8F5DEC4C0
:1008F000F9F5D8900501F6350601816F0501F73548
:100900000601826F0501F8350601836F0501F9358F
:100910000601846FFF0E060181250501F66F010EA9
:10092000060182210501F76F000E060183210501F2
:10093000F86F000E060184210501F96F0A0EA6EF7B
:1009400084F0D890F933F833F733F633E82EA1EF7B
:1009500084F0060120EE18F0A051D926A151DA2228
:100960000501F651DE5CF751DE58F851DE58F951B9
:10097000DE58D8B0BEEF84F0C0EF84F0C2EF84F050
:10098000C9EF80F0060120EE10F0A051D926A15148
:10099000DA22FF0EDE6EFF0EDE6EFF0EDE6EFF0E43
:1009A000DD6E82E910EE0CF0A051E126A151E222A9
:1009B000DEC4E6F4DEC4E6F4DEC4E6F4DEC4E6F447
:1009C00020EE05F0A051D926A151DA22800EDF6E6B
:1009D000030E9E199F11D8A4F0EF84F0F2EF84F07B
:1009E000A6EF85F0600EA025046E000EA121056E15
:1009F00081ECF5F004040510D8A401EF85F003EFB5
:100A000085F0A6EF85F0A0C6BAF5A1C6BBF5010E2C
:100A1000060191250501BC6F000E0601922105011A
:100A2000BD6F000E060193210501BE6F000E060189
:100A300094210501BF6FF3ECE3F00009D8A423EF84
:100A400085F025EF85F0A6EF85F0060120EE05F094
:100A5000A051D926A151DA22DF6A2E0EA025046EFC
:100A6000020EA121056E81ECF5F0550E041807E188
:100A7000AA0E0518D8A43FEF85F041EF85F0A6EF48
:100A800085F0300E0601A025046E000EA121056E32
:100A9000DAECE5F0520E04180DE1520E05180AE1E9
:100AA000610E061807E1410E0718D8A45AEF85F029
:100AB0005CEF85F0A6EF85F0140E0601A025046E0C
:100AC000020EA121056EDAECE5F0720E04180DE1BC
:100AD000720E05180AE1410E061807E1610E0718AB
:100AE000D8A475EF85F077EF85F0A6EF85F0180EA6
:100AF0000601A025046E020EA121056EDAECE5F0D8
:100B0000060120EE10F0A051D926A151DA2204C529
:100B1000DEF405C5DEF406C5DEF407C5DEF41C0E02
:100B2000A025046E020EA121056EDAECE5F00601A7
:100B300020EE0CF0A051D926A151DA2204C5DEF432
:100B400005C5DEF406C5DEF407C5DEF4A0C6D9F49B
:100B5000A1C6DAF49EC6DFF407011B4B1C2B06016D
:100B600020EE06F0A051D926A151DA221BC7DEF4EF
:100B70001CC7DDF471EF80F0120011C61CF612C61E
:100B80001DF615C6D9F416C6DAF4DE6ADD6A0FC69C
:100B900061F510C662F52C0E0501636F060E646FD9
:100BA000DBECDAF006011B6F1B51D8A4DAEF85F0FD
:100BB000DCEF85F0ECEF85F020EE0FF00F51D92639
:100BC0001051DA22DF501B6F1B51D8B4EAEF85F0C9
:100BD000ECEF85F0EFEF85F01B513FEF8AF020EE50
:100BE0000EF00F51D9261051DA22DFB2FAEF85F05C
:100BF000FCEF85F0FFEF85F0070E3FEF8AF020EE67
:100C000010F00F51D9261051DA2210EE10F00F51CA
:100C1000E1261051E222E6C4F8F5E6C4F9F5E6C48F
:100C2000FAF5E6C4FBF513510501F825FC6F060142
:100C300014510501F921FD6F000EFA21FE6F000E1F
:100C4000FB21FF6FDE50FC5DDE50FD59DE50FE598A
:100C5000DE50FF59D8B02FEF86F031EF86F044EF29
:100C600086F0060120EE10F00F51D9261051DA223D
:100C7000DEC4F4F5DDC4F5F50501F41D0601136FBE
:100C80000501F51D0601146F060113511411D8A4B6
:100C90004CEF86F04EEF86F050EF86F036EF8AF09C
:100CA00020EE10F00F51D9261051DA22FF0EDE147B
:100CB0000501F46F010EDE14F56F000EDE14F66F01
:100CC000000EDE14F76FF451F511F611F711D8A4E8
:100CD0006CEF86F06EEF86F06FEF89F0060120EE84
:100CE00010F00F51D9261051DA22DEC4F4F5DEC41B
:100CF000F5F5DEC4F6F5DEC4F7F50A0E86EF86F0EC
:100D00000501D890F733F633F533F433E82E80EF4E
:100D100086F0060120EE0AF02C51D9262D51DA2258
:100D2000DEC4F8F5DDC4F9F5FF0E0501F825FA6F0C
:100D3000FF0EF921FB6FF451FA1506011E6F050134
:100D4000F551FB1506011F6F1E511F11D8A4ABEF03
:100D500086F0ADEF86F076EF87F020EE10F00F51C1
:100D6000D9261051DA22DE50DE10DE10DE10D8A4B3
:100D7000BCEF86F0BEEF86F0F0EF86F020EE06F0D6
:100D80000F51D9261051DA22DEC422F6DEC423F632
:100D9000DEC424F6DEC425F62251231124112511C8
:100DA000D8A4D5EF86F0D7EF86F00CEF87F00FC60A
:100DB000E6F510C6E7F5000E0501E86F000EE96FD5
:100DC000000EEA6F000EEB6FE6EC95F0E6C522F63A
:100DD000E7C523F6E8C524F6E9C525F60CEF87F04C
:100DE0000FC6E6F510C6E7F520EE14F00F51D92630
:100DF0001051DA22DEC4E8F5DEC4E9F5DEC4EAF516
:100E0000DEC4EBF5E6EC95F0E6C522F6E7C523F681
:100E1000E8C524F6E9C525F606012251231124115F
:100E20002511D8A416EF87F018EF87F01AEF87F096
:100E300036EF8AF02205231124112511D8A423EFBF
:100E400087F025EF87F030EF87F020EE0FF00F519D
:100E5000D9261051DA22020EDF6E020E3FEF8AF021
:100E600022290AE1232908E1242906E12529D8A419
:100E70003CEF87F03EEF87F049EF87F020EE0FF070
:100E80000F51D9261051DA22010EDF6E010E3FEF0D
:100E90008AF020EE14F00F51D9261051DA2222C622
:100EA000DEF423C6DEF424C6DEF425C6DEF420EE2E
:100EB00006F00F51D9261051DA22DE50DE10DE1076
:100EC000DE10D8A466EF87F068EF87F076EF87F042
:100ED00020EE06F00F51D9261051DA2222C6DEF498
:100EE00023C6DEF424C6DEF425C6DEF420EE0EF0C2
:100EF0000F51D9261051DA22DFAE81EF87F083EF50
:100F000087F0C5EF87F0220E0F2505019C6F000EBC
:100F10000601102105019D6F060120EE18F00F510A
:100F2000D9261051DA22DEC49EF5DEC49FF5DEC458
:100F3000A0F5DEC4A1F50501A36B010EA26F0601A9
:100F400020EE01F02C51D9262D51DA22DF509AECF7
:100F5000EBF00009D8B4AFEF87F0B1EF87F0BCEF4A
:100F600087F0060120EE0FF00F51D9261051DA223A
:100F7000010EDF6E46EF87F0060120EE0EF00F51F6
:100F8000D9261051DA227F0EDF162CC610F52DC699
:100F900011F520EE14F00F51D9261051DA22DEC4DB
:100FA00012F5DEC413F5DEC414F5DEC415F55EECEF
:100FB000E2F010C528F611C529F612C52AF613C5A8
:100FC0002BF60601285129112A112B11D8A4EBEF79
:100FD00087F0EDEF87F0F7EF87F020EE0FF00F517D
:100FE000D9261051DA22020EDF6E2DEF87F01E5146
:100FF00028271F512923000E2A23000E2B2313C656
:10100000F4F514C6F5F5090E0501F66FD890F53321
:10101000F433F62F06EF88F0F4C520F6F5C521F677
:10102000060120512111D8B418EF88F01AEF88F08A
:10103000FCEF88F020511E250501F46F06012151B7
:101040001F210501F56F060120EE0AF02C51D9266B
:101050002D51DA220501F451DE5CF551DE58D8B08D
:1010600034EF88F036EF88F04BEF88F0060120EE81
:101070000AF02C51D9262D51DA22DEC4F4F5DDC454
:10108000F5F51E510501F45D0601206F1F510501A4
:10109000F5590601216F1CC69CF51DC69DF528C695
:1010A0009EF529C69FF52AC6A0F52BC6A1F520C638
:1010B000A2F521C6A3F5060120EE01F02C51D92698
:1010C0002D51DA22DF509AECEBF00009D8B46BEF27
:1010D00088F06DEF88F078EF88F0060120EE0FF0D1
:1010E0000F51D9261051DA22010EDF6E46EF87F03C
:1010F000060120510501F46F060121510501F56F2C
:10110000F66BF76B060120EE18F00F51D92610513F
:10111000DA22DEC4F8F5DEC4F9F5DEC4FAF5DEC481
:10112000FBF528510501F85DFC6F06012951050109
:10113000F959FD6F06012A510501FA59FE6F0601A2
:101140002B510501FB59FF6FF451FC5DF551FD5921
:10115000F651FE59F751FF59D8B0B1EF88F0B3EF0F
:1011600088F0EAEF88F0220E06010F25046E000ECB
:101170001021056E20EE18F00F51D9261051DA22F9
:10118000DEC4F4F5DDC4F5F528510501F45F060170
:1011900029510501F55B090ED890F437F537E82E93
:1011A000CCEF88F0F45106011C25066E0501F551BF
:1011B00006011D21076E020E096E000E086E32EC4C
:1011C000F3F0060120EE0EF00F51D9261051DA226D
:1011D0007F0EDF1620C6F4F521C6F5F5090ED8906E
:1011E0000501F437F537E82EEFEF88F0F4C526F661
:1011F000F5C527F6CFEF89F020EE18F00F51D9266C
:101200001051DA222851DE180FE12951DE180CE1C5
:101210002A51DE1809E12B51DE18D8B412EF89F0FB
:1012200014EF89F060EF89F020EE0AF00F51D92613
:101230001051DA2210EE10F00F51E1261051E22287
:10124000DE50E65CDE50E658DE50E658DE50E658EA
:10125000D8B02DEF89F02FEF89F060EF89F0220EE2
:101260000F2505019E6F000E0601102105019F6FDD
:1012700028C6A0F529C6A1F52AC6A2F52BC6A3F556
:10128000A56B010EA46F060120EE01F02C51D926AA
:101290002D51DA22DF50E5ECEBF00009D8B453EF22
:1012A00089F055EF89F060EF89F0060120EE0FF02C
:1012B0000F51D9261051DA22010EDF6E46EF87F06A
:1012C000060120EE18F00F51D9261051DA2228C657
:1012D000DEF429C6DEF42AC6DEF42BC6DEF40601EF
:1012E00020EE10F00F51D9261051DA22DEC4F4F5A9
:1012F000DDC4F5F5FF0E0501F415F66F010EF515C9
:10130000F76FF65100080601266F0501F751D8A0C6
:10131000E82A02080601276F2651135D2751145948
:10132000D8B095EF89F097EF89F09BEF89F013C65D
:1013300026F614C627F620EE10F00F51D9261051CC
:10134000DA22DEC4F4F5DDC4F5F5FF0E0501F4156F
:10135000F66F010EF515F76FF65106010F25050121
:10136000F86FF751060110210501F96F220EF825DB
:10137000046E000EF921056E1CC606F51DC607F5A4
:1013800026C608F527C609F532ECF3F0060120EE73
:101390000EF00F51D9261051DA22000EDB8E060115
:1013A0002651135F2751145B15C6D9F416C6DAF41B
:1013B0002651DE262751DD2226511C2727511D23C9
:1013C00020EE10F00F51D9261051DA222651DE26D8
:1013D0002751DE22000EDE22DE2220EE10F00F5119
:1013E000D9261051DA2210EE0AF00F51E1261051E1
:1013F000E222DE50E65CDE50E658DE50E658DE5073
:10140000E658D8A006EF8AF008EF8AF018EF8AF0C5
:1014100020EE0AF00F51D9261051DA22DEC417F659
:10142000DEC418F6DEC419F6DEC41AF626EF8AF01A
:1014300020EE10F00F51D9261051DA22DEC417F633
:10144000DEC418F6DEC419F6DEC41AF620EE0AF081
:101450000F51D9261051DA2217C6DEF418C6DEF471
:1014600019C6DEF41AC6DEF444EF86F020EE0EF064
:101470000F51D9261051DA22000EDB8C000E12001B
:101480000FC661F510C662F5320E0501636F060ED8
:10149000646FDBECDAF006012D6F2D51D8A453EF09
:1014A0008AF055EF8AF05DEF8AF020EE0FF00F51D1
:1014B000D9261051DA22DF502D6F2D51D8B463EFA9
:1014C0008AF065EF8AF068EF8AF02D5149EF8EF0CF
:1014D00020EE0AF00F51D9261051DA221151DE5CAC
:1014E0001251DE581351DE581451DE58D8B07BEF3C
:1014F0008AF07DEF8AF098EF8AF020EE0EF00F511F
:10150000D9261051DA22DFB288EF8AF08AEF8AF00A
:1015100098EF8AF020EE0AF00F51D9261051DA2206
:10152000DEC411F6DEC412F6DEC413F6DEC414F611
:1015300020EE10F00F51D9261051DA22DEC425F624
:10154000DEC426F6DEC427F6DEC428F6000E296FB8
:10155000000E2A6F000E2B6F000E2C6F20EE10F085
:101560000F51D9261051DA2229C6DEF42AC6DEF43C
:101570002BC6DEF42CC6DEF4115112111311141116
:10158000D8B4C5EF8AF0C7EF8AF04CEF8DF020EEAB
:101590000AF03251D9263351DA22DEC415F6DDC401
:1015A00016F61551176F1651186F196B1A6B090E35
:1015B000D8901737183719371A37E82ED8EF8AF02E
:1015C00017C62EF618C62FF619C630F61AC631F60B
:1015D0002551261127112811D8B4F1EF8AF0F3EF25
:1015E0008AF090EF8BF0FF0E1125046EFF0E122192
:1015F000056EFF0E1321066EFF0E1421076E2EC618
:1016000008F52FC609F530C60AF531C60BF53FECD3
:10161000E8F004C515F605C516F606C517F607C5A4
:1016200018F6FF0E06012525046EFF0E2621056E15
:10163000FF0E2721066EFF0E2821076E2EC608F525
:101640002FC609F530C60AF531C60BF53FECE8F0B8
:1016500004500601155D05501659065017590750DC
:101660001859D8A036EF8BF038EF8BF090EF8BF055
:10167000FF0E2E25156FFF0E2F21166FFF0E302146
:10168000176FFF0E3121186F151D196F161D1A6F78
:10169000171D1B6F181D1C6FFF0E25251D6FFF0EDC
:1016A00026211E6FFF0E27211F6FFF0E2821206F9E
:1016B00019511D15216F1A511E15226F1B511F152F
:1016C000236F1C512015246F20EE10F00F51D926E6
:1016D0001051DA2221C6DEF422C6DEF423C6DEF47F
:1016E00024C6DEF420EE10F00F51D9261051DA2274
:1016F000DE50115FDE50125BDE50135BDD50145B79
:1017000020EE14F00F51D9261051DA22DEC434F63F
:10171000DEC435F6DEC436F6DEC437F60CEF8CF0E8
:1017200020EE06F00F51D9261051DA22DEC434F62D
:10173000DEC435F6DEC436F6DEC437F63451351174
:1017400036113711D8A4A7EF8BF0A9EF8BF0FEEF7D
:101750008BF00FC6E6F510C6E7F5000E0501E86F41
:10176000000EE96F000EEA6F000EEB6FE6EC95F0ED
:10177000E6C534F6E7C535F6E8C536F6E9C537F609
:1017800006013405351136113711D8A4CAEF8BF094
:10179000CCEF8BF0D7EF8BF020EE0FF00F51D92666
:1017A0001051DA22020EDF6E020E49EF8EF034295C
:1017B0000AE1352908E1362906E13729D8A4E3EF03
:1017C0008BF0E5EF8BF0F0EF8BF020EE0FF00F5188
:1017D000D9261051DA22010EDF6E010E49EF8EF08C
:1017E00020EE06F00F51D9261051DA2234C6DEF46D
:1017F00035C6DEF436C6DEF437C6DEF420EE14F06D
:101800000F51D9261051DA2234C6DEF435C6DEF483
:1018100036C6DEF437C6DEF43451351136113711D1
:10182000D8B415EF8CF017EF8CF04CEF8DF0D1EFB2
:101830008CF02E51115F2F51125B3051135B3151DF
:10184000145B20EE10F00F51D9261051DA222E51E0
:10185000DE262F51DE223051DE223151DE2220EEF3
:101860000EF00F51D9261051DA22DFA23AEF8CF098
:101870003CEF8CF068EF8CF00FC6E6F510C6E7F58C
:1018800034C6E8F535C6E9F536C6EAF537C6EBF5F0
:10189000E6EC95F0E6C534F6E7C535F6E8C536F66C
:1018A000E9C537F606013451351136113711D8A480
:1018B0005CEF8CF05EEF8CF07EEF8CF0000E116F21
:1018C000000E126F000E136F000E146FE0EF8CF01D
:1018D0000FC6C5F510C6C6F534C6C7F535C6C8F57A
:1018E00036C6C9F537C6CAF5D3ECA6F0C5C534F679
:1018F000C6C535F6C7C536F6C8C537F6060134295C
:101900000AE1352908E1362906E13729D8A48BEF09
:101910008CF08DEF8CF097EF8CF020EE0FF00F51E4
:10192000D9261051DA22010EDF6EEDEF8BF0375120
:101930003611351109E1020E345DD8A0A2EF8CF00A
:10194000A4EF8CF0B9EF8CF020EE14F03251D926D0
:101950003351DA22DE50345DDE503559DE503659CF
:10196000DE503759D8A0B7EF8CF0B9EF8CF0C3EF49
:101970008CF020EE0FF00F51D9261051DA22020E12
:10198000DF6ED4EF8BF020EE14F00F51D9261051FA
:10199000DA2234C6DEF435C6DEF436C6DEF437C6E7
:1019A000DEF411512E5D12512F591351305914513B
:1019B0003159D8A0DEEF8CF0E0EF8CF019EF8CF00D
:1019C00020EE10F00F51D9261051DA221151DE26E7
:1019D0001251DE221351DE221451DE22FF0E1115A8
:1019E000156F010E1215166F000E1315176F000EEE
:1019F0001415186F1551161117111811D8B403EFDB
:101A00008DF005EF8DF04CEF8DF032C610F533C63A
:101A100011F534C612F535C613F536C614F537C6BA
:101A200015F55EECE2F010C529F611C52AF612C5CF
:101A30002BF613C52CF6060129512A112B112C1156
:101A4000D8A425EF8DF027EF8DF031EF8DF020EE4B
:101A50000FF00F51D9261051DA22020EDF6ED4EFAB
:101A60008BF011C615F612C616F613C617F614C675
:101A700018F60A0E41EF8DF0D8901833173316334D
:101A80001533E82E3CEF8DF01551292716512A23E6
:101A900017512B2318512C2320EE10F00F51D9266B
:101AA0001051DA2210EE0AF00F51E1261051E22215
:101AB000DE50E65CDE50E658DE50E658DE50E65872
:101AC000D8B065EF8DF067EF8DF083EF8DF020EEED
:101AD00010F00F51D9261051DA2210EE0AF00F51F2
:101AE000E1261051E222DEC4E6F4DEC4E6F4DEC4F0
:101AF000E6F4DEC4E6F420EE0EF00F51D9261051C4
:101B0000DA22000EDB8C20EE10F00F51D926105196
:101B1000DA22FF0EDE14156F010EDE14166F000EB2
:101B2000DE14176F000EDE14186F15511611171101
:101B30001811D8B49EEF8DF0A0EF8DF065EF8AF00C
:101B400020EE18F00F51D9261051DA222951DE1853
:101B50000FE12A51DE180CE12B51DE1809E12C515E
:101B6000DE18D8B4B6EF8DF0B8EF8DF065EF8AF0DF
:101B700020EE0EF00F51D9261051DA22DFAEC3EF5E
:101B80008DF0C5EF8DF007EF8EF0220E0F250501C9
:101B90009C6F000E0601102105019D6F060120EECD
:101BA00018F00F51D9261051DA22DEC49EF5DEC49A
:101BB0009FF5DEC4A0F5DEC4A1F50501A36B010EFF
:101BC000A26F060120EE01F03251D9263351DA22FC
:101BD000DF509AECEBF00009D8B4F1EF8DF0F3EFA1
:101BE0008DF0FEEF8DF0060120EE0FF00F51D9269B
:101BF0001051DA22010EDF6EEDEF8BF0060120EEC0
:101C00000EF00F51D9261051DA227F0EDF16220E68
:101C10000F2505019E6F000E0601102105019F6F23
:101C200029C6A0F52AC6A1F52BC6A2F52CC6A3F598
:101C3000A56B010EA46F060120EE01F03251D926EA
:101C40003351DA22DF50E5ECEBF00009D8B42BEF8A
:101C50008EF02DEF8EF038EF8EF0060120EE0FF0B3
:101C60000F51D9261051DA22010EDF6EEDEF8BF005
:101C7000060120EE18F00F51D9261051DA2229C69C
:101C8000DEF42AC6DEF42BC6DEF42CC6DEF465EFE5
:101C90008AF01200E1C509F6E2C50AF6E5C5D9F4F5
:101CA000E6C5DAF4DE6ADD6ADFC561F5E0C562F536
:101CB000150E0501636F060E646FDBECDAF00601AA
:101CC000046F0451D8A467EF8EF069EF8EF07BEFBC
:101CD0008EF0050120EE0FF0DF51D926E051DA2217
:101CE000DF500601046F0451D8B479EF8EF07BEF1A
:101CF0008EF07EEF8EF0045121EF92F0050120EE80
:101D00000EF0DF51D926E051DA22DFB08AEF8EF0F3
:101D10008CEF8EF08FEF8EF0070E21EF92F020EE19
:101D200010F0DF51D926E051DA22DEC4E7F5DEC437
:101D3000E8F5DEC4E9F5DEC4EAF520EE0AF0DF518D
:101D4000D926E051DA22DEC4EBF5DEC4ECF5DEC4C0
:101D5000EDF5DEC4EEF5E751EB5D0601006F050120
:101D6000E851EC590601016F0501E951ED590601F1
:101D7000026F0501EA51EE590601036F0501E351B7
:101D8000E76FE451E86FE96BEA6BE7510601005D2C
:101D90000501E851060101590501E9510601025901
:101DA0000501EA5106010359D8B0D9EF8EF0DBEFF7
:101DB0008EF0DFEF8EF000C6E3F501C6E4F5050115
:101DC000E351E411D8A4E7EF8EF0E9EF8EF0EBEFEA
:101DD0008EF020EF92F020EE10F0DF51D926E05186
:101DE000DA22FF0EDE14E76F010EDE14E86F000E3C
:101DF000DE14E96F000EDE14EA6FE751E811E91115
:101E0000EA11D8A406EF8FF008EF8FF0A7EF91F05A
:101E100020EE10F0DF51D926E051DA22DEC4E7F5DA
:101E2000DEC4E8F5DEC4E9F5DEC4EAF50A0E1EEF0D
:101E30008FF0D890EA33E933E833E733E82E19EF2F
:101E40008FF0060120EE0AF01551D9261651DA223C
:101E5000DEC4EBF5DDC4ECF5FF0E0501EB25ED6FFF
:101E6000FF0EEC21EE6FE751ED1506010B6F05013A
:101E7000E851EE1506010C6F0B510C11D8A443EF7D
:101E80008FF045EF8FF0C6EF8FF0050120EE10F0D8
:101E9000DF51D926E051DA22DE50DE10DE10DE10EE
:101EA000D8A455EF8FF057EF8FF067EF8FF020EE4B
:101EB00006F0DF51D926E051DA22DEC405F6DEC491
:101EC00006F6DEC407F6DEC408F683EF8FF0DFC542
:101ED000C5F5E0C5C6F520EE14F0DF51D926E05176
:101EE000DA22DEC4C7F5DEC4C8F5DEC4C9F5DEC437
:101EF000CAF5D3ECA6F0C5C505F6C6C506F6C7C536
:101F000007F6C8C508F6060108510711061107E1D2
:101F1000020E055DD8B08FEF8FF091EF8FF09DEF3F
:101F20008FF0050120EE0FF0DF51D926E051DA22C3
:101F3000020EDF6E020E21EF92F005290AE106295A
:101F400008E1072906E10829D8A4A9EF8FF0ABEF33
:101F50008FF0B7EF8FF0050120EE0FF0DF51D9269B
:101F6000E051DA22010EDF6E010E21EF92F0050141
:101F700020EE14F0DF51D926E051DA2205C6DEF456
:101F800006C6DEF407C6DEF408C6DEF415C610F594
:101F900016C611F5050120EE14F0DF51D926E051E7
:101FA000DA22DEC412F5DEC413F5DEC414F5DEC495
:101FB00015F55EECE2F010C511F611C512F612C56A
:101FC00013F613C514F60601115112111311141151
:101FD000D8A4EDEF8FF0EFEF8FF0FAEF8FF005015F
:101FE00020EE0FF0DF51D926E051DA22020EDF6E2B
:101FF0009AEF8FF00B5111270C511223000E13236F
:10200000000E1423E3C5E7F5E4C5E8F5090E050164
:10201000E96FD890E833E733E92F09EF90F0E7C58F
:102020000DF6E8C50EF606010D510E11D8B41BEFE2
:1020300090F01DEF90F005EF91F00D510B2505018B
:10204000E76F06010E510C210501E86F060120EE35
:102050000AF01551D9261651DA220501E751DE5C46
:10206000E851DE58D8B037EF90F039EF90F04EEFEE
:1020700090F0060120EE0AF01551D9261651DA2209
:10208000DEC4E7F5DDC4E8F50B510501E75D0601A7
:102090000D6F0C510501E85906010E6F09C69EF53A
:1020A0000AC69FF511C6A0F512C6A1F513C6A2F582
:1020B00014C6A3F50DC6A4F50EC6A5F5060120EEBF
:1020C00001F01551D9261651DA22DF50E5ECEBF07C
:1020D0000009D8B46EEF90F070EF90F07BEF90F0C5
:1020E000050120EE0FF0DF51D926E051DA22010E72
:1020F000DF6EB4EF8FF0050120EE0EF0DF51D92630
:10210000E051DA22DFAE87EF90F089EF90F0F3EF45
:1021100090F006010D510501E76F06010E51050112
:10212000E86FE96BEA6B20EE18F0DF51D926E05139
:10213000DA22DEC4EBF5DEC4ECF5DEC4EDF5DEC478
:10214000EEF5060111510501EB5DEF6F060112512D
:102150000501EC59F06F060113510501ED59F16FBE
:10216000060114510501EE59F26FE751EF5DE85198
:10217000F059E951F159EA51F259D8B0C2EF90F053
:10218000C4EF90F0F3EF90F020EE18F0DF51D92675
:10219000E051DA22DEC4E7F5DDC4E8F506011151AD
:1021A0000501E75F060112510501E85B090ED890B1
:1021B000E737E837E82ED7EF90F0E7510601092519
:1021C000046E0501E85106010A21056E220E050183
:1021D000DF25066E000EE021076E020E096E000E6E
:1021E000086E32ECF3F00DC6E7F50EC6E8F5090E01
:1021F000D8900501E737E837E82EF8EF90F0E7C50B
:102200000FF6E8C510F6FAEF91F0050120EE18F090
:10221000DF51D926E051DA2206011151DE180FE113
:102220001251DE180CE11351DE1809E11451DE18C9
:10223000D8B41DEF91F01FEF91F098EF91F00501E8
:1022400020EE0EF0DF51D926E051DA22DFAE2BEF7F
:1022500091F02DEF91F06AEF91F0220EDF259C6F47
:10226000000EE0219D6F20EE18F0DF51D926E051DD
:10227000DA22DEC49EF5DEC49FF5DEC4A0F5DEC41E
:10228000A1F5A36B010EA26F060120EE01F015511E
:10229000D9261651DA22DF509AECEBF00009D8B4B7
:1022A00054EF91F056EF91F061EF91F0050120EEBF
:1022B0000FF0DF51D926E051DA22010EDF6EB4EFC4
:1022C0008FF0050120EE0EF0DF51D926E051DA2221
:1022D0007F0EDF16220EDF259E6F000EE0219F6F1E
:1022E00011C6A0F512C6A1F513C6A2F514C6A3F532
:1022F000A56B010EA46F060120EE01F01551D92641
:102300001651DA22DF50E5ECEBF00009D8B48BEF80
:1023100091F08DEF91F098EF91F0050120EE0FF024
:10232000DF51D926E051DA22010EDF6EB4EF8FF0D3
:10233000050120EE18F0DF51D926E051DA2211C64E
:10234000DEF412C6DEF413C6DEF414C6DEF420EEAC
:1023500010F0DF51D926E051DA22DEC4E7F5DDC402
:10236000E8F5FF0EE715E96F010EE815EA6FE95190
:10237000000806010F6F0501EA51D8A0E82A0208FB
:102380000601106F0F510501E35D060110510501B3
:10239000E459D8B0CEEF91F0D0EF91F0D4EF91F0B6
:1023A000E3C50FF6E4C510F609C604F50AC605F53F
:1023B00020EE10F0DF51D926E051DA22DEC4E7F535
:1023C000DDC4E8F5FF0EE715E96F010EE815EA6FC9
:1023D000E951DF25EB6FEA51E021EC6F220EEB258E
:1023E000066E000EEC21076E0FC608F510C609F543
:1023F00032ECF3F006010F510501E35F06011051C5
:102400000501E45BE5C5D9F4E6C5DAF406010F5130
:10241000DE261051DD220F51092710510A23050134
:1024200020EE10F0DF51D926E051DA2206010F51DB
:10243000DE261051DE22000EDE22DE22DFEF8EF0DD
:10244000000E12000601A251A311D8A42AEF92F0A7
:102450002CEF92F02FEF92F0090EE5EF95F03F0E82
:10246000A617A40E0501F16F060EF26FC70EF36FEB
:10247000060EF46FA6C6F5F500EC80F00601C96FF4
:10248000C951D8A446EF92F048EF92F0D5EF95F0FD
:10249000C7C6CAF6C8C6CBF6CA0E256F060E266F8B
:1024A000A4C627F6A5C628F6E0ECBBF00601C96F66
:1024B000C951D8A45EEF92F060EF92F069EF92F00C
:1024C000F1AF65EF92F067EF92F069EF92F0060ED0
:1024D000C96FA6C6A7F61C0EA717D8B472EF92F064
:1024E00074EF92F090EF93F0C951D8B47AEF92F074
:1024F0007CEF92F090EF92F0040EC919D8A483EF0C
:1025000092F085EF92F08DEF92F0CA0E296F060ED1
:102510002A6FE6ECDFF00601C96FA687A8EF92F0FC
:10252000CEC6A7F6110EA717D8B499EF92F09BEF7D
:1025300092F09FEF92F0070EC96FA8EF92F0A6A558
:10254000A4EF92F0A6EF92F0A8EF92F0080EC96FF8
:10255000C951D8A4AEEF92F0B0EF92F0B3EF93F080
:10256000A6A7B5EF92F0B7EF92F0B3EF93F0ABEC14
:10257000F7F004C5B3F605C5B4F606C5B5F607C54C
:10258000B6F60E0E0601E425046E000EE521056E7A
:10259000B3C606F5B4C607F5B5C608F5B6C609F55F
:1025A0006FECF0F0160E0601E425046E000EE52136
:1025B000056EB3C606F5B4C607F5B5C608F5B6C6CA
:1025C00009F56FECF0F0C7C60BF5C8C60CF5E4C60C
:1025D0000DF5E5C60EF50DECEEF00BC5B7F60CC526
:1025E000B8F60DC5B9F60EC5BAF6060120EE0BF029
:1025F000E451D926E551DA22200EDF6EC7C608F570
:10260000C8C609F5E4C60AF5E5C60BF5000E0C6E62
:10261000000E0D6E000E0E6E000E0F6EF6ECF3F057
:102620001C0E0601E425046E000EE521056E000E69
:10263000066E000E076E000E086E000E096E6FEC3F
:10264000F0F0060120EE04F0C751D926C851DA2275
:10265000010EDF6EB751B811B911BA11D8B433EF0A
:1026600093F035EF93F0B3EF93F020EE2CF0C751D9
:10267000D926C851DA22DEC4BBF6DEC4BCF6DEC4FD
:10268000BDF6DEC4BEF6CA0E0501E66F060EE76FA4
:10269000B7C6E8F5B8C6E9F5B9C6EAF5BAC6EBF5C6
:1026A000000EEC6F000EED6F000EEE6F000EEF6F80
:1026B000B7ECB9F00601C96FC951D8A462EF93F025
:1026C00064EF93F0B3EF93F0C7C6BAF5C8C6BBF595
:1026D000BBC6BCF5BCC6BDF5BDC6BEF5BEC6BFF526
:1026E000F3ECE3F00601C96FFF0EB725A76FFF0EED
:1026F000B821A86FFF0EB921A96FFF0EBA21AA6FEA
:1027000020EE0CF0C751D926C851DA22A7C6DEF454
:10271000A8C6DEF4A9C6DEF4AAC6DEF4B3EF93F0D1
:10272000C951D8A496EF93F098EF93F0B3EF93F0DC
:10273000CEA99DEF93F09FEF93F0A3EF93F0040EDB
:10274000C96FB3EF93F0A6A3A8EF93F0AAEF93F0AD
:10275000B3EF93F0CEA1AFEF93F0B1EF93F0B3EFFF
:1027600093F0070EC96FC951D8A4B9EF93F0BBEF2E
:1027700093F0E1EF93F0A6A7C0EF93F0C2EF93F0D0
:10278000C3EF93F0A68D20EE2CF0C751D926C85187
:10279000DA2210EE1CF0A251E126A351E222DEC49F
:1027A000E6F4DEC4E6F4DEC4E6F4DEC4E6F420EECD
:1027B00020F0A251D926A351DA22E4C6DEF4E5C600
:1027C000DDF4C951D8A4E7EF93F0E9EF93F0D5EF2A
:1027D00095F0C7C60BF5C8C60CF5E4C60DF5E5C601
:1027E0000EF50DECEEF0060120EE06F0A251D92612
:1027F000A351DA220BC5DEF40CC5DEF40DC5DEF400
:102800000EC5DEF41C0EE425046E000EE521056EF7
:10281000DAECE5F0060120EE0AF0A251D926A35128
:10282000DA2204C5DEF405C5DEF406C5DEF407C50C
:10283000DEF4A2C6D9F4A3C6DAF4C7C6DEF4C8C66D
:10284000DDF420EE06F0C751D926C851DA2210EE89
:1028500002F0A251E126A351E222DEC4E6F4DDC477
:10286000E5F420EE0EF0A251D926A351DA22A6C635
:10287000DFF420EE0FF0A251D926A351DA22DF6A4D
:1028800020EE18F0A251D926A351DA22DE6ADE6AC0
:10289000DE6ADD6A20EE10F0A251D926A351DA22B9
:1028A000DE6ADE6ADE6ADD6A220EA225046E000E92
:1028B000A321056E076A000E066E020E096E000E59
:1028C000086E65ECF5F00601A6AB69EF94F06BEFCE
:1028D00094F0D5EF95F020EE0AF0A251D926A3513D
:1028E000DA22DE50DE10DE10DE10D8B47AEF94F07B
:1028F0007CEF94F0D5EF95F020EE0AF0A251D926A6
:10290000A351DA2210EE10F0A251E126A351E222E7
:10291000DEC4E6F4DEC4E6F4DEC4E6F4DEC4E6F4C7
:1029200020EE0AF0C751D926C851DA22DEC4A7F634
:10293000DDC4A8F6A751A96FA851AA6FAB6BAC6B09
:10294000090ED890A937AA37AB37AC37E82EA1EFDC
:1029500094F0A9C6AFF6AAC6B0F6ABC6B1F6ACC63F
:10296000B2F620EE06F0A251D926A351DA22DEC437
:10297000C3F6DEC4C4F6DEC4C5F6DEC4C6F620EE79
:102980000AF0A251D926A351DA22DEC4BFF6DEC472
:10299000C0F6DEC4C1F6DEC4C2F60DEF95F0A2C6E5
:1029A000C5F5A3C6C6F5C3C6C7F5C4C6C8F5C5C632
:1029B000C9F5C6C6CAF5D3ECA6F0C5C5C3F6C6C5EB
:1029C000C4F6C7C5C5F6C8C5C6F60601C651C511C9
:1029D000C41107E1020EC35DD8B0F1EF94F0F3EF3C
:1029E00094F0F5EF94F0020EC96FC3290AE1C429EF
:1029F00008E1C52906E1C629D8A401EF95F003EF47
:102A000095F005EF95F0010EC96FAF51BF5FB05162
:102A1000C05BB151C15BB251C25BC951D8A413EFC5
:102A200095F015EF95F024EF95F0BF51AF5DC051D3
:102A3000B059C151B159C251B259D8A022EF95F045
:102A400024EF95F0CFEF94F020EE14F0A251D926A8
:102A5000A351DA22C3C6DEF4C4C6DEF4C5C6DEF472
:102A6000C6C6DEF4C951D8A438EF95F03AEF95F018
:102A7000D5EF95F0FF0EBF15A76F010EC015A86F1B
:102A8000000EC115A96F000EC215AA6FA751A8119B
:102A9000A911AA11D8B44FEF95F051EF95F0D5EFE9
:102AA00095F0C7C610F5C8C611F5C3C612F5C4C661
:102AB00013F5C5C614F5C6C615F55EECE2F010C5F3
:102AC000BBF611C5BCF612C5BDF613C5BEF60601B0
:102AD000BB51BC11BD11BE11D8A471EF95F073EFBD
:102AE00095F077EF95F0020EC96FD5EF95F0BFC660
:102AF000A7F6C0C6A8F6C1C6A9F6C2C6AAF60A0EAF
:102B000087EF95F0D890AA33A933A833A733E82EDE
:102B100082EF95F0BB51A725AB6FBC51A821AC6FDC
:102B2000BD51A921AD6FBE51AA21AE6F20EE18F0A4
:102B3000A251D926A351DA22ABC6DEF4ACC6DEF42C
:102B4000ADC6DEF4AEC6DEF4220EA22505019E6FF0
:102B5000000E0601A32105019F6F060120EE18F06B
:102B6000A251D926A351DA22DEC4A0F5DEC4A1F514
:102B7000DEC4A2F5DEC4A3F50501A56B010EA46FAA
:102B8000060120EE01F0C751D926C851DA22DF50E4
:102B9000E5ECEBF00009D8B4D0EF95F0D2EF95F06A
:102BA000D5EF95F0010E0601C96F0601C951D8B4E1
:102BB000DCEF95F0DEEF95F0E4EF95F0A2C6D9F4E6
:102BC000A3C6DAF4DE6ADD6AC9511200E6C5D9F49B
:102BD000E7C5DAF4DEC409F6DDC40AF60501E851FA
:102BE000E911EA11EB11D8A4F8EF95F0FAEF95F09E
:102BF00033EF96F0060120EE0CF00951D9260A5168
:102C0000DA22DEC401F6DEC402F6DEC403F6DEC458
:102C100004F60151021103110411D8B412EF96F019
:102C200014EF96F029EF96F020EE14F00951D92612
:102C30000A51DA22DE50015DDE500259DE5003599E
:102C4000DE500459D8A027EF96F029EF96F099EFBF
:102C500096F0010E016F000E026F000E036F000E62
:102C6000046F99EF96F0E6C5C5F5E7C5C6F5E8C56A
:102C7000C7F5E9C5C8F5EAC5C9F5EBC5CAF5D3EC92
:102C8000A6F0C5C50BF6C6C50CF6C7C50DF6C8C57A
:102C90000EF606010E510D110C1107E1020E0B5D2F
:102CA000D8B055EF96F057EF96F062EF96F0010E20
:102CB0000501E66F000EE76F000EE86F000EE96F8A
:102CC000CEEF98F00B290AE10C2908E10D2906E165
:102CD0000E29D8A46EEF96F070EF96F07AEF96F08A
:102CE0000BC6E6F50CC6E7F50DC6E8F50EC6E9F528
:102CF000CEEF98F020EE14F00951D9260A51DA22CD
:102D0000DE500B5DDE500C59DE500D59DE500E5971
:102D1000D8B08DEF96F08FEF96F091EF96F070EFC0
:102D200096F0E8C501F6E9C502F6EAC503F6EBC57B
:102D300004F620EE10F00951D9260A51DA22DE50AD
:102D4000DE10DE10DE10D8A4A8EF96F0AAEF96F001
:102D5000B5EF96F0000E0501E66F000EE76F000E6E
:102D6000E86F000EE96FCEEF98F0000E056F000ED1
:102D7000066F000E076F000E086F0501E85106018F
:102D8000011913E10501E951060102190EE10501DE
:102D9000EA510601031909E10501EB510601041985
:102DA000D8A4D5EF96F0D7EF96F07DEF97F0010E0F
:102DB0000125056F000E0221066F000E0321076F2B
:102DC000000E0421086F20EE14F00951D9260A5193
:102DD000DA22DE50055DDE500659DE500759DE501E
:102DE0000859D8A0F6EF96F0F8EF96F000EF97F0BC
:102DF000020E056F000E066F000E076F000E086FC3
:102E0000E6C5C5F5E7C5C6F505C6C7F506C6C8F5E6
:102E100007C6C9F508C6CAF5D3ECA6F0C5C50BF6BA
:102E2000C6C50CF6C7C50DF6C8C50EF606010B05DE
:102E30000C110D110E11D8B420EF97F022EF97F07E
:102E400070EF96F00B290AE10C2908E10D2906E143
:102E50000E29D8A42EEF97F030EF97F032EF97F0CD
:102E600070EF96F00B510C110D110E11D8B43BEF11
:102E700097F03DEF97F07DEF97F020EE0CF00951C1
:102E8000D9260A51DA22DEC40BF6DEC40CF6DEC403
:102E90000DF6DEC40EF60E510D110C1109E1020EF5
:102EA0000B5DD8A056EF97F058EF97F075EF97F0BD
:102EB00020EE14F00951D9260A51DA22DE500B5DBA
:102EC000DE500C59DE500D59DE500E59D8B06BEF64
:102ED00097F06DEF97F075EF97F00BC601F60CC603
:102EE00002F60DC603F60EC604F6000E056F000EC0
:102EF000066F000E076F000E086F055106110711CF
:102F00000811D8A486EF97F088EF97F015EF98F0A6
:102F100001C605F602C606F603C607F604C608F69D
:102F2000010E0527000E06230723082320EE14F0C8
:102F30000951D9260A51DA22DE50055DDE500659C4
:102F4000DE500759DE500859D8A0A9EF97F0ABEF33
:102F500097F0C2EF97F0020E056F000E066F000E9D
:102F6000076F000E086F04510311021107E1020EF2
:102F7000015DD8B0BEEF97F0C0EF97F0C2EF97F0C9
:102F8000AAEF96F0E6C5C5F5E7C5C6F505C6C7F5CF
:102F900006C6C8F507C6C9F508C6CAF5D3ECA6F03B
:102FA000C5C50BF6C6C50CF6C7C50DF6C8C50EF6E9
:102FB00006010B510C110D110E11D8A4E2EF97F080
:102FC000E4EF97F0E6EF97F015EF98F00B050C1192
:102FD0000D110E11D8B4EFEF97F0F1EF97F070EFFD
:102FE00096F00B290AE10C2908E10D2906E10E29CA
:102FF000D8A4FDEF97F0FFEF97F001EF98F070EF96
:1030000096F0015105190DE1025106190AE103512B
:10301000071907E104510819D8A411EF98F013EF2C
:1030200098F090EF97F0AAEF96F009C6C5F50AC69A
:10303000C6F505C6C7F506C6C8F507C6C9F508C66C
:10304000CAF5FF0E0501CB6FFF0ECC6FFF0ECD6FE3
:10305000FF0ECE6F7CEC9BF00601006F0051D8A4F0
:1030600034EF98F036EF98F05AEF98F00501E851F8
:10307000E911EA11EB11D8B440EF98F042EF98F063
:103080005AEF98F009C6C5F50AC6C6F5E8C5C7F5F2
:10309000E9C5C8F5EAC5C9F5EBC5CAF505C6CBF55E
:1030A00006C6CCF507C6CDF508C6CEF57CEC9BF080
:1030B0000601006F06010051D8A461EF98F063EF9C
:1030C00098F0B0EF98F020EE0CF00951D9260A5193
:1030D000DA2205C6DEF406C6DEF407C6DEF408C64C
:1030E000DEF420EE10F00951D9260A51DA2210EE52
:1030F00014F00951E1260A51E222FE0EE6240501F0
:10310000F06FFF0EE620F16FFF0EE620F26FFF0E6C
:10311000E620F36FDE50F05DDE50F159DE50F259DB
:10312000DE50F359D8A097EF98F099EF98F0A5EFFB
:1031300098F0060120EE10F00951D9260A51DA2242
:10314000DE06000EDE5ADE5ADE5A060120EE05F0DB
:103150000951D9260A51DA22000EDB80C6EF98F019
:103160000005D8B4B6EF98F0B8EF98F0C2EF98F039
:10317000010E056F000E066F000E076F000E086F40
:10318000C6EF98F0056906690769086905C6E6F59E
:1031900006C6E7F507C6E8F508C6E9F5120034C526
:1031A000D9F435C5DAF4DEC4F6F4DDC4F7F4000E64
:1031B000F86E0800F550250AD8A4E1EF98F0E3EF87
:1031C00098F065EF9BF034C5D9F435C5DAF4DE2A02
:1031D000000EDD220701166B000E156F15C75CF59A
:1031E00017691869406A15EF99F05C8234C5D9F403
:1031F00035C5DAF4DE2A000EDD2215EF99F0010E56
:10320000406E15EF99F034C5D9F435C5DAF4DEC453
:10321000F6F4DDC4F7F4000EF86E0800F550300A3D
:10322000D8B4F5EF98F0FFEF98F04050D8B41BEF0A
:1032300099F01DEF99F003EF99F034C504F535C509
:1032400005F536C506F537C507F529ECE3F004C5E5
:1032500015F705C516F7070116BF33EF99F031EFE3
:1032600099F038EF99F05C80156D161FD8B0162BC9
:1032700034C5D9F435C5DAF4DEC4F6F4DDC4F7F4A8
:10328000000EF86E0800F550630AD8A44AEF99F0D2
:103290004CEF99F06FEF99F034C5D9F435C5DAF4F5
:1032A000DE2A000EDD2236C5D9F437C5DAF4DFC4D4
:1032B00038F5020EDE26DFC439F5000EDD2238C5F2
:1032C000D9F439C5DAF4DF50416E32C50EF533C595
:1032D0000FF541C510F5B9ECE4F07BEF9BF034C578
:1032E000D9F435C5DAF4DEC442F5DDC443F542C590
:1032F000F6F443C5F7F4000EF86E0800F5C441F586
:103300008DEF99F0424A432AA4EF99F0690E416E7D
:10331000A4EF99F0416AA4EF99F04150580AD8B44B
:1033200086EF99F03C0AD8B486EF99F00D0AD8B42C
:1033300086EF99F0050AD8B482EF99F0140AD8B450
:1033400086EF99F08AEF99F042C5F6F443C5F7F499
:10335000000EF86E0800F550640AD8B4B2EF99F088
:10336000B4EF99F0FBEF99F042C5F6F443C5F7F4DA
:10337000000EF86E0800F550690AD8A4C2EF99F063
:10338000C4EF99F024EF9AF0FBEF99F036C5D9F429
:1033900037C5DAF4DFC438F5020EDE26DFC439F5AE
:1033A000000EDD2238C5D9F439C5DAF4DEC43CF5A7
:1033B000DDC43DF5000E3DBEFF0E3E6E3F6E06EFD6
:1033C0009AF036C5D9F437C5DAF4DFC438F5040EFF
:1033D000DE26DFC439F5000EDD2238C5D9F439C543
:1033E000DAF4DEC43CF5DEC43DF5DEC43EF5DEC4F1
:1033F0003FF506EF9AF04150690AD8B4C6EF99F04C
:10340000050AD8B4E1EF99F006EF9AF0010E4224D4
:10341000386E000E4320396E34C5D9F435C5DAF460
:1034200038C5DEF439C5DDF432C51EF533C51FF5E8
:103430003CC520F53DC521F53EC522F53FC523F528
:10344000AFECC8F07BEF9BF042C5F6F443C5F7F450
:10345000000EF86E0800F550780AD8B432EF9AF0F2
:1034600034EF9AF07CEF9AF042C5F6F443C5F7F4D6
:10347000000EF86E0800F550580AD8A442EF9AF0F2
:1034800044EF9AF0C2EF9AF07CEF9AF036C5D9F487
:1034900037C5DAF4DFC438F5020EDE26DFC439F5AD
:1034A000000EDD2238C5D9F439C5DAF4DEC43AF5A8
:1034B000DDC43BF53AC53CF53BC53DF53E6A3F6A88
:1034C00087EF9AF036C5D9F437C5DAF4DFC438F59A
:1034D000040EDE26DFC439F5000EDD2238C5D9F42E
:1034E00039C5DAF4DEC43CF5DEC43DF5DEC43EF594
:1034F000DEC43FF587EF9AF04150690AD8B446EF31
:103500009AF0050AD8B462EF9AF087EF9AF0010EAC
:103510004224386E000E4320396E34C5D9F435C5C7
:10352000DAF438C5DEF439C5DDF4B0EF9AF032C50F
:103530001EF533C51FF53CC520F53DC521F53EC53B
:1035400022F53FC523F542C5F6F443C5F7F4000E56
:10355000F86E0800F5C424F585ECD3F07BEF9BF002
:1035600042C5F6F443C5F7F4000EF86E0800F550B6
:10357000580AD8B497EF9AF0200AD8B497EF9AF087
:10358000C2EF9AF0406A34C5D9F435C5DAF4DEC426
:10359000F6F4DDC4F7F4000EF86E0800F550730A77
:1035A000D8A4D5EF9AF0D7EF9AF0E2EF9AF034C5AD
:1035B000D9F435C5DAF4DE2A000EDD22010E406EA4
:1035C00038EF9BF034C5D9F435C5DAF4DEC4F6F42F
:1035D000DDC4F7F4000EF86E0800F5506C0AD8A4AC
:1035E000F4EF9AF0F6EF9AF038EF9BF034C5D9F487
:1035F00035C5DAF4DEC438F5DDC439F5010E3826F8
:10360000000E392238C5F6F439C5F7F4000EF86E0D
:103610000800F5506C0AD8A410EF9BF012EF9BF055
:1036200038EF9BF034C5D9F435C5DAF4DEC438F58B
:10363000DDC439F5020E3826000E392238C5F6F4FD
:1036400039C5F7F4000EF86E0800F550730AD8A4D7
:103650002CEF9BF02EEF9BF038EF9BF0030E34C560
:10366000D9F435C5DAF4DE26000EDD22DEEF9AF05D
:103670004050D8B43EEF9BF040EF9BF05CEF9BF0E6
:1036800032C50EF533C50FF536C5D9F437C5DAF4B2
:10369000DFC438F5020EDE26DFC439F5000EDD2268
:1036A00038C5D9F439C5DAF4DEC410F5DDC411F536
:1036B00087ECCFF07BEF9BF034C5D9F435C5DAF455
:1036C000DE2A000EDD227BEF9BF034C5D9F435C530
:1036D000DAF4DEC4F6F4DDC4F7F4000EF86E080088
:1036E000F550056E066A32C507F533C508F58EEC50
:1036F000E3F05CEF9BF01200020E0501E56FCA518A
:10370000C911C81109E1020EC75DD8A08AEF9BF06C
:103710008CEF9BF0F0EF9DF020EE14F0C551D92610
:10372000C651DA22DE50C75DDE50C859DE50C95995
:10373000DE50CA59D8B09FEF9BF0A1EF9BF0F0EF9D
:103740009DF0DDEF9DF0C7C5E3F5C8C5E4F5D89061
:10375000E431D06FE331CF6FCF51E327D051E42371
:10376000C5C5BAF5C6C5BBF520EE20F0C551D926B2
:10377000C651DA22DEC4CFF5DEC4D0F5DEC4D1F501
:10378000DEC4D2F5E3C5D3F5E4C5D4F5090ED56F93
:10379000D890D433D333D52FC8EF9BF0D351CF2556
:1037A000BC6FD451D021BD6F000ED121BE6F000E71
:1037B000D221BF6FF3ECE3F00501E56FE551D8B41A
:1037C000E4EF9BF0E6EF9BF0E8EF9BF0F0EF9DF06D
:1037D000FF0EE315CF6F010EE415D06FCF51C52555
:1037E000D16FD051C621D26F300ED125E16F000EBE
:1037F000D221E26FE34BE42BC7B101EF9CF003EF62
:103800009CF008EF9CF0CBC5DDF5DE6B22EF9CF061
:10381000CB51CF6FD06BCF3BD03BF00ED017CF51F9
:103820000F0BD013F00ECF17E1C5D9F4E2C5DAF4CF
:10383000DF500F0BD16FD26BCF51D111DD6FD05153
:10384000D211DE6FE1C5D9F4E2C5DAF4DDC5DFF4EB
:1038500020EE04F0C551D926C651DA22010EDF6EE2
:10386000C5C5BAF5C6C5BBF520EE20F0C551D926B1
:10387000C651DA22DEC4CFF5DEC4D0F5DEC4D1F500
:10388000DEC4D2F5E3C5D3F5E4C5D4F5090ED56F92
:10389000D890D433D333D52F48EF9CF0D351CF25D4
:1038A000BC6FD451D021BD6F000ED121BE6F000E70
:1038B000D221BF6FF3ECE3F00501E56FE551D8B419
:1038C00064EF9CF066EF9CF068EF9CF0F0EF9DF0E9
:1038D000FF0EE315CF6F010EE415D06FCF51C52554
:1038E000D16FD051C621D26F300ED125E16F000EBD
:1038F000D221E26FC7B17FEF9CF081EF9CF09FEF88
:103900009CF0CBC5CFF5CCC5D0F5CDC5D1F5CEC596
:10391000D2F5D0C5CFF5D1C5D0F5D2C5D1F5D26B92
:103920000F0ECF17E1C5D9F4E2C5DAF4DF50F00B82
:10393000CF11D36FD351DF6FE06BB5EF9CF0CBC5E8
:10394000CFF5CCC5D0F5CDC5D1F5CEC5D2F5050E98
:10395000AFEF9CF0D890D233D133D033CF33E82EB1
:10396000AAEF9CF0CF51DF6FE06BE1C5D9F4E2C55F
:10397000DAF4DFC5DFF420EE04F0C551D926C651D4
:10398000DA22010EDF6EF0EF9DF0C5C5BAF5C6C5AF
:10399000BBF520EE20F0C551D926C651DA22DEC48F
:1039A000CFF5DEC4D0F5DEC4D1F5DEC4D2F5C7C58F
:1039B000D3F5C8C5D4F5C9C5D5F5CAC5D6F5D4C59E
:1039C000D3F5D5C5D4F5D6C5D5F5D66BCF51D3250E
:1039D000BC6FD051D421BD6FD151D521BE6FD25112
:1039E000D621BF6FF3ECE3F00501E56FE551D8B4E4
:1039F000FCEF9CF0FEEF9CF000EF9DF0F0EF9DF0EF
:103A0000C7C5CFF5C8C5D0F5D890CF37D037FF0E92
:103A1000CF15D16F010ED015D26FD151C525D36FFF
:103A2000D251C621D46F300ED325046E000ED4219E
:103A3000056ECBC506F5CCC507F537ECF6F00501EC
:103A400020EE04F0C551D926C651DA22010EDF6EF0
:103A5000F0EF9DF0C5C5BAF5C6C5BBF520EE20F068
:103A6000C551D926C651DA22DEC4CFF5DEC4D0F561
:103A7000DEC4D1F5DEC4D2F5C7C5D3F5C8C5D4F5CB
:103A8000C9C5D5F5CAC5D6F5080E4CEF9DF0D8903E
:103A9000D633D533D433D333E82E47EF9DF0CF510F
:103AA000D325BC6FD051D421BD6FD151D521BE6F6C
:103AB000D251D621BF6FF3ECE3F00501E56FE5517C
:103AC000D8B465EF9DF067EF9DF069EF9DF0F0EFE2
:103AD0009DF0C7C5CFF5C8C5D0F5D890CF37D03742
:103AE000D890CF37D037FF0ECF15D16F010ED0153C
:103AF000D26FD151C525D36FD251C621D46F300EAC
:103B0000D325046E000ED421056EDAECE5F0000E2C
:103B100004140501D56F000E0514D66F000E0614AF
:103B2000D76FF00E0714D86FFF0ECB15D96FFF0EAD
:103B3000CC15DA6FFF0ECD15DB6F0F0ECE15DC6FD7
:103B4000D551D911CB6FD651DA11CC6FD751DB11CA
:103B5000CD6FD851DC11CE6FC7C5CFF5C8C5D0F534
:103B6000D890CF37D037D890CF37D037FF0ECF157A
:103B7000D16F010ED015D26FD151C525D36FD2515F
:103B8000C621D46F300ED325046E000ED421056EED
:103B9000CBC506F5CCC507F5CDC508F5CEC509F5ED
:103BA0006FECF0F0050120EE04F0C551D926C651A6
:103BB000DA22010EDF6EF0EF9DF0C5C5D9F4C6C55F
:103BC000DAF4DF50010AD8B4A3EF9BF0030AD8B4AB
:103BD000C5EF9CF0010AD8B42AEF9DF0F0EF9DF0FC
:103BE000E5511200266A000E276E000E286E000EA8
:103BF000296E000E2A6E10C52BF511C52CF515BEC9
:103C00000DEF9EF0155007E1250E145CD8B00BEFB8
:103C10009EF00DEF9EF016EF9EF014041510D8A440
:103C200014EF9EF016EF9EF01CEF9EF007011A6B4A
:103C3000160E196F16EFA0F02B502C10D8B423EFEE
:103C40009EF025EF9EF016EFA0F02BC5D9F42CC501
:103C5000DAF4DF50D8A42FEF9EF031EF9EF033EF6F
:103C60009EF016EFA0F02BC5D9F42CC5DAF4DF5086
:103C70002D6E43EF9EF02B4A2C2A2BC5D9F42CC570
:103C8000DAF4DF502D6E200E2D18D8B44AEF9EF0D6
:103C90004CEF9EF03BEF9EF02DC517F5F70E172663
:103CA000040E176456EF9EF058EF9EF03BEF9EF027
:103CB0002D0E2D18D8A45FEF9EF061EF9EF06DEFF2
:103CC0009EF0010E266E2B4A2C2A2BC5D9F42CC54A
:103CD000DAF4DF502D6E78EF9EF02B0E2D18D8A45D
:103CE00074EF9EF076EF9EF078EF9EF063EF9EF01B
:103CF000300E2D18D8A47FEF9EF081EF9EF018EFC4
:103D00009FF02B4A2C2A2BC5D9F42CC5DAF4DF50AE
:103D10002D6E14501510D8B490EF9EF092EF9EF0D7
:103D20009CEF9EF0100E14181510D8A49AEF9EF078
:103D30009CEF9EF00BEF9FF0780E2D18D8B4A3EFF8
:103D40009EF0A5EF9EF0AEEF9EF0580E2D18D8A471
:103D5000ACEF9EF0AEEF9EF00BEF9FF0156A100EE9
:103D6000146E2B4A2C2A2BC5D9F42CC5DAF4DF505B
:103D70002D6E2DC517F5200E17129F0E17261A0E41
:103D80001760C5EF9EF0C7EF9EF0EBEF9EF02DC5DC
:103D900017F59F0E1726190E1764D1EF9EF0D3EF7B
:103DA0009EF0D8EF9EF02DC51EF51F6ADFEF9EF046
:103DB0002DC517F55F0E171617501E6E1F6A1EC50C
:103DC00017F5C90E1726100E1760E9EF9EF0EBEFFE
:103DD0009EF005EF9FF02DC517F5200E17129F0ED0
:103DE0001726190E1764F7EF9EF0F9EF9EF018EF03
:103DF0009FF02DC517F5D00E1726090E176403EF97
:103E00009FF005EF9FF018EF9FF026842B06D8A0B7
:103E10002C0616EFA0F0268414501510D8A413EF2A
:103E20009FF015EF9FF018EF9FF0156A080E146EC3
:103E300014501510D8A41FEF9FF021EF9FF024EF2E
:103E40009FF0156A0A0E146E1650D8B42AEF9FF030
:103E50002CEF9FF047EF9FF026B031EF9FF033EF4C
:103E60009FF03DEF9FF0FF0E226EFF0E236EFF0EC0
:103E7000246E7F0E256E4BEF9FF0000E226E000E1B
:103E8000236E000E246E800E256E4BEF9FF022688D
:103E900023682468256827C51AF528C51BF529C598
:103EA0001CF52AC51DF52DC517F5200E17129F0EFE
:103EB00017261A0E17605FEF9FF061EF9FF07EEFFD
:103EC0009FF02DC517F59F0E1726190E17646BEF7F
:103ED0009FF06DEF9FF072EF9FF02DC520F5216AE6
:103EE00079EF9FF02DC517F55F0E17161750206E4E
:103EF000216A2050C90F2D6E8CEF9FF02DC517F54C
:103F0000D00E17260A0E176088EF9FF08AEF9FF0F9
:103F100004EFA0F0300E2D5E2D50176E186A14506D
:103F2000175C1850800A196E1550800A1958D8A0CD
:103F30009CEF9FF09EEF9FF0A0EF9FF004EFA0F0AA
:103F400026B2A5EF9FF0A7EF9FF0F9EF9FF014C501
:103F500004F515C505F5000E05BEFF0E066E076ECD
:103F600027C508F528C509F529C50AF52AC50BF5A1
:103F7000A5ECF0F02D500424276E000E0520286ECD
:103F8000000E0620296E000E07202A6E1A50275CAC
:103F90001B5028581C5029581D502A58D8A0D3EF20
:103FA0009FF0D5EF9FF0ECEF9FF01650D8B4DBEF09
:103FB0009FF0DDEF9FF0F9EF9FF02750225C285033
:103FC0002358295024582A502558D8B0EAEF9FF09A
:103FD000ECEF9FF0F9EF9FF022C527F523C528F5F8
:103FE00024C529F525C52AF507011A6B220E196F7C
:103FF00026822B4A2C2A2BC5D9F42CC5DAF4DF50A3
:104000002D6E26844BEF9FF02650030BE806D8A4B4
:104010000CEFA0F00EEFA0F016EFA0F02A1E291E64
:10402000281E276C000E282229222A221250131043
:10403000D8B41DEFA0F01FEFA0F032EFA0F026B42F
:1040400024EFA0F026EFA0F02AEFA0F010C52BF58A
:1040500011C52CF512C5D9F413C5DAF42BC5DEF45D
:104060002CC5DDF427C510F528C511F529C512F5B5
:104070002AC513F512000701606B000E5F6F266BF7
:10408000000E256F3C6B3D6B3A6B40ECDDF0056A32
:10409000050E046E28ECDEF004ECEDF0A90E4C6E7B
:1040A000FE0E4D6EA50E4E6EFA0E4F6E5FECF6F0E4
:1040B000FEECF6F049ECEFF02CECF5F0D0ECE9F08A
:1040C00060C537F761C538F7F6ECB4F082ECF3F071
:1040D0000601AFBF70EFA0F06EEFA0F072EFA0F09E
:1040E00070EFA0F0E4ECADF00601F3BF7CEFA0F0C0
:1040F0007AEFA0F09BEFA0F07CEFA0F0F90E712515
:10410000DA6FFF0E7221DB6F71C704F572C705F518
:1041100028ECDEF0BEEFA0F0DB6B040EDA6F84EF6C
:10412000A0F0DB6B050EDA6F84EFA0F0DB6B000E06
:10413000DA6FBEEFA0F071C7D4F772C7D5F70701E9
:10414000D551000AD8B4A7EFA0F096EFA0F0D45153
:10415000080AD8B47EEFA0F0010AD8B47EEFA0F030
:10416000030AD8B47EEFA0F0060AD8B48CEFA0F012
:104170001C0AD8B491EFA0F096EFA0F0220E4C6E7E
:10418000FE0E4D6ED8900701DA35D96EDB35DA6E4A
:10419000480ED926080EDA22DEC44EF5DDC44FF5EE
:1041A0005FECF6F0D8ECF7F007015C6B000E5B6F8C
:1041B0005E6B000E5D6FD96B010ED86F366B000E13
:1041C000356F9D0E4C6EFE0E4D6E5FECF6F0C80E18
:1041D0004C6EFC0E4D6E5FECF6F0720E4C6EFC0EEB
:1041E0004D6E5FECF6F05C0E4C6EFC0E4D6E5FECAF
:1041F000F6F0880E4C6EFB0E4D6E5FECF6F0040E82
:104200004C6EFF0E4D6E5FECF6F0000E4C6EFC0E29
:104210004D6E5FECF6F0910E4C6EFE0E4D6E5FEC47
:10422000F6F0D90E4C6EFE0E4D6E5FECF6F0FB0E06
:104230004C6EFF0E4D6E5FECF6F041ECF4F004C5F1
:10424000DAF705C5DBF7D00E0701DA25D66FFF0ECA
:10425000DB21D76FD75107E1080ED65DD8B033EF19
:10426000A1F035EFA1F042EFA1F0DA5185ECF7F0C3
:10427000080E85ECF7F0D00E0701DA25D86FFF0E97
:10428000DB21D96F0D0EDA19DB11D8B44AEFA1F09A
:104290004CEFA1F056EFA1F00A0EDA19DB11D8A409
:1042A00054EFA1F056EFA1F01DEFA1F08C0E4C6E73
:1042B000F40E4D6E5FECF6F0B20E07010F6F610E5B
:1042C000106F010E116FDB6B000EDA6F5FC725F701
:1042D00060C726F731EFA2F0B1ECA4F0D4EFA0F064
:1042E0006A0E0601F26FFE0EF36F6FC704F570C71A
:1042F00005F56DC706F56EC707F5B9ECF5F004C511
:10430000F4F605C5F5F606C5F6F607C5F7F60FECA3
:10431000CBF0F2C6DAF7F3C6DBF75BEFA2F0770E6D
:104320000601F86FFE0EF96FD9ECDBF0F8C6DAF78C
:10433000F9C6DBF75BEFA2F05D0E0601F86FFE0E2B
:10434000F96FD9ECDBF0F8C6DAF7F9C6DBF75BEF0B
:10435000A2F0CD0E0601F86FFE0EF96FD9ECDBF07E
:10436000F8C6DAF7F9C6DBF75BEFA2F0C10E06017B
:10437000F86FFE0EF96FD9ECDBF0F8C6DAF7F9C684
:10438000DBF75BEFA2F0780E0601A96FFF0EAA6FB4
:104390008FECD6F00601A951AA11D8B4D2EFA1F042
:1043A000D4EFA1F0D6EFA1F0D4EFA0F0F36B010EA3
:1043B000F26FF8ECBDF00601F3BFE3EFA1F0E1EF1F
:1043C000A1F0EBEFA1F0F20E4C6EFC0E4D6E5FEC27
:1043D000F6F0D4EFA0F0E2ECC2F00601F851F911CA
:1043E000D8B4F5EFA1F0F7EFA1F05BEFA2F0D4EFB6
:1043F000A0F0810E0601A96FFF0EAA6F8FECD6F018
:104400000601A951AA11D8B408EFA2F00AEFA2F050
:104410000CEFA2F0D4EFA0F0F36B020EF26FF8EC09
:10442000BDF00601F3BF19EFA2F017EFA2F021EFE4
:10443000A2F0F20E4C6EFC0E4D6E5FECF6F0D4EF77
:10444000A0F058ECDAF06CECB7F00601F851F91175
:10445000D8B42DEFA2F02FEFA2F05BEFA2F0D4EFD3
:10446000A0F0D8C7D4F7D9C7D5F7D551000AD8B42A
:104470003CEFA2F0F9EFA1F0D451000AD8B46CEFF0
:10448000A1F0010AD8B470EFA1F0030AD8B48FEFFD
:10449000A1F0010AD8B49CEFA1F0070AD8B4A9EFA3
:1044A000A1F0010AD8B4B6EFA1F0030AD8B4C3EF63
:1044B000A1F0F9EFA1F00701DA51DB11D8B463EFF5
:1044C000A2F065EFA2F06DEFA2F0200E4C6EFA0E96
:1044D0004D6E5FECF6F0D4EFA0F08C0E4C6EF40E47
:1044E0004D6E5FECF6F0E4ECF7F066ECF4F082EC85
:1044F000E9F0E7ECF7F0D4EFA0F085EF00F00FC69D
:10450000D9F410C6DAF4DEC417F6DDC418F60601D5
:1045100020EE0EF00F51D9261051DA22DEC4F4F548
:10452000DEC4F5F5DEC4F6F5DEC4F7F5200E0501B0
:10453000F4250601136F000E0501F5210601146F25
:10454000000E0501F6210601156F000E0501F72189
:104550000601166F165109E1200E155DD8A0B3EFC4
:10456000A2F0B5EFA2F0BFEFA2F020EE16F00F51CF
:10457000D9261051DA22DE6ADE6ADE6ADD6A20EEB2
:1045800016F00F51D9261051DA22DE50DE10DE105F
:10459000DE10D8A4CEEFA2F0D0EFA2F0D3EFA2F0BD
:1045A000040EB0EFA4F0FF0E13150501F46F010E19
:1045B000060114150501F56F000E0601151505011C
:1045C000F66F000E060116150501F76FF451F5118F
:1045D000F611F711D8A4EFEFA2F0F1EFA2F07EEF01
:1045E000A4F0060120EE16F00F51D9261051DA2260
:1045F000DE2A000EDE22DE22DE2220EE12F00F5135
:10460000D9261051DA22DE50DE10DE10DE10D8A4DA
:104610000CEFA3F00EEFA3F04EEFA3F020EE08F0A6
:104620001751D9261851DA22DEC4F4F5DDC4F5F5A8
:104630000501F451F66FF551F76FF86BF96B13C67E
:10464000FAF514C6FBF515C6FCF516C6FDF5060E03
:104650002FEFA3F0D890FD33FC33FB33FA33E82E71
:104660002AEFA3F0F651FA5DF751FB59F851FC59C6
:10467000F951FD59D8A03FEFA3F041EFA3F07EEF31
:10468000A4F0060120EE16F00F51D9261051DA22BF
:10469000DE6ADE6ADE6ADD6AD0EFA2F020EE0AF0A2
:1046A0001751D9261851DA22DEC4F4F5DDC4F5F528
:1046B000FF0E0501F425F66FFF0EF521F76F13C607
:1046C000F8F514C6F9F515C6FAF516C6FBF50A0E87
:1046D0006FEFA3F0D890FB33FA33F933F833E82EB9
:1046E0006AEFA3F0F651F815FC6FF751F915FD6F5D
:1046F000000EFA15FE6F000EFB15FF6FFC51FD1149
:10470000FE11FF11D8A487EFA3F089EFA3F07EEF8D
:10471000A4F00FC6C5F510C6C6F5060120EE12F0CE
:104720000F51D9261051DA22DEC4C7F5DEC4C8F510
:10473000DEC4C9F5DEC4CAF5D3ECA6F0C5C519F6CA
:10474000C6C51AF6C7C51BF6C8C51CF606011C511E
:104750001B111A1107E1020E195DD8B0B2EFA3F0D8
:10476000B4EFA3F0B7EFA3F0020EB0EFA4F0192955
:104770000AE11A2908E11B2906E11C29D8A4C3EF84
:10478000A3F0C5EFA3F0C8EFA3F0010EB0EFA4F0C3
:1047900020EE14F01751D9261851DA22DE50195D97
:1047A000DE501A59DE501B59DE501C59D8A0DBEFE1
:1047B000A3F0DDEFA3F052EFA4F011511211D8A431
:1047C000E4EFA3F0E6EFA3F0F2EFA3F020EE16F093
:1047D0000F51D9261051DA22DE6ADE6ADE6ADD6AFE
:1047E000D0EFA2F00FC6E6F510C6E7F520EE12F006
:1047F0000F51D9261051DA22DEC4E8F5DEC4E9F5FE
:10480000DEC4EAF5DEC4EBF5E6EC95F0E6C519F694
:10481000E7C51AF6E8C51BF6E9C51CF606011951ED
:104820001A111B111C11D8A418EFA4F01AEFA4F050
:104830001DEFA4F0070EB0EFA4F019051A111B111B
:104840001C11D8A426EFA4F028EFA4F02AEFA4F0BE
:10485000B4EFA3F019290AE11A2908E11B2906E19E
:104860001C29D8A436EFA4F038EFA4F03AEFA4F056
:10487000C5EFA3F017C6BAF518C6BBF519C6BCF547
:104880001AC6BDF51BC6BEF51CC6BFF53CECD2F082
:104890000009D8B44EEFA4F050EFA4F052EFA4F00A
:1048A000C5EFA3F0060120EE12F00F51D9261051EA
:1048B000DA2219C6DEF41AC6DEF41BC6DEF41CC604
:1048C000DEF417C610F518C611F519C612F51AC68A
:1048D00013F51BC614F51CC615F55EECE2F00601D7
:1048E00020EE16F00F51D9261051DA2210C5DEF451
:1048F00011C5DEF412C5DEF413C5DEF4060120EEA8
:104900000EF00F51D9261051DA2213C6DEF414C668
:10491000DEF415C6DEF416C6DEF4FF0E131505012F
:10492000F46F010E060114150501F56FF45106012F
:1049300017250501F66FF551060118210501F76FDE
:10494000300EF627000EF723060120EE1AF00F5165
:10495000D9261051DA22F6C5DEF4F7C5DDF4000ED3
:10496000120005016E6B55C70FF556C710F5750E91
:10497000116E050E126E710E136E050E146E730E0F
:10498000156E050E166EF9ECD5F00501765109E1AC
:10499000500E755DD8A0CFEFA4F0D1EFA4F0D7EF03
:1049A000A4F06C0E7527070E7623DBEFA4F0D00E73
:1049B0007527070E7623170E4C6EFC0E4D6E75C5CF
:1049C0004EF576C54FF571C550F572C551F573C5F5
:1049D00052F574C553F55FECF6F05A0E05016F6F92
:1049E0001B0E706F6FC560F570C561F5636B500E7F
:1049F000626F39ECD8F0050160516111D8B403EF52
:104A0000A5F005EFA5F0D3EFA5F06FC50FF570C5C4
:104A100010F5770E116E050E126E7B0E136E050EDD
:104A2000146E790E156E050E166EB4ECDDF00F5097
:104A30001010D8B41EEFA5F020EFA5F028EFA5F0D8
:104A40006C0E4C6EFB0E4D6E5FECF6F0DBEFA4F0DF
:104A5000BC0E0501775D070E7859D8A032EFA5F09E
:104A600034EFA5F03FEFA5F0200E775D080E7859E2
:104A7000D8A03DEFA5F03FEFA5F047EFA5F06C0EF5
:104A80004C6EFB0E4D6E5FECF6F0DBEFA4F07C514C
:104A900007E10D0E7B5DD8B050EFA5F052EFA5F009
:104AA0005BEFA5F07B517C11D8A459EFA5F05BEF2B
:104AB000A5F063EFA5F06C0E4C6EFB0E4D6E5FEC37
:104AC000F6F0DBEFA4F0020E7B197C11D8A46BEF9B
:104AD000A5F06DEFA5F090EFA5F01D0E79197A11F4
:104AE000D8A475EFA5F077EFA5F090EFA5F077C506
:104AF00009F578C50AF58BECEDF009500A10D8B429
:104B000084EFA5F086EFA5F088EFA5F0C4EFA5F03F
:104B10006C0E4C6EFB0E4D6E5FECF6F0DBEFA4F00E
:104B20007BC56AF57CC56BF5D8906A376B37FE0E8E
:104B30006A256C6FFF0E6B216D6FFD0E6C25F66E96
:104B4000F30E6D21F76EF86A000EF8227951090014
:104B5000F55C7A510900F558D8A0B1EFA5F0B3EF94
:104B6000A5F0BCEFA5F079517A11D8A4BAEFA5F061
:104B7000BCEFA5F0C4EFA5F06C0E4C6EFB0E4D6EB5
:104B80005FECF6F0DBEFA4F077C575F578C576F548
:104B90007BC571F57CC572F579C573F57AC574F579
:104BA000010E05016E6F58C777F5786B57C77BF517
:104BB0007C6B5AC779F57A6B2E0E4C6EFC0E4D6EDF
:104BC00058C74EF54F6A57C750F5516A5AC752F544
:104BD000536A5FECF6F05A0E05016F6F1B0E706F93
:104BE0006FC560F570C561F5636B500E626F39EC8F
:104BF000D8F0050160516111D8B401EFA6F003EFC0
:104C0000A6F06DEFA6F06FC50FF570C510F5770E25
:104C1000116E050E126E7B0E136E050E146E790E5C
:104C2000156E050E166EB4ECDDF00F501010D8B4F2
:104C30001CEFA6F01EEFA6F026EFA6F06C0E4C6E51
:104C4000FB0E4D6E5FECF6F0DCEFA5F00501785140
:104C500009E1180E775DD8A030EFA6F032EFA6F08C
:104C60003AEFA6F06C0E4C6EFB0E4D6E5FECF6F05C
:104C7000DCEFA5F07C5109E13C0E7B5DD8A043EF51
:104C8000A6F045EFA6F04DEFA6F06C0E4C6EFB0EB5
:104C90004D6E5FECF6F0DCEFA5F07A5109E13C0EC9
:104CA000795DD8A056EFA6F058EFA6F060EFA6F019
:104CB0006C0E4C6EFB0E4D6E5FECF6F0DCEFA5F06B
:104CC000A19E77C558F77BC557F779C55AF70DEC04
:104CD000F1F0A18E010E05016E6F6E51D8B473EF25
:104CE000A6F075EFA6F0D2EFA6F075C515F576C55E
:104CF00016F571C517F572C518F573C519F574C5A4
:104D00001AF553ECE0F015C555F716C556F707012F
:104D100037513811D8B48FEFA6F091EFA6F0AEEF6F
:104D2000A6F00DECF1F0000E046E070E056E4E0EAF
:104D3000066E070E076ED00E4FECEBF0FF0AD8A4FC
:104D4000A4EFA6F0A6EFA6F0AEEFA6F0560E4C6EBE
:104D5000FB0E4D6E5FECF6F0D2EFA6F0780E4C6EC7
:104D6000F90E4D6E75C54EF576C54FF571C550F50A
:104D700072C551F573C552F574C553F55FECF6F085
:104D8000050E4C6EFA0E4D6E77C54EF578C54FF593
:104D90007BC550F57CC551F579C552F57AC553F5FB
:104DA0005FECF6F01200C5C5D9F4C6C5DAF4DEC46E
:104DB000DDF5DDC4DEF50501CA51C911C81109E1EF
